{
  "_format": "hh-sol-artifact-1",
  "contractName": "Pass",
  "sourceName": "contracts/Pass.sol",
  "abi": [
    {
      "inputs": [
        {
          "internalType": "uint256",
          "name": "price1",
          "type": "uint256"
        },
        {
          "internalType": "uint256",
          "name": "price2",
          "type": "uint256"
        },
        {
          "internalType": "uint256",
          "name": "price3",
          "type": "uint256"
        }
      ],
      "stateMutability": "nonpayable",
      "type": "constructor"
    },
    {
      "inputs": [
        {
          "internalType": "uint256",
          "name": "",
          "type": "uint256"
        }
      ],
      "name": "allBuyers",
      "outputs": [
        {
          "internalType": "address",
          "name": "",
          "type": "address"
        }
      ],
      "stateMutability": "view",
      "type": "function"
    },
    {
      "inputs": [
        {
          "internalType": "uint256",
          "name": "_id",
          "type": "uint256"
        }
      ],
      "name": "buyPass",
      "outputs": [],
      "stateMutability": "payable",
      "type": "function"
    },
    {
      "inputs": [
        {
          "internalType": "address",
          "name": "",
          "type": "address"
        }
      ],
      "name": "buyerPass",
      "outputs": [
        {
          "internalType": "uint256",
          "name": "",
          "type": "uint256"
        }
      ],
      "stateMutability": "view",
      "type": "function"
    },
    {
      "inputs": [
        {
          "internalType": "address",
          "name": "_buyer",
          "type": "address"
        }
      ],
      "name": "destroyPass",
      "outputs": [],
      "stateMutability": "nonpayable",
      "type": "function"
    },
    {
      "inputs": [
        {
          "internalType": "address",
          "name": "",
          "type": "address"
        }
      ],
      "name": "duration",
      "outputs": [
        {
          "internalType": "uint256",
          "name": "",
          "type": "uint256"
        }
      ],
      "stateMutability": "view",
      "type": "function"
    },
    {
      "inputs": [],
      "name": "owner",
      "outputs": [
        {
          "internalType": "address payable",
          "name": "",
          "type": "address"
        }
      ],
      "stateMutability": "view",
      "type": "function"
    },
    {
      "inputs": [
        {
          "internalType": "uint256",
          "name": "",
          "type": "uint256"
        }
      ],
      "name": "passes",
      "outputs": [
        {
          "internalType": "uint256",
          "name": "",
          "type": "uint256"
        }
      ],
      "stateMutability": "view",
      "type": "function"
    }
  ],
  "bytecode": "0x60806040523480156200001157600080fd5b506040516200113f3803806200113f833981810160405281019062000037919062000109565b33600160006101000a81548173ffffffffffffffffffffffffffffffffffffffff021916908373ffffffffffffffffffffffffffffffffffffffff16021790555082600080600181526020019081526020016000208190555081600080600281526020019081526020016000208190555080600080600381526020019081526020016000208190555050505062000165565b600080fd5b6000819050919050565b620000e381620000ce565b8114620000ef57600080fd5b50565b6000815190506200010381620000d8565b92915050565b600080600060608486031215620001255762000124620000c9565b5b60006200013586828701620000f2565b93505060206200014886828701620000f2565b92505060406200015b86828701620000f2565b9150509250925092565b610fca80620001756000396000f3fe6080604052600436106100705760003560e01c80636e321ce41161004e5780636e321ce4146100f75780638da5cb5b14610134578063939634101461015f578063b36760a31461019c57610070565b8063305ebca7146100755780633420f9b3146100b25780633501f334146100ce575b600080fd5b34801561008157600080fd5b5061009c60048036038101906100979190610a84565b6101d9565b6040516100a99190610aca565b60405180910390f35b6100cc60048036038101906100c79190610b11565b6101f1565b005b3480156100da57600080fd5b506100f560048036038101906100f09190610a84565b6104dd565b005b34801561010357600080fd5b5061011e60048036038101906101199190610b11565b61098c565b60405161012b9190610aca565b60405180910390f35b34801561014057600080fd5b506101496109a4565b6040516101569190610b5f565b60405180910390f35b34801561016b57600080fd5b5061018660048036038101906101819190610b11565b6109ca565b6040516101939190610b89565b60405180910390f35b3480156101a857600080fd5b506101c360048036038101906101be9190610a84565b610a09565b6040516101d09190610aca565b60405180910390f35b60056020528060005260406000206000915090505481565b600081118015610202575060038111155b610241576040517f08c379a000000000000000000000000000000000000000000000000000000000815260040161023890610c01565b60405180910390fd5b6000600560003373ffffffffffffffffffffffffffffffffffffffff1673ffffffffffffffffffffffffffffffffffffffff16815260200190815260200160002054146102c3576040517f08c379a00000000000000000000000000000000000000000000000000000000081526004016102ba90610c6d565b60405180910390fd5b670de0b6b3a7640000600080838152602001908152602001600020546102e99190610cbc565b341461032a576040517f08c379a000000000000000000000000000000000000000000000000000000000815260040161032190610d62565b60405180910390fd5b600160009054906101000a900473ffffffffffffffffffffffffffffffffffffffff1673ffffffffffffffffffffffffffffffffffffffff166108fc349081150290604051600060405180830381858888f19350505050158015610392573d6000803e3d6000fd5b5080600560003373ffffffffffffffffffffffffffffffffffffffff1673ffffffffffffffffffffffffffffffffffffffff1681526020019081526020016000208190555042600660003373ffffffffffffffffffffffffffffffffffffffff1673ffffffffffffffffffffffffffffffffffffffff16815260200190815260200160002081905550600254600460003373ffffffffffffffffffffffffffffffffffffffff1673ffffffffffffffffffffffffffffffffffffffff1681526020019081526020016000208190555060026000815461047090610d82565b919050819055506003339080600181540180825580915050600190039060005260206000200160009091909190916101000a81548173ffffffffffffffffffffffffffffffffffffffff021916908373ffffffffffffffffffffffffffffffffffffffff16021790555050565b600160009054906101000a900473ffffffffffffffffffffffffffffffffffffffff1673ffffffffffffffffffffffffffffffffffffffff163373ffffffffffffffffffffffffffffffffffffffff161461056d576040517f08c379a000000000000000000000000000000000000000000000000000000000815260040161056490610e17565b60405180910390fd5b6000600560008373ffffffffffffffffffffffffffffffffffffffff1673ffffffffffffffffffffffffffffffffffffffff1681526020019081526020016000205414156105f0576040517f08c379a00000000000000000000000000000000000000000000000000000000081526004016105e790610e83565b60405180910390fd5b6001600560008373ffffffffffffffffffffffffffffffffffffffff1673ffffffffffffffffffffffffffffffffffffffff16815260200190815260200160002054141561079557426000600660008473ffffffffffffffffffffffffffffffffffffffff1673ffffffffffffffffffffffffffffffffffffffff168152602001908152602001600020546106859190610ea3565b106106c5576040517f08c379a00000000000000000000000000000000000000000000000000000000081526004016106bc90610f45565b60405180910390fd5b6000600560008373ffffffffffffffffffffffffffffffffffffffff1673ffffffffffffffffffffffffffffffffffffffff168152602001908152602001600020819055506000600460008373ffffffffffffffffffffffffffffffffffffffff1673ffffffffffffffffffffffffffffffffffffffff1681526020019081526020016000205490506003818154811061076257610761610f65565b5b9060005260206000200160006101000a81549073ffffffffffffffffffffffffffffffffffffffff021916905550610989565b6002600560008373ffffffffffffffffffffffffffffffffffffffff1673ffffffffffffffffffffffffffffffffffffffff16815260200190815260200160002054141561093a57426011600660008473ffffffffffffffffffffffffffffffffffffffff1673ffffffffffffffffffffffffffffffffffffffff1681526020019081526020016000205461082a9190610ea3565b1061086a576040517f08c379a000000000000000000000000000000000000000000000000000000000815260040161086190610f45565b60405180910390fd5b6000600560008373ffffffffffffffffffffffffffffffffffffffff1673ffffffffffffffffffffffffffffffffffffffff168152602001908152602001600020819055506000600460008373ffffffffffffffffffffffffffffffffffffffff1673ffffffffffffffffffffffffffffffffffffffff1681526020019081526020016000205490506003818154811061090757610906610f65565b5b9060005260206000200160006101000a81549073ffffffffffffffffffffffffffffffffffffffff021916905550610988565b6003600560008373ffffffffffffffffffffffffffffffffffffffff1673ffffffffffffffffffffffffffffffffffffffff16815260200190815260200160002054141561098757600080fd5b5b5b50565b60006020528060005260406000206000915090505481565b600160009054906101000a900473ffffffffffffffffffffffffffffffffffffffff1681565b600381815481106109da57600080fd5b906000526020600020016000915054906101000a900473ffffffffffffffffffffffffffffffffffffffff1681565b60066020528060005260406000206000915090505481565b600080fd5b600073ffffffffffffffffffffffffffffffffffffffff82169050919050565b6000610a5182610a26565b9050919050565b610a6181610a46565b8114610a6c57600080fd5b50565b600081359050610a7e81610a58565b92915050565b600060208284031215610a9a57610a99610a21565b5b6000610aa884828501610a6f565b91505092915050565b6000819050919050565b610ac481610ab1565b82525050565b6000602082019050610adf6000830184610abb565b92915050565b610aee81610ab1565b8114610af957600080fd5b50565b600081359050610b0b81610ae5565b92915050565b600060208284031215610b2757610b26610a21565b5b6000610b3584828501610afc565b91505092915050565b6000610b4982610a26565b9050919050565b610b5981610b3e565b82525050565b6000602082019050610b746000830184610b50565b92915050565b610b8381610a46565b82525050565b6000602082019050610b9e6000830184610b7a565b92915050565b600082825260208201905092915050565b7f77726f6e67206964000000000000000000000000000000000000000000000000600082015250565b6000610beb600883610ba4565b9150610bf682610bb5565b602082019050919050565b60006020820190508181036000830152610c1a81610bde565b9050919050565b7f596f7520616c6561647920686176652070617373000000000000000000000000600082015250565b6000610c57601483610ba4565b9150610c6282610c21565b602082019050919050565b60006020820190508181036000830152610c8681610c4a565b9050919050565b7f4e487b7100000000000000000000000000000000000000000000000000000000600052601160045260246000fd5b6000610cc782610ab1565b9150610cd283610ab1565b9250817fffffffffffffffffffffffffffffffffffffffffffffffffffffffffffffffff0483118215151615610d0b57610d0a610c8d565b5b828202905092915050565b7f506c656173652073657420746865207072696365000000000000000000000000600082015250565b6000610d4c601483610ba4565b9150610d5782610d16565b602082019050919050565b60006020820190508181036000830152610d7b81610d3f565b9050919050565b6000610d8d82610ab1565b91507fffffffffffffffffffffffffffffffffffffffffffffffffffffffffffffffff821415610dc057610dbf610c8d565b5b600182019050919050565b7f6f6e6c79206f776e65722063616e2063616c6c00000000000000000000000000600082015250565b6000610e01601383610ba4565b9150610e0c82610dcb565b602082019050919050565b60006020820190508181036000830152610e3081610df4565b9050919050565b7f6e6f742061206275796572000000000000000000000000000000000000000000600082015250565b6000610e6d600b83610ba4565b9150610e7882610e37565b602082019050919050565b60006020820190508181036000830152610e9c81610e60565b9050919050565b6000610eae82610ab1565b9150610eb983610ab1565b9250827fffffffffffffffffffffffffffffffffffffffffffffffffffffffffffffffff03821115610eee57610eed610c8d565b5b828201905092915050565b7f6e6f742079657400000000000000000000000000000000000000000000000000600082015250565b6000610f2f600783610ba4565b9150610f3a82610ef9565b602082019050919050565b60006020820190508181036000830152610f5e81610f22565b9050919050565b7f4e487b7100000000000000000000000000000000000000000000000000000000600052603260045260246000fdfea2646970667358221220eaefc908ab4a556b54c4af9ce283e0e3b1852ea406d2f45c5e2743e73c1c974264736f6c63430008090033",
  "linkReferences": {},
  "deployedLinkReferences": {}
}