{
  "_format": "hh-sol-artifact-1",
  "contractName": "TokenMarketplace",
  "sourceName": "contracts/TokenMarketplace.sol",
  "abi": [
    {
      "inputs": [
        {
          "internalType": "uint256",
          "name": "_id",
          "type": "uint256"
        },
        {
          "internalType": "uint256",
          "name": "_newPrice",
          "type": "uint256"
        }
      ],
      "name": "buyToken",
      "outputs": [],
      "stateMutability": "payable",
      "type": "function"
    },
    {
      "inputs": [
        {
          "internalType": "string",
          "name": "_name",
          "type": "string"
        },
        {
          "internalType": "uint256",
          "name": "_price",
          "type": "uint256"
        },
        {
          "internalType": "string",
          "name": "_symbol",
          "type": "string"
        }
      ],
      "name": "mint",
      "outputs": [],
      "stateMutability": "nonpayable",
      "type": "function"
    },
    {
      "inputs": [
        {
          "internalType": "uint256",
          "name": "",
          "type": "uint256"
        }
      ],
      "name": "tokens",
      "outputs": [
        {
          "internalType": "string",
          "name": "name",
          "type": "string"
        },
        {
          "internalType": "uint256",
          "name": "price",
          "type": "uint256"
        },
        {
          "internalType": "string",
          "name": "symbol",
          "type": "string"
        },
        {
          "internalType": "address",
          "name": "owner",
          "type": "address"
        }
      ],
      "stateMutability": "view",
      "type": "function"
    },
    {
      "inputs": [],
      "name": "viewTokens",
      "outputs": [
        {
          "components": [
            {
              "internalType": "string",
              "name": "name",
              "type": "string"
            },
            {
              "internalType": "uint256",
              "name": "price",
              "type": "uint256"
            },
            {
              "internalType": "string",
              "name": "symbol",
              "type": "string"
            },
            {
              "internalType": "address",
              "name": "owner",
              "type": "address"
            }
          ],
          "internalType": "struct TokenMarketplace.token[]",
          "name": "",
          "type": "tuple[]"
        }
      ],
      "stateMutability": "view",
      "type": "function"
    }
  ],
  "bytecode": "0x608060405234801561001057600080fd5b50610f13806100206000396000f3fe60806040526004361061003f5760003560e01c8063057466ea1461004457806306bdc949146100605780634bf5bf35146100895780634f64b2be146100b4575b600080fd5b61005e600480360381019061005991906106ba565b6100f4565b005b34801561006c57600080fd5b5061008760048036038101906100829190610840565b610237565b005b34801561009557600080fd5b5061009e61031d565b6040516100ab9190610ac6565b60405180910390f35b3480156100c057600080fd5b506100db60048036038101906100d69190610ae8565b610500565b6040516100eb9493929190610b7d565b60405180910390f35b6000828154811061010857610107610bd0565b5b906000526020600020906004020160030160009054906101000a900473ffffffffffffffffffffffffffffffffffffffff1673ffffffffffffffffffffffffffffffffffffffff166108fc6000848154811061016757610166610bd0565b5b9060005260206000209060040201600101549081150290604051600060405180830381858888f193505050501580156101a4573d6000803e3d6000fd5b5080600083815481106101ba576101b9610bd0565b5b90600052602060002090600402016001018190555033600083815481106101e4576101e3610bd0565b5b906000526020600020906004020160030160006101000a81548173ffffffffffffffffffffffffffffffffffffffff021916908373ffffffffffffffffffffffffffffffffffffffff1602179055505050565b600060405180608001604052808581526020018481526020018381526020013373ffffffffffffffffffffffffffffffffffffffff16815250908060018154018082558091505060019003906000526020600020906004020160009091909190915060008201518160000190816102ae9190610e0b565b506020820151816001015560408201518160020190816102ce9190610e0b565b5060608201518160030160006101000a81548173ffffffffffffffffffffffffffffffffffffffff021916908373ffffffffffffffffffffffffffffffffffffffff1602179055505050505050565b60606000805480602002602001604051908101604052809291908181526020016000905b828210156104f7578382906000526020600020906004020160405180608001604052908160008201805461037490610c2e565b80601f01602080910402602001604051908101604052809291908181526020018280546103a090610c2e565b80156103ed5780601f106103c2576101008083540402835291602001916103ed565b820191906000526020600020905b8154815290600101906020018083116103d057829003601f168201915b505050505081526020016001820154815260200160028201805461041090610c2e565b80601f016020809104026020016040519081016040528092919081815260200182805461043c90610c2e565b80156104895780601f1061045e57610100808354040283529160200191610489565b820191906000526020600020905b81548152906001019060200180831161046c57829003601f168201915b505050505081526020016003820160009054906101000a900473ffffffffffffffffffffffffffffffffffffffff1673ffffffffffffffffffffffffffffffffffffffff1673ffffffffffffffffffffffffffffffffffffffff168152505081526020019060010190610341565b50505050905090565b6000818154811061051057600080fd5b906000526020600020906004020160009150905080600001805461053390610c2e565b80601f016020809104026020016040519081016040528092919081815260200182805461055f90610c2e565b80156105ac5780601f10610581576101008083540402835291602001916105ac565b820191906000526020600020905b81548152906001019060200180831161058f57829003601f168201915b5050505050908060010154908060020180546105c790610c2e565b80601f01602080910402602001604051908101604052809291908181526020018280546105f390610c2e565b80156106405780601f1061061557610100808354040283529160200191610640565b820191906000526020600020905b81548152906001019060200180831161062357829003601f168201915b5050505050908060030160009054906101000a900473ffffffffffffffffffffffffffffffffffffffff16905084565b6000604051905090565b600080fd5b600080fd5b6000819050919050565b61069781610684565b81146106a257600080fd5b50565b6000813590506106b48161068e565b92915050565b600080604083850312156106d1576106d061067a565b5b60006106df858286016106a5565b92505060206106f0858286016106a5565b9150509250929050565b600080fd5b600080fd5b6000601f19601f8301169050919050565b7f4e487b7100000000000000000000000000000000000000000000000000000000600052604160045260246000fd5b61074d82610704565b810181811067ffffffffffffffff8211171561076c5761076b610715565b5b80604052505050565b600061077f610670565b905061078b8282610744565b919050565b600067ffffffffffffffff8211156107ab576107aa610715565b5b6107b482610704565b9050602081019050919050565b82818337600083830152505050565b60006107e36107de84610790565b610775565b9050828152602081018484840111156107ff576107fe6106ff565b5b61080a8482856107c1565b509392505050565b600082601f830112610827576108266106fa565b5b81356108378482602086016107d0565b91505092915050565b6000806000606084860312156108595761085861067a565b5b600084013567ffffffffffffffff8111156108775761087661067f565b5b61088386828701610812565b9350506020610894868287016106a5565b925050604084013567ffffffffffffffff8111156108b5576108b461067f565b5b6108c186828701610812565b9150509250925092565b600081519050919050565b600082825260208201905092915050565b6000819050602082019050919050565b600081519050919050565b600082825260208201905092915050565b60005b83811015610931578082015181840152602081019050610916565b60008484015250505050565b6000610948826108f7565b6109528185610902565b9350610962818560208601610913565b61096b81610704565b840191505092915050565b61097f81610684565b82525050565b600073ffffffffffffffffffffffffffffffffffffffff82169050919050565b60006109b082610985565b9050919050565b6109c0816109a5565b82525050565b600060808301600083015184820360008601526109e3828261093d565b91505060208301516109f86020860182610976565b5060408301518482036040860152610a10828261093d565b9150506060830151610a2560608601826109b7565b508091505092915050565b6000610a3c83836109c6565b905092915050565b6000602082019050919050565b6000610a5c826108cb565b610a6681856108d6565b935083602082028501610a78856108e7565b8060005b85811015610ab45784840389528151610a958582610a30565b9450610aa083610a44565b925060208a01995050600181019050610a7c565b50829750879550505050505092915050565b60006020820190508181036000830152610ae08184610a51565b905092915050565b600060208284031215610afe57610afd61067a565b5b6000610b0c848285016106a5565b91505092915050565b600082825260208201905092915050565b6000610b31826108f7565b610b3b8185610b15565b9350610b4b818560208601610913565b610b5481610704565b840191505092915050565b610b6881610684565b82525050565b610b77816109a5565b82525050565b60006080820190508181036000830152610b978187610b26565b9050610ba66020830186610b5f565b8181036040830152610bb88185610b26565b9050610bc76060830184610b6e565b95945050505050565b7f4e487b7100000000000000000000000000000000000000000000000000000000600052603260045260246000fd5b7f4e487b7100000000000000000000000000000000000000000000000000000000600052602260045260246000fd5b60006002820490506001821680610c4657607f821691505b602082108103610c5957610c58610bff565b5b50919050565b60008190508160005260206000209050919050565b60006020601f8301049050919050565b600082821b905092915050565b600060088302610cc17fffffffffffffffffffffffffffffffffffffffffffffffffffffffffffffffff82610c84565b610ccb8683610c84565b95508019841693508086168417925050509392505050565b6000819050919050565b6000610d08610d03610cfe84610684565b610ce3565b610684565b9050919050565b6000819050919050565b610d2283610ced565b610d36610d2e82610d0f565b848454610c91565b825550505050565b600090565b610d4b610d3e565b610d56818484610d19565b505050565b5b81811015610d7a57610d6f600082610d43565b600181019050610d5c565b5050565b601f821115610dbf57610d9081610c5f565b610d9984610c74565b81016020851015610da8578190505b610dbc610db485610c74565b830182610d5b565b50505b505050565b600082821c905092915050565b6000610de260001984600802610dc4565b1980831691505092915050565b6000610dfb8383610dd1565b9150826002028217905092915050565b610e14826108f7565b67ffffffffffffffff811115610e2d57610e2c610715565b5b610e378254610c2e565b610e42828285610d7e565b600060209050601f831160018114610e755760008415610e63578287015190505b610e6d8582610def565b865550610ed5565b601f198416610e8386610c5f565b60005b82811015610eab57848901518255600182019150602085019450602081019050610e86565b86831015610ec85784890151610ec4601f891682610dd1565b8355505b6001600288020188555050505b50505050505056fea2646970667358221220731f418476eee853e590183aac318a88eb34c47bea3faf07c2d3c52301064c3464736f6c63430008110033",
  "linkReferences": {},
  "deployedLinkReferences": {}
}