{
  "_format": "hh-sol-artifact-1",
  "contractName": "Pass",
  "sourceName": "contracts/Pass.sol",
  "abi": [
    {
      "inputs": [
        {
          "internalType": "uint256",
          "name": "price1",
          "type": "uint256"
        },
        {
          "internalType": "uint256",
          "name": "price2",
          "type": "uint256"
        },
        {
          "internalType": "uint256",
          "name": "price3",
          "type": "uint256"
        }
      ],
      "stateMutability": "nonpayable",
      "type": "constructor"
    },
    {
      "inputs": [
        {
          "internalType": "uint256",
          "name": "",
          "type": "uint256"
        }
      ],
      "name": "allBuyers",
      "outputs": [
        {
          "internalType": "address",
          "name": "",
          "type": "address"
        }
      ],
      "stateMutability": "view",
      "type": "function"
    },
    {
      "inputs": [
        {
          "internalType": "uint256",
          "name": "_id",
          "type": "uint256"
        }
      ],
      "name": "buyPass",
      "outputs": [],
      "stateMutability": "payable",
      "type": "function"
    },
    {
      "inputs": [
        {
          "internalType": "address",
          "name": "",
          "type": "address"
        }
      ],
      "name": "buyerPass",
      "outputs": [
        {
          "internalType": "uint256",
          "name": "",
          "type": "uint256"
        }
      ],
      "stateMutability": "view",
      "type": "function"
    },
    {
      "inputs": [
        {
          "internalType": "address",
          "name": "_buyer",
          "type": "address"
        }
      ],
      "name": "destroyPass",
      "outputs": [],
      "stateMutability": "nonpayable",
      "type": "function"
    },
    {
      "inputs": [
        {
          "internalType": "address",
          "name": "",
          "type": "address"
        }
      ],
      "name": "duration",
      "outputs": [
        {
          "internalType": "uint256",
          "name": "",
          "type": "uint256"
        }
      ],
      "stateMutability": "view",
      "type": "function"
    },
    {
      "inputs": [],
      "name": "owner",
      "outputs": [
        {
          "internalType": "address payable",
          "name": "",
          "type": "address"
        }
      ],
      "stateMutability": "view",
      "type": "function"
    },
    {
      "inputs": [
        {
          "internalType": "uint256",
          "name": "",
          "type": "uint256"
        }
      ],
      "name": "passes",
      "outputs": [
        {
          "internalType": "uint256",
          "name": "",
          "type": "uint256"
        }
      ],
      "stateMutability": "view",
      "type": "function"
    },
    {
      "inputs": [],
      "name": "showAllBuyers",
      "outputs": [
        {
          "internalType": "address[]",
          "name": "",
          "type": "address[]"
        }
      ],
      "stateMutability": "view",
      "type": "function"
    }
  ],
  "bytecode": "0x60806040523480156200001157600080fd5b50604051620012e9380380620012e9833981810160405281019062000037919062000109565b33600160006101000a81548173ffffffffffffffffffffffffffffffffffffffff021916908373ffffffffffffffffffffffffffffffffffffffff16021790555082600080600181526020019081526020016000208190555081600080600281526020019081526020016000208190555080600080600381526020019081526020016000208190555050505062000165565b600080fd5b6000819050919050565b620000e381620000ce565b8114620000ef57600080fd5b50565b6000815190506200010381620000d8565b92915050565b600080600060608486031215620001255762000124620000c9565b5b60006200013586828701620000f2565b93505060206200014886828701620000f2565b92505060406200015b86828701620000f2565b9150509250925092565b61117480620001756000396000f3fe60806040526004361061007b5760003560e01c80638da5cb5b1161004e5780638da5cb5b1461013f578063939634101461016a578063b36760a3146101a7578063f44a1885146101e45761007b565b8063305ebca7146100805780633420f9b3146100bd5780633501f334146100d95780636e321ce414610102575b600080fd5b34801561008c57600080fd5b506100a760048036038101906100a29190610b4e565b61020f565b6040516100b49190610b94565b60405180910390f35b6100d760048036038101906100d29190610bdb565b610227565b005b3480156100e557600080fd5b5061010060048036038101906100fb9190610b4e565b610513565b005b34801561010e57600080fd5b5061012960048036038101906101249190610bdb565b6109c8565b6040516101369190610b94565b60405180910390f35b34801561014b57600080fd5b506101546109e0565b6040516101619190610c29565b60405180910390f35b34801561017657600080fd5b50610191600480360381019061018c9190610bdb565b610a06565b60405161019e9190610c53565b60405180910390f35b3480156101b357600080fd5b506101ce60048036038101906101c99190610b4e565b610a45565b6040516101db9190610b94565b60405180910390f35b3480156101f057600080fd5b506101f9610a5d565b6040516102069190610d2c565b60405180910390f35b60056020528060005260406000206000915090505481565b600081118015610238575060038111155b610277576040517f08c379a000000000000000000000000000000000000000000000000000000000815260040161026e90610dab565b60405180910390fd5b6000600560003373ffffffffffffffffffffffffffffffffffffffff1673ffffffffffffffffffffffffffffffffffffffff16815260200190815260200160002054146102f9576040517f08c379a00000000000000000000000000000000000000000000000000000000081526004016102f090610e17565b60405180910390fd5b670de0b6b3a76400006000808381526020019081526020016000205461031f9190610e66565b3414610360576040517f08c379a000000000000000000000000000000000000000000000000000000000815260040161035790610f0c565b60405180910390fd5b600160009054906101000a900473ffffffffffffffffffffffffffffffffffffffff1673ffffffffffffffffffffffffffffffffffffffff166108fc349081150290604051600060405180830381858888f193505050501580156103c8573d6000803e3d6000fd5b5080600560003373ffffffffffffffffffffffffffffffffffffffff1673ffffffffffffffffffffffffffffffffffffffff1681526020019081526020016000208190555042600660003373ffffffffffffffffffffffffffffffffffffffff1673ffffffffffffffffffffffffffffffffffffffff16815260200190815260200160002081905550600254600460003373ffffffffffffffffffffffffffffffffffffffff1673ffffffffffffffffffffffffffffffffffffffff168152602001908152602001600020819055506002600081546104a690610f2c565b919050819055506003339080600181540180825580915050600190039060005260206000200160009091909190916101000a81548173ffffffffffffffffffffffffffffffffffffffff021916908373ffffffffffffffffffffffffffffffffffffffff16021790555050565b600160009054906101000a900473ffffffffffffffffffffffffffffffffffffffff1673ffffffffffffffffffffffffffffffffffffffff163373ffffffffffffffffffffffffffffffffffffffff16146105a3576040517f08c379a000000000000000000000000000000000000000000000000000000000815260040161059a90610fc1565b60405180910390fd5b6000600560008373ffffffffffffffffffffffffffffffffffffffff1673ffffffffffffffffffffffffffffffffffffffff168152602001908152602001600020541415610626576040517f08c379a000000000000000000000000000000000000000000000000000000000815260040161061d9061102d565b60405180910390fd5b6001600560008373ffffffffffffffffffffffffffffffffffffffff1673ffffffffffffffffffffffffffffffffffffffff1681526020019081526020016000205414156107ce57426305a39a80600660008473ffffffffffffffffffffffffffffffffffffffff1673ffffffffffffffffffffffffffffffffffffffff168152602001908152602001600020546106be919061104d565b106106fe576040517f08c379a00000000000000000000000000000000000000000000000000000000081526004016106f5906110ef565b60405180910390fd5b6000600560008373ffffffffffffffffffffffffffffffffffffffff1673ffffffffffffffffffffffffffffffffffffffff168152602001908152602001600020819055506000600460008373ffffffffffffffffffffffffffffffffffffffff1673ffffffffffffffffffffffffffffffffffffffff1681526020019081526020016000205490506003818154811061079b5761079a61110f565b5b9060005260206000200160006101000a81549073ffffffffffffffffffffffffffffffffffffffff0219169055506109c5565b6002600560008373ffffffffffffffffffffffffffffffffffffffff1673ffffffffffffffffffffffffffffffffffffffff16815260200190815260200160002054141561097657426309660180600660008473ffffffffffffffffffffffffffffffffffffffff1673ffffffffffffffffffffffffffffffffffffffff16815260200190815260200160002054610866919061104d565b106108a6576040517f08c379a000000000000000000000000000000000000000000000000000000000815260040161089d906110ef565b60405180910390fd5b6000600560008373ffffffffffffffffffffffffffffffffffffffff1673ffffffffffffffffffffffffffffffffffffffff168152602001908152602001600020819055506000600460008373ffffffffffffffffffffffffffffffffffffffff1673ffffffffffffffffffffffffffffffffffffffff168152602001908152602001600020549050600381815481106109435761094261110f565b5b9060005260206000200160006101000a81549073ffffffffffffffffffffffffffffffffffffffff0219169055506109c4565b6003600560008373ffffffffffffffffffffffffffffffffffffffff1673ffffffffffffffffffffffffffffffffffffffff1681526020019081526020016000205414156109c357600080fd5b5b5b50565b60006020528060005260406000206000915090505481565b600160009054906101000a900473ffffffffffffffffffffffffffffffffffffffff1681565b60038181548110610a1657600080fd5b906000526020600020016000915054906101000a900473ffffffffffffffffffffffffffffffffffffffff1681565b60066020528060005260406000206000915090505481565b60606003805480602002602001604051908101604052809291908181526020018280548015610ae157602002820191906000526020600020905b8160009054906101000a900473ffffffffffffffffffffffffffffffffffffffff1673ffffffffffffffffffffffffffffffffffffffff1681526020019060010190808311610a97575b5050505050905090565b600080fd5b600073ffffffffffffffffffffffffffffffffffffffff82169050919050565b6000610b1b82610af0565b9050919050565b610b2b81610b10565b8114610b3657600080fd5b50565b600081359050610b4881610b22565b92915050565b600060208284031215610b6457610b63610aeb565b5b6000610b7284828501610b39565b91505092915050565b6000819050919050565b610b8e81610b7b565b82525050565b6000602082019050610ba96000830184610b85565b92915050565b610bb881610b7b565b8114610bc357600080fd5b50565b600081359050610bd581610baf565b92915050565b600060208284031215610bf157610bf0610aeb565b5b6000610bff84828501610bc6565b91505092915050565b6000610c1382610af0565b9050919050565b610c2381610c08565b82525050565b6000602082019050610c3e6000830184610c1a565b92915050565b610c4d81610b10565b82525050565b6000602082019050610c686000830184610c44565b92915050565b600081519050919050565b600082825260208201905092915050565b6000819050602082019050919050565b610ca381610b10565b82525050565b6000610cb58383610c9a565b60208301905092915050565b6000602082019050919050565b6000610cd982610c6e565b610ce38185610c79565b9350610cee83610c8a565b8060005b83811015610d1f578151610d068882610ca9565b9750610d1183610cc1565b925050600181019050610cf2565b5085935050505092915050565b60006020820190508181036000830152610d468184610cce565b905092915050565b600082825260208201905092915050565b7f77726f6e67206964000000000000000000000000000000000000000000000000600082015250565b6000610d95600883610d4e565b9150610da082610d5f565b602082019050919050565b60006020820190508181036000830152610dc481610d88565b9050919050565b7f596f7520616c6561647920686176652070617373000000000000000000000000600082015250565b6000610e01601483610d4e565b9150610e0c82610dcb565b602082019050919050565b60006020820190508181036000830152610e3081610df4565b9050919050565b7f4e487b7100000000000000000000000000000000000000000000000000000000600052601160045260246000fd5b6000610e7182610b7b565b9150610e7c83610b7b565b9250817fffffffffffffffffffffffffffffffffffffffffffffffffffffffffffffffff0483118215151615610eb557610eb4610e37565b5b828202905092915050565b7f506c656173652073657420746865207072696365000000000000000000000000600082015250565b6000610ef6601483610d4e565b9150610f0182610ec0565b602082019050919050565b60006020820190508181036000830152610f2581610ee9565b9050919050565b6000610f3782610b7b565b91507fffffffffffffffffffffffffffffffffffffffffffffffffffffffffffffffff821415610f6a57610f69610e37565b5b600182019050919050565b7f6f6e6c79206f776e65722063616e2063616c6c00000000000000000000000000600082015250565b6000610fab601383610d4e565b9150610fb682610f75565b602082019050919050565b60006020820190508181036000830152610fda81610f9e565b9050919050565b7f6e6f742061206275796572000000000000000000000000000000000000000000600082015250565b6000611017600b83610d4e565b915061102282610fe1565b602082019050919050565b600060208201905081810360008301526110468161100a565b9050919050565b600061105882610b7b565b915061106383610b7b565b9250827fffffffffffffffffffffffffffffffffffffffffffffffffffffffffffffffff0382111561109857611097610e37565b5b828201905092915050565b7f6e6f742079657400000000000000000000000000000000000000000000000000600082015250565b60006110d9600783610d4e565b91506110e4826110a3565b602082019050919050565b60006020820190508181036000830152611108816110cc565b9050919050565b7f4e487b7100000000000000000000000000000000000000000000000000000000600052603260045260246000fdfea264697066735822122029ce0a9754324b1c92b63c5af2d4b4ee68ec2df607f15d3fd32e3699d5fa2e0564736f6c63430008090033",
  "linkReferences": {},
  "deployedLinkReferences": {}
}