{
  "_format": "hh-sol-artifact-1",
  "contractName": "Pass",
  "sourceName": "contracts/Pass.sol",
  "abi": [
    {
      "inputs": [
        {
          "internalType": "uint256",
          "name": "price1",
          "type": "uint256"
        },
        {
          "internalType": "uint256",
          "name": "price2",
          "type": "uint256"
        },
        {
          "internalType": "uint256",
          "name": "price3",
          "type": "uint256"
        }
      ],
      "stateMutability": "nonpayable",
      "type": "constructor"
    },
    {
      "inputs": [
        {
          "internalType": "uint256",
          "name": "",
          "type": "uint256"
        }
      ],
      "name": "allBuyers",
      "outputs": [
        {
          "internalType": "address",
          "name": "",
          "type": "address"
        }
      ],
      "stateMutability": "view",
      "type": "function"
    },
    {
      "inputs": [
        {
          "internalType": "uint256",
          "name": "_id",
          "type": "uint256"
        }
      ],
      "name": "buyPass",
      "outputs": [],
      "stateMutability": "payable",
      "type": "function"
    },
    {
      "inputs": [
        {
          "internalType": "address",
          "name": "",
          "type": "address"
        }
      ],
      "name": "buyerPass",
      "outputs": [
        {
          "internalType": "uint256",
          "name": "",
          "type": "uint256"
        }
      ],
      "stateMutability": "view",
      "type": "function"
    },
    {
      "inputs": [
        {
          "internalType": "address",
          "name": "_buyer",
          "type": "address"
        }
      ],
      "name": "destroyPass",
      "outputs": [],
      "stateMutability": "nonpayable",
      "type": "function"
    },
    {
      "inputs": [
        {
          "internalType": "address",
          "name": "",
          "type": "address"
        }
      ],
      "name": "duration",
      "outputs": [
        {
          "internalType": "uint256",
          "name": "",
          "type": "uint256"
        }
      ],
      "stateMutability": "view",
      "type": "function"
    },
    {
      "inputs": [],
      "name": "owner",
      "outputs": [
        {
          "internalType": "address payable",
          "name": "",
          "type": "address"
        }
      ],
      "stateMutability": "view",
      "type": "function"
    },
    {
      "inputs": [
        {
          "internalType": "uint256",
          "name": "",
          "type": "uint256"
        }
      ],
      "name": "passes",
      "outputs": [
        {
          "internalType": "uint256",
          "name": "",
          "type": "uint256"
        }
      ],
      "stateMutability": "view",
      "type": "function"
    },
    {
      "inputs": [
        {
          "internalType": "uint256",
          "name": "_id",
          "type": "uint256"
        }
      ],
      "name": "showPassPrice",
      "outputs": [
        {
          "internalType": "uint256",
          "name": "",
          "type": "uint256"
        }
      ],
      "stateMutability": "view",
      "type": "function"
    }
  ],
  "bytecode": "0x60806040523480156200001157600080fd5b50604051620011a3380380620011a3833981810160405281019062000037919062000109565b33600160006101000a81548173ffffffffffffffffffffffffffffffffffffffff021916908373ffffffffffffffffffffffffffffffffffffffff16021790555082600080600181526020019081526020016000208190555081600080600281526020019081526020016000208190555080600080600381526020019081526020016000208190555050505062000165565b600080fd5b6000819050919050565b620000e381620000ce565b8114620000ef57600080fd5b50565b6000815190506200010381620000d8565b92915050565b600080600060608486031215620001255762000124620000c9565b5b60006200013586828701620000f2565b93505060206200014886828701620000f2565b92505060406200015b86828701620000f2565b9150509250925092565b61102e80620001756000396000f3fe60806040526004361061007b5760003560e01c80636e321ce41161004e5780636e321ce41461013f5780638da5cb5b1461017c57806393963410146101a7578063b36760a3146101e45761007b565b8063305ebca714610080578063333a75ea146100bd5780633420f9b3146100fa5780633501f33414610116575b600080fd5b34801561008c57600080fd5b506100a760048036038101906100a29190610ae8565b610221565b6040516100b49190610b2e565b60405180910390f35b3480156100c957600080fd5b506100e460048036038101906100df9190610b75565b610239565b6040516100f19190610b2e565b60405180910390f35b610114600480360381019061010f9190610b75565b610255565b005b34801561012257600080fd5b5061013d60048036038101906101389190610ae8565b610541565b005b34801561014b57600080fd5b5061016660048036038101906101619190610b75565b6109f0565b6040516101739190610b2e565b60405180910390f35b34801561018857600080fd5b50610191610a08565b60405161019e9190610bc3565b60405180910390f35b3480156101b357600080fd5b506101ce60048036038101906101c99190610b75565b610a2e565b6040516101db9190610bed565b60405180910390f35b3480156101f057600080fd5b5061020b60048036038101906102069190610ae8565b610a6d565b6040516102189190610b2e565b60405180910390f35b60056020528060005260406000206000915090505481565b6000806000838152602001908152602001600020549050919050565b600081118015610266575060038111155b6102a5576040517f08c379a000000000000000000000000000000000000000000000000000000000815260040161029c90610c65565b60405180910390fd5b6000600560003373ffffffffffffffffffffffffffffffffffffffff1673ffffffffffffffffffffffffffffffffffffffff1681526020019081526020016000205414610327576040517f08c379a000000000000000000000000000000000000000000000000000000000815260040161031e90610cd1565b60405180910390fd5b670de0b6b3a76400006000808381526020019081526020016000205461034d9190610d20565b341461038e576040517f08c379a000000000000000000000000000000000000000000000000000000000815260040161038590610dc6565b60405180910390fd5b600160009054906101000a900473ffffffffffffffffffffffffffffffffffffffff1673ffffffffffffffffffffffffffffffffffffffff166108fc349081150290604051600060405180830381858888f193505050501580156103f6573d6000803e3d6000fd5b5080600560003373ffffffffffffffffffffffffffffffffffffffff1673ffffffffffffffffffffffffffffffffffffffff1681526020019081526020016000208190555042600660003373ffffffffffffffffffffffffffffffffffffffff1673ffffffffffffffffffffffffffffffffffffffff16815260200190815260200160002081905550600254600460003373ffffffffffffffffffffffffffffffffffffffff1673ffffffffffffffffffffffffffffffffffffffff168152602001908152602001600020819055506002600081546104d490610de6565b919050819055506003339080600181540180825580915050600190039060005260206000200160009091909190916101000a81548173ffffffffffffffffffffffffffffffffffffffff021916908373ffffffffffffffffffffffffffffffffffffffff16021790555050565b600160009054906101000a900473ffffffffffffffffffffffffffffffffffffffff1673ffffffffffffffffffffffffffffffffffffffff163373ffffffffffffffffffffffffffffffffffffffff16146105d1576040517f08c379a00000000000000000000000000000000000000000000000000000000081526004016105c890610e7b565b60405180910390fd5b6000600560008373ffffffffffffffffffffffffffffffffffffffff1673ffffffffffffffffffffffffffffffffffffffff168152602001908152602001600020541415610654576040517f08c379a000000000000000000000000000000000000000000000000000000000815260040161064b90610ee7565b60405180910390fd5b6001600560008373ffffffffffffffffffffffffffffffffffffffff1673ffffffffffffffffffffffffffffffffffffffff1681526020019081526020016000205414156107f957426000600660008473ffffffffffffffffffffffffffffffffffffffff1673ffffffffffffffffffffffffffffffffffffffff168152602001908152602001600020546106e99190610f07565b10610729576040517f08c379a000000000000000000000000000000000000000000000000000000000815260040161072090610fa9565b60405180910390fd5b6000600560008373ffffffffffffffffffffffffffffffffffffffff1673ffffffffffffffffffffffffffffffffffffffff168152602001908152602001600020819055506000600460008373ffffffffffffffffffffffffffffffffffffffff1673ffffffffffffffffffffffffffffffffffffffff168152602001908152602001600020549050600381815481106107c6576107c5610fc9565b5b9060005260206000200160006101000a81549073ffffffffffffffffffffffffffffffffffffffff0219169055506109ed565b6002600560008373ffffffffffffffffffffffffffffffffffffffff1673ffffffffffffffffffffffffffffffffffffffff16815260200190815260200160002054141561099e57426011600660008473ffffffffffffffffffffffffffffffffffffffff1673ffffffffffffffffffffffffffffffffffffffff1681526020019081526020016000205461088e9190610f07565b106108ce576040517f08c379a00000000000000000000000000000000000000000000000000000000081526004016108c590610fa9565b60405180910390fd5b6000600560008373ffffffffffffffffffffffffffffffffffffffff1673ffffffffffffffffffffffffffffffffffffffff168152602001908152602001600020819055506000600460008373ffffffffffffffffffffffffffffffffffffffff1673ffffffffffffffffffffffffffffffffffffffff1681526020019081526020016000205490506003818154811061096b5761096a610fc9565b5b9060005260206000200160006101000a81549073ffffffffffffffffffffffffffffffffffffffff0219169055506109ec565b6003600560008373ffffffffffffffffffffffffffffffffffffffff1673ffffffffffffffffffffffffffffffffffffffff1681526020019081526020016000205414156109eb57600080fd5b5b5b50565b60006020528060005260406000206000915090505481565b600160009054906101000a900473ffffffffffffffffffffffffffffffffffffffff1681565b60038181548110610a3e57600080fd5b906000526020600020016000915054906101000a900473ffffffffffffffffffffffffffffffffffffffff1681565b60066020528060005260406000206000915090505481565b600080fd5b600073ffffffffffffffffffffffffffffffffffffffff82169050919050565b6000610ab582610a8a565b9050919050565b610ac581610aaa565b8114610ad057600080fd5b50565b600081359050610ae281610abc565b92915050565b600060208284031215610afe57610afd610a85565b5b6000610b0c84828501610ad3565b91505092915050565b6000819050919050565b610b2881610b15565b82525050565b6000602082019050610b436000830184610b1f565b92915050565b610b5281610b15565b8114610b5d57600080fd5b50565b600081359050610b6f81610b49565b92915050565b600060208284031215610b8b57610b8a610a85565b5b6000610b9984828501610b60565b91505092915050565b6000610bad82610a8a565b9050919050565b610bbd81610ba2565b82525050565b6000602082019050610bd86000830184610bb4565b92915050565b610be781610aaa565b82525050565b6000602082019050610c026000830184610bde565b92915050565b600082825260208201905092915050565b7f77726f6e67206964000000000000000000000000000000000000000000000000600082015250565b6000610c4f600883610c08565b9150610c5a82610c19565b602082019050919050565b60006020820190508181036000830152610c7e81610c42565b9050919050565b7f596f7520616c6561647920686176652070617373000000000000000000000000600082015250565b6000610cbb601483610c08565b9150610cc682610c85565b602082019050919050565b60006020820190508181036000830152610cea81610cae565b9050919050565b7f4e487b7100000000000000000000000000000000000000000000000000000000600052601160045260246000fd5b6000610d2b82610b15565b9150610d3683610b15565b9250817fffffffffffffffffffffffffffffffffffffffffffffffffffffffffffffffff0483118215151615610d6f57610d6e610cf1565b5b828202905092915050565b7f506c656173652073657420746865207072696365000000000000000000000000600082015250565b6000610db0601483610c08565b9150610dbb82610d7a565b602082019050919050565b60006020820190508181036000830152610ddf81610da3565b9050919050565b6000610df182610b15565b91507fffffffffffffffffffffffffffffffffffffffffffffffffffffffffffffffff821415610e2457610e23610cf1565b5b600182019050919050565b7f6f6e6c79206f776e65722063616e2063616c6c00000000000000000000000000600082015250565b6000610e65601383610c08565b9150610e7082610e2f565b602082019050919050565b60006020820190508181036000830152610e9481610e58565b9050919050565b7f6e6f742061206275796572000000000000000000000000000000000000000000600082015250565b6000610ed1600b83610c08565b9150610edc82610e9b565b602082019050919050565b60006020820190508181036000830152610f0081610ec4565b9050919050565b6000610f1282610b15565b9150610f1d83610b15565b9250827fffffffffffffffffffffffffffffffffffffffffffffffffffffffffffffffff03821115610f5257610f51610cf1565b5b828201905092915050565b7f6e6f742079657400000000000000000000000000000000000000000000000000600082015250565b6000610f93600783610c08565b9150610f9e82610f5d565b602082019050919050565b60006020820190508181036000830152610fc281610f86565b9050919050565b7f4e487b7100000000000000000000000000000000000000000000000000000000600052603260045260246000fdfea26469706673582212204201cf5f7611b8332b6078004ae3556071851a3ae6e843a4b4b638f7d4add01e64736f6c63430008090033",
  "linkReferences": {},
  "deployedLinkReferences": {}
}