{
  "_format": "hh-sol-artifact-1",
  "contractName": "AwesomeGameMarket",
  "sourceName": "contracts/AwesomeGameMarket.sol",
  "abi": [
    {
      "inputs": [],
      "stateMutability": "nonpayable",
      "type": "constructor"
    },
    {
      "inputs": [
        {
          "internalType": "uint256",
          "name": "_tokenId",
          "type": "uint256"
        },
        {
          "internalType": "contract ERC1155",
          "name": "_nft",
          "type": "address"
        },
        {
          "internalType": "uint256",
          "name": "_amount",
          "type": "uint256"
        }
      ],
      "name": "PurchaseItem",
      "outputs": [],
      "stateMutability": "payable",
      "type": "function"
    },
    {
      "inputs": [],
      "name": "itemCount",
      "outputs": [
        {
          "internalType": "uint256",
          "name": "",
          "type": "uint256"
        }
      ],
      "stateMutability": "view",
      "type": "function"
    },
    {
      "inputs": [
        {
          "internalType": "uint256",
          "name": "",
          "type": "uint256"
        }
      ],
      "name": "items",
      "outputs": [
        {
          "internalType": "uint256",
          "name": "owners",
          "type": "uint256"
        },
        {
          "internalType": "uint256",
          "name": "price",
          "type": "uint256"
        },
        {
          "internalType": "contract ERC1155",
          "name": "nft",
          "type": "address"
        }
      ],
      "stateMutability": "view",
      "type": "function"
    },
    {
      "inputs": [
        {
          "internalType": "uint256",
          "name": "_price",
          "type": "uint256"
        },
        {
          "internalType": "contract ERC1155",
          "name": "_nft",
          "type": "address"
        }
      ],
      "name": "makeItem",
      "outputs": [],
      "stateMutability": "nonpayable",
      "type": "function"
    },
    {
      "inputs": [
        {
          "internalType": "address",
          "name": "",
          "type": "address"
        },
        {
          "internalType": "address",
          "name": "",
          "type": "address"
        },
        {
          "internalType": "uint256[]",
          "name": "",
          "type": "uint256[]"
        },
        {
          "internalType": "uint256[]",
          "name": "",
          "type": "uint256[]"
        },
        {
          "internalType": "bytes",
          "name": "",
          "type": "bytes"
        }
      ],
      "name": "onERC1155BatchReceived",
      "outputs": [
        {
          "internalType": "bytes4",
          "name": "",
          "type": "bytes4"
        }
      ],
      "stateMutability": "nonpayable",
      "type": "function"
    },
    {
      "inputs": [
        {
          "internalType": "address",
          "name": "",
          "type": "address"
        },
        {
          "internalType": "address",
          "name": "",
          "type": "address"
        },
        {
          "internalType": "uint256",
          "name": "",
          "type": "uint256"
        },
        {
          "internalType": "uint256",
          "name": "",
          "type": "uint256"
        },
        {
          "internalType": "bytes",
          "name": "",
          "type": "bytes"
        }
      ],
      "name": "onERC1155Received",
      "outputs": [
        {
          "internalType": "bytes4",
          "name": "",
          "type": "bytes4"
        }
      ],
      "stateMutability": "nonpayable",
      "type": "function"
    },
    {
      "inputs": [],
      "name": "owner",
      "outputs": [
        {
          "internalType": "address payable",
          "name": "",
          "type": "address"
        }
      ],
      "stateMutability": "view",
      "type": "function"
    },
    {
      "inputs": [
        {
          "internalType": "bytes4",
          "name": "interfaceId",
          "type": "bytes4"
        }
      ],
      "name": "supportsInterface",
      "outputs": [
        {
          "internalType": "bool",
          "name": "",
          "type": "bool"
        }
      ],
      "stateMutability": "view",
      "type": "function"
    },
    {
      "inputs": [
        {
          "internalType": "uint256",
          "name": "_tokenId",
          "type": "uint256"
        },
        {
          "internalType": "uint256",
          "name": "_owner",
          "type": "uint256"
        }
      ],
      "name": "viewOwnerslist",
      "outputs": [
        {
          "internalType": "address",
          "name": "",
          "type": "address"
        }
      ],
      "stateMutability": "view",
      "type": "function"
    }
  ],
  "bytecode": "0x608060405234801561001057600080fd5b50600160008190555033600160006101000a81548173ffffffffffffffffffffffffffffffffffffffff021916908373ffffffffffffffffffffffffffffffffffffffff16021790555061149b806100696000396000f3fe6080604052600436106100865760003560e01c8063bc197c8111610059578063bc197c811461015b578063bfb231d214610198578063f23a6e61146101d7578063fca6288314610214578063ff5aedcc1461023d57610086565b806301ffc9a71461008b578063260c08bd146100c85780636bfb0d01146101055780638da5cb5b14610130575b600080fd5b34801561009757600080fd5b506100b260048036038101906100ad91906109d2565b610259565b6040516100bf9190610a1a565b60405180910390f35b3480156100d457600080fd5b506100ef60048036038101906100ea9190610a6b565b6102d3565b6040516100fc9190610aec565b60405180910390f35b34801561011157600080fd5b5061011a610322565b6040516101279190610b16565b60405180910390f35b34801561013c57600080fd5b50610145610328565b6040516101529190610b52565b60405180910390f35b34801561016757600080fd5b50610182600480360381019061017d9190610da7565b61034e565b60405161018f9190610e85565b60405180910390f35b3480156101a457600080fd5b506101bf60048036038101906101ba9190610ea0565b610363565b6040516101ce93929190610f2c565b60405180910390f35b3480156101e357600080fd5b506101fe60048036038101906101f99190610f63565b6103ad565b60405161020b9190610e85565b60405180910390f35b34801561022057600080fd5b5061023b60048036038101906102369190611038565b6103c2565b005b61025760048036038101906102529190611078565b610600565b005b60007f4e2312e0000000000000000000000000000000000000000000000000000000007bffffffffffffffffffffffffffffffffffffffffffffffffffffffff1916827bffffffffffffffffffffffffffffffffffffffffffffffffffffffff191614806102cc57506102cb826108a3565b5b9050919050565b600060036000848152602001908152602001600020600083815260200190815260200160002060009054906101000a900473ffffffffffffffffffffffffffffffffffffffff16905092915050565b60025481565b600160009054906101000a900473ffffffffffffffffffffffffffffffffffffffff1681565b600063bc197c8160e01b905095945050505050565b60046020528060005260406000206000915090508060000154908060010154908060020160009054906101000a900473ffffffffffffffffffffffffffffffffffffffff16905083565b600063f23a6e6160e01b905095945050505050565b600160009054906101000a900473ffffffffffffffffffffffffffffffffffffffff1673ffffffffffffffffffffffffffffffffffffffff163373ffffffffffffffffffffffffffffffffffffffff1614610452576040517f08c379a000000000000000000000000000000000000000000000000000000000815260040161044990611128565b60405180910390fd5b6040518060600160405280600081526020018381526020018273ffffffffffffffffffffffffffffffffffffffff16815250600460006002548152602001908152602001600020600082015181600001556020820151816001015560408201518160020160006101000a81548173ffffffffffffffffffffffffffffffffffffffff021916908373ffffffffffffffffffffffffffffffffffffffff1602179055509050508073ffffffffffffffffffffffffffffffffffffffff1663f242432a33306002548573ffffffffffffffffffffffffffffffffffffffff1662fdd58e336002546040518363ffffffff1660e01b8152600401610554929190611148565b602060405180830381865afa158015610571573d6000803e3d6000fd5b505050506040513d601f19601f820116820180604052508101906105959190611186565b6040518563ffffffff1660e01b81526004016105b49493929190611210565b600060405180830381600087803b1580156105ce57600080fd5b505af11580156105e2573d6000803e3d6000fd5b505050506002600081546105f590611297565b919050819055505050565b61060861090d565b808273ffffffffffffffffffffffffffffffffffffffff1662fdd58e30866040518363ffffffff1660e01b8152600401610643929190611148565b602060405180830381865afa158015610660573d6000803e3d6000fd5b505050506040513d601f19601f820116820180604052508101906106849190611186565b10156106c5576040517f08c379a00000000000000000000000000000000000000000000000000000000081526004016106bc9061132b565b60405180910390fd5b60006004600085815260200190815260200160002090508181600101546106ec919061134b565b341461072d576040517f08c379a0000000000000000000000000000000000000000000000000000000008152600401610724906113d9565b60405180910390fd5b600160009054906101000a900473ffffffffffffffffffffffffffffffffffffffff1673ffffffffffffffffffffffffffffffffffffffff166108fc838360010154610779919061134b565b9081150290604051600060405180830381858888f193505050501580156107a4573d6000803e3d6000fd5b508273ffffffffffffffffffffffffffffffffffffffff1663f242432a303387866040518563ffffffff1660e01b81526004016107e49493929190611210565b600060405180830381600087803b1580156107fe57600080fd5b505af1158015610812573d6000803e3d6000fd5b50505050806000016000815461082790611297565b91905081905550336003600086815260200190815260200160002060008360000154815260200190815260200160002060006101000a81548173ffffffffffffffffffffffffffffffffffffffff021916908373ffffffffffffffffffffffffffffffffffffffff1602179055505061089e61095c565b505050565b60007f01ffc9a7000000000000000000000000000000000000000000000000000000007bffffffffffffffffffffffffffffffffffffffffffffffffffffffff1916827bffffffffffffffffffffffffffffffffffffffffffffffffffffffff1916149050919050565b600260005403610952576040517f08c379a000000000000000000000000000000000000000000000000000000000815260040161094990611445565b60405180910390fd5b6002600081905550565b6001600081905550565b6000604051905090565b600080fd5b600080fd5b60007fffffffff0000000000000000000000000000000000000000000000000000000082169050919050565b6109af8161097a565b81146109ba57600080fd5b50565b6000813590506109cc816109a6565b92915050565b6000602082840312156109e8576109e7610970565b5b60006109f6848285016109bd565b91505092915050565b60008115159050919050565b610a14816109ff565b82525050565b6000602082019050610a2f6000830184610a0b565b92915050565b6000819050919050565b610a4881610a35565b8114610a5357600080fd5b50565b600081359050610a6581610a3f565b92915050565b60008060408385031215610a8257610a81610970565b5b6000610a9085828601610a56565b9250506020610aa185828601610a56565b9150509250929050565b600073ffffffffffffffffffffffffffffffffffffffff82169050919050565b6000610ad682610aab565b9050919050565b610ae681610acb565b82525050565b6000602082019050610b016000830184610add565b92915050565b610b1081610a35565b82525050565b6000602082019050610b2b6000830184610b07565b92915050565b6000610b3c82610aab565b9050919050565b610b4c81610b31565b82525050565b6000602082019050610b676000830184610b43565b92915050565b610b7681610acb565b8114610b8157600080fd5b50565b600081359050610b9381610b6d565b92915050565b600080fd5b6000601f19601f8301169050919050565b7f4e487b7100000000000000000000000000000000000000000000000000000000600052604160045260246000fd5b610be782610b9e565b810181811067ffffffffffffffff82111715610c0657610c05610baf565b5b80604052505050565b6000610c19610966565b9050610c258282610bde565b919050565b600067ffffffffffffffff821115610c4557610c44610baf565b5b602082029050602081019050919050565b600080fd5b6000610c6e610c6984610c2a565b610c0f565b90508083825260208201905060208402830185811115610c9157610c90610c56565b5b835b81811015610cba5780610ca68882610a56565b845260208401935050602081019050610c93565b5050509392505050565b600082601f830112610cd957610cd8610b99565b5b8135610ce9848260208601610c5b565b91505092915050565b600080fd5b600067ffffffffffffffff821115610d1257610d11610baf565b5b610d1b82610b9e565b9050602081019050919050565b82818337600083830152505050565b6000610d4a610d4584610cf7565b610c0f565b905082815260208101848484011115610d6657610d65610cf2565b5b610d71848285610d28565b509392505050565b600082601f830112610d8e57610d8d610b99565b5b8135610d9e848260208601610d37565b91505092915050565b600080600080600060a08688031215610dc357610dc2610970565b5b6000610dd188828901610b84565b9550506020610de288828901610b84565b945050604086013567ffffffffffffffff811115610e0357610e02610975565b5b610e0f88828901610cc4565b935050606086013567ffffffffffffffff811115610e3057610e2f610975565b5b610e3c88828901610cc4565b925050608086013567ffffffffffffffff811115610e5d57610e5c610975565b5b610e6988828901610d79565b9150509295509295909350565b610e7f8161097a565b82525050565b6000602082019050610e9a6000830184610e76565b92915050565b600060208284031215610eb657610eb5610970565b5b6000610ec484828501610a56565b91505092915050565b6000819050919050565b6000610ef2610eed610ee884610aab565b610ecd565b610aab565b9050919050565b6000610f0482610ed7565b9050919050565b6000610f1682610ef9565b9050919050565b610f2681610f0b565b82525050565b6000606082019050610f416000830186610b07565b610f4e6020830185610b07565b610f5b6040830184610f1d565b949350505050565b600080600080600060a08688031215610f7f57610f7e610970565b5b6000610f8d88828901610b84565b9550506020610f9e88828901610b84565b9450506040610faf88828901610a56565b9350506060610fc088828901610a56565b925050608086013567ffffffffffffffff811115610fe157610fe0610975565b5b610fed88828901610d79565b9150509295509295909350565b600061100582610acb565b9050919050565b61101581610ffa565b811461102057600080fd5b50565b6000813590506110328161100c565b92915050565b6000806040838503121561104f5761104e610970565b5b600061105d85828601610a56565b925050602061106e85828601611023565b9150509250929050565b60008060006060848603121561109157611090610970565b5b600061109f86828701610a56565b93505060206110b086828701611023565b92505060406110c186828701610a56565b9150509250925092565b600082825260208201905092915050565b7f6f6e6c79206f776e65722063616e2063616c6c00000000000000000000000000600082015250565b60006111126013836110cb565b915061111d826110dc565b602082019050919050565b6000602082019050818103600083015261114181611105565b9050919050565b600060408201905061115d6000830185610add565b61116a6020830184610b07565b9392505050565b60008151905061118081610a3f565b92915050565b60006020828403121561119c5761119b610970565b5b60006111aa84828501611171565b91505092915050565b600082825260208201905092915050565b7f3078000000000000000000000000000000000000000000000000000000000000600082015250565b60006111fa6002836111b3565b9150611205826111c4565b602082019050919050565b600060a0820190506112256000830187610add565b6112326020830186610add565b61123f6040830185610b07565b61124c6060830184610b07565b818103608083015261125d816111ed565b905095945050505050565b7f4e487b7100000000000000000000000000000000000000000000000000000000600052601160045260246000fd5b60006112a282610a35565b91507fffffffffffffffffffffffffffffffffffffffffffffffffffffffffffffffff82036112d4576112d3611268565b5b600182019050919050565b7f4e6f74206d75636820746f6b656e73206c656674000000000000000000000000600082015250565b60006113156014836110cb565b9150611320826112df565b602082019050919050565b6000602082019050818103600083015261134481611308565b9050919050565b600061135682610a35565b915061136183610a35565b925082820261136f81610a35565b9150828204841483151761138657611385611268565b5b5092915050565b7f696e73756666696369656e7420616d6f756e7400000000000000000000000000600082015250565b60006113c36013836110cb565b91506113ce8261138d565b602082019050919050565b600060208201905081810360008301526113f2816113b6565b9050919050565b7f5265656e7472616e637947756172643a207265656e7472616e742063616c6c00600082015250565b600061142f601f836110cb565b915061143a826113f9565b602082019050919050565b6000602082019050818103600083015261145e81611422565b905091905056fea26469706673582212202bb84368639ea00de3b81a2f1cf2329f6934b94de230aed31417d5907daf326564736f6c63430008110033",
  "linkReferences": {},
  "deployedLinkReferences": {}
}