{
  "_format": "hh-sol-artifact-1",
  "contractName": "AwesomeGameMarket",
  "sourceName": "contracts/AwesomeGameMarket.sol",
  "abi": [
    {
      "inputs": [],
      "stateMutability": "nonpayable",
      "type": "constructor"
    },
    {
      "inputs": [
        {
          "internalType": "uint256",
          "name": "_tokenId",
          "type": "uint256"
        },
        {
          "internalType": "contract ERC1155",
          "name": "_nft",
          "type": "address"
        }
      ],
      "name": "PurchaseItem",
      "outputs": [],
      "stateMutability": "payable",
      "type": "function"
    },
    {
      "inputs": [],
      "name": "itemCount",
      "outputs": [
        {
          "internalType": "uint256",
          "name": "",
          "type": "uint256"
        }
      ],
      "stateMutability": "view",
      "type": "function"
    },
    {
      "inputs": [
        {
          "internalType": "uint256",
          "name": "",
          "type": "uint256"
        }
      ],
      "name": "items",
      "outputs": [
        {
          "internalType": "uint256",
          "name": "owners",
          "type": "uint256"
        },
        {
          "internalType": "uint256",
          "name": "price",
          "type": "uint256"
        },
        {
          "internalType": "contract ERC1155",
          "name": "nft",
          "type": "address"
        }
      ],
      "stateMutability": "view",
      "type": "function"
    },
    {
      "inputs": [
        {
          "internalType": "uint256",
          "name": "_price",
          "type": "uint256"
        },
        {
          "internalType": "contract ERC1155",
          "name": "_nft",
          "type": "address"
        }
      ],
      "name": "makeItem",
      "outputs": [],
      "stateMutability": "nonpayable",
      "type": "function"
    },
    {
      "inputs": [
        {
          "internalType": "address",
          "name": "",
          "type": "address"
        },
        {
          "internalType": "address",
          "name": "",
          "type": "address"
        },
        {
          "internalType": "uint256[]",
          "name": "",
          "type": "uint256[]"
        },
        {
          "internalType": "uint256[]",
          "name": "",
          "type": "uint256[]"
        },
        {
          "internalType": "bytes",
          "name": "",
          "type": "bytes"
        }
      ],
      "name": "onERC1155BatchReceived",
      "outputs": [
        {
          "internalType": "bytes4",
          "name": "",
          "type": "bytes4"
        }
      ],
      "stateMutability": "nonpayable",
      "type": "function"
    },
    {
      "inputs": [
        {
          "internalType": "address",
          "name": "",
          "type": "address"
        },
        {
          "internalType": "address",
          "name": "",
          "type": "address"
        },
        {
          "internalType": "uint256",
          "name": "",
          "type": "uint256"
        },
        {
          "internalType": "uint256",
          "name": "",
          "type": "uint256"
        },
        {
          "internalType": "bytes",
          "name": "",
          "type": "bytes"
        }
      ],
      "name": "onERC1155Received",
      "outputs": [
        {
          "internalType": "bytes4",
          "name": "",
          "type": "bytes4"
        }
      ],
      "stateMutability": "nonpayable",
      "type": "function"
    },
    {
      "inputs": [],
      "name": "owner",
      "outputs": [
        {
          "internalType": "address payable",
          "name": "",
          "type": "address"
        }
      ],
      "stateMutability": "view",
      "type": "function"
    },
    {
      "inputs": [
        {
          "internalType": "bytes4",
          "name": "interfaceId",
          "type": "bytes4"
        }
      ],
      "name": "supportsInterface",
      "outputs": [
        {
          "internalType": "bool",
          "name": "",
          "type": "bool"
        }
      ],
      "stateMutability": "view",
      "type": "function"
    },
    {
      "inputs": [
        {
          "internalType": "uint256",
          "name": "_tokenId",
          "type": "uint256"
        },
        {
          "internalType": "uint256",
          "name": "_owner",
          "type": "uint256"
        }
      ],
      "name": "viewOwnerslist",
      "outputs": [
        {
          "internalType": "address",
          "name": "",
          "type": "address"
        }
      ],
      "stateMutability": "view",
      "type": "function"
    }
  ],
  "bytecode": "0x608060405234801561001057600080fd5b50600160008190555033600160006101000a81548173ffffffffffffffffffffffffffffffffffffffff021916908373ffffffffffffffffffffffffffffffffffffffff16021790555061135c806100696000396000f3fe6080604052600436106100865760003560e01c80638da5cb5b116100595780638da5cb5b1461014c578063bc197c8114610177578063bfb231d2146101b4578063f23a6e61146101f3578063fca628831461023057610086565b806301ffc9a71461008b578063260c08bd146100c85780634961eaa8146101055780636bfb0d0114610121575b600080fd5b34801561009757600080fd5b506100b260048036038101906100ad9190610901565b610259565b6040516100bf9190610949565b60405180910390f35b3480156100d457600080fd5b506100ef60048036038101906100ea919061099a565b6102d3565b6040516100fc9190610a1b565b60405180910390f35b61011f600480360381019061011a9190610a74565b610322565b005b34801561012d57600080fd5b506101366104f4565b6040516101439190610ac3565b60405180910390f35b34801561015857600080fd5b506101616104fa565b60405161016e9190610aff565b60405180910390f35b34801561018357600080fd5b5061019e60048036038101906101999190610d54565b610520565b6040516101ab9190610e32565b60405180910390f35b3480156101c057600080fd5b506101db60048036038101906101d69190610e4d565b610535565b6040516101ea93929190610ed9565b60405180910390f35b3480156101ff57600080fd5b5061021a60048036038101906102159190610f10565b61057f565b6040516102279190610e32565b60405180910390f35b34801561023c57600080fd5b5061025760048036038101906102529190610a74565b610594565b005b60007f4e2312e0000000000000000000000000000000000000000000000000000000007bffffffffffffffffffffffffffffffffffffffffffffffffffffffff1916827bffffffffffffffffffffffffffffffffffffffffffffffffffffffff191614806102cc57506102cb826107d2565b5b9050919050565b600060036000848152602001908152602001600020600083815260200190815260200160002060009054906101000a900473ffffffffffffffffffffffffffffffffffffffff16905092915050565b61032a61083c565b600060046000848152602001908152602001600020905080600101543414610387576040517f08c379a000000000000000000000000000000000000000000000000000000000815260040161037e90611004565b60405180910390fd5b600160009054906101000a900473ffffffffffffffffffffffffffffffffffffffff1673ffffffffffffffffffffffffffffffffffffffff166108fc82600101549081150290604051600060405180830381858888f193505050501580156103f3573d6000803e3d6000fd5b508173ffffffffffffffffffffffffffffffffffffffff1663f242432a30338660016040518563ffffffff1660e01b815260040161043494939291906110bc565b600060405180830381600087803b15801561044e57600080fd5b505af1158015610462573d6000803e3d6000fd5b50505050336003600085815260200190815260200160002060008360000154815260200190815260200160002060006101000a81548173ffffffffffffffffffffffffffffffffffffffff021916908373ffffffffffffffffffffffffffffffffffffffff1602179055508060000160008154809291906104e290611143565b9190505550506104f061088b565b5050565b60025481565b600160009054906101000a900473ffffffffffffffffffffffffffffffffffffffff1681565b600063bc197c8160e01b905095945050505050565b60046020528060005260406000206000915090508060000154908060010154908060020160009054906101000a900473ffffffffffffffffffffffffffffffffffffffff16905083565b600063f23a6e6160e01b905095945050505050565b600160009054906101000a900473ffffffffffffffffffffffffffffffffffffffff1673ffffffffffffffffffffffffffffffffffffffff163373ffffffffffffffffffffffffffffffffffffffff1614610624576040517f08c379a000000000000000000000000000000000000000000000000000000000815260040161061b906111d7565b60405180910390fd5b6040518060600160405280600181526020018381526020018273ffffffffffffffffffffffffffffffffffffffff16815250600460006002548152602001908152602001600020600082015181600001556020820151816001015560408201518160020160006101000a81548173ffffffffffffffffffffffffffffffffffffffff021916908373ffffffffffffffffffffffffffffffffffffffff1602179055509050508073ffffffffffffffffffffffffffffffffffffffff1663f242432a33306002548573ffffffffffffffffffffffffffffffffffffffff1662fdd58e336002546040518363ffffffff1660e01b81526004016107269291906111f7565b602060405180830381865afa158015610743573d6000803e3d6000fd5b505050506040513d601f19601f820116820180604052508101906107679190611235565b6040518563ffffffff1660e01b81526004016107869493929190611262565b600060405180830381600087803b1580156107a057600080fd5b505af11580156107b4573d6000803e3d6000fd5b505050506002600081546107c790611143565b919050819055505050565b60007f01ffc9a7000000000000000000000000000000000000000000000000000000007bffffffffffffffffffffffffffffffffffffffffffffffffffffffff1916827bffffffffffffffffffffffffffffffffffffffffffffffffffffffff1916149050919050565b600260005403610881576040517f08c379a000000000000000000000000000000000000000000000000000000000815260040161087890611306565b60405180910390fd5b6002600081905550565b6001600081905550565b6000604051905090565b600080fd5b600080fd5b60007fffffffff0000000000000000000000000000000000000000000000000000000082169050919050565b6108de816108a9565b81146108e957600080fd5b50565b6000813590506108fb816108d5565b92915050565b6000602082840312156109175761091661089f565b5b6000610925848285016108ec565b91505092915050565b60008115159050919050565b6109438161092e565b82525050565b600060208201905061095e600083018461093a565b92915050565b6000819050919050565b61097781610964565b811461098257600080fd5b50565b6000813590506109948161096e565b92915050565b600080604083850312156109b1576109b061089f565b5b60006109bf85828601610985565b92505060206109d085828601610985565b9150509250929050565b600073ffffffffffffffffffffffffffffffffffffffff82169050919050565b6000610a05826109da565b9050919050565b610a15816109fa565b82525050565b6000602082019050610a306000830184610a0c565b92915050565b6000610a41826109fa565b9050919050565b610a5181610a36565b8114610a5c57600080fd5b50565b600081359050610a6e81610a48565b92915050565b60008060408385031215610a8b57610a8a61089f565b5b6000610a9985828601610985565b9250506020610aaa85828601610a5f565b9150509250929050565b610abd81610964565b82525050565b6000602082019050610ad86000830184610ab4565b92915050565b6000610ae9826109da565b9050919050565b610af981610ade565b82525050565b6000602082019050610b146000830184610af0565b92915050565b610b23816109fa565b8114610b2e57600080fd5b50565b600081359050610b4081610b1a565b92915050565b600080fd5b6000601f19601f8301169050919050565b7f4e487b7100000000000000000000000000000000000000000000000000000000600052604160045260246000fd5b610b9482610b4b565b810181811067ffffffffffffffff82111715610bb357610bb2610b5c565b5b80604052505050565b6000610bc6610895565b9050610bd28282610b8b565b919050565b600067ffffffffffffffff821115610bf257610bf1610b5c565b5b602082029050602081019050919050565b600080fd5b6000610c1b610c1684610bd7565b610bbc565b90508083825260208201905060208402830185811115610c3e57610c3d610c03565b5b835b81811015610c675780610c538882610985565b845260208401935050602081019050610c40565b5050509392505050565b600082601f830112610c8657610c85610b46565b5b8135610c96848260208601610c08565b91505092915050565b600080fd5b600067ffffffffffffffff821115610cbf57610cbe610b5c565b5b610cc882610b4b565b9050602081019050919050565b82818337600083830152505050565b6000610cf7610cf284610ca4565b610bbc565b905082815260208101848484011115610d1357610d12610c9f565b5b610d1e848285610cd5565b509392505050565b600082601f830112610d3b57610d3a610b46565b5b8135610d4b848260208601610ce4565b91505092915050565b600080600080600060a08688031215610d7057610d6f61089f565b5b6000610d7e88828901610b31565b9550506020610d8f88828901610b31565b945050604086013567ffffffffffffffff811115610db057610daf6108a4565b5b610dbc88828901610c71565b935050606086013567ffffffffffffffff811115610ddd57610ddc6108a4565b5b610de988828901610c71565b925050608086013567ffffffffffffffff811115610e0a57610e096108a4565b5b610e1688828901610d26565b9150509295509295909350565b610e2c816108a9565b82525050565b6000602082019050610e476000830184610e23565b92915050565b600060208284031215610e6357610e6261089f565b5b6000610e7184828501610985565b91505092915050565b6000819050919050565b6000610e9f610e9a610e95846109da565b610e7a565b6109da565b9050919050565b6000610eb182610e84565b9050919050565b6000610ec382610ea6565b9050919050565b610ed381610eb8565b82525050565b6000606082019050610eee6000830186610ab4565b610efb6020830185610ab4565b610f086040830184610eca565b949350505050565b600080600080600060a08688031215610f2c57610f2b61089f565b5b6000610f3a88828901610b31565b9550506020610f4b88828901610b31565b9450506040610f5c88828901610985565b9350506060610f6d88828901610985565b925050608086013567ffffffffffffffff811115610f8e57610f8d6108a4565b5b610f9a88828901610d26565b9150509295509295909350565b600082825260208201905092915050565b7f696e73756666696369656e7420616d6f756e7400000000000000000000000000600082015250565b6000610fee601383610fa7565b9150610ff982610fb8565b602082019050919050565b6000602082019050818103600083015261101d81610fe1565b9050919050565b6000819050919050565b600061104961104461103f84611024565b610e7a565b610964565b9050919050565b6110598161102e565b82525050565b600082825260208201905092915050565b7f3078000000000000000000000000000000000000000000000000000000000000600082015250565b60006110a660028361105f565b91506110b182611070565b602082019050919050565b600060a0820190506110d16000830187610a0c565b6110de6020830186610a0c565b6110eb6040830185610ab4565b6110f86060830184611050565b818103608083015261110981611099565b905095945050505050565b7f4e487b7100000000000000000000000000000000000000000000000000000000600052601160045260246000fd5b600061114e82610964565b91507fffffffffffffffffffffffffffffffffffffffffffffffffffffffffffffffff82036111805761117f611114565b5b600182019050919050565b7f6f6e6c79206f776e65722063616e2063616c6c00000000000000000000000000600082015250565b60006111c1601383610fa7565b91506111cc8261118b565b602082019050919050565b600060208201905081810360008301526111f0816111b4565b9050919050565b600060408201905061120c6000830185610a0c565b6112196020830184610ab4565b9392505050565b60008151905061122f8161096e565b92915050565b60006020828403121561124b5761124a61089f565b5b600061125984828501611220565b91505092915050565b600060a0820190506112776000830187610a0c565b6112846020830186610a0c565b6112916040830185610ab4565b61129e6060830184610ab4565b81810360808301526112af81611099565b905095945050505050565b7f5265656e7472616e637947756172643a207265656e7472616e742063616c6c00600082015250565b60006112f0601f83610fa7565b91506112fb826112ba565b602082019050919050565b6000602082019050818103600083015261131f816112e3565b905091905056fea264697066735822122055fbe5c9baa2faf72484af488b9fba062eec9396fff0f04cb8a4c6498d352f8f64736f6c63430008110033",
  "linkReferences": {},
  "deployedLinkReferences": {}
}