{
  "_format": "hh-sol-artifact-1",
  "contractName": "AwesomeGameMarket",
  "sourceName": "contracts/AwesomeGameMarket.sol",
  "abi": [
    {
      "inputs": [],
      "stateMutability": "nonpayable",
      "type": "constructor"
    },
    {
      "inputs": [
        {
          "internalType": "uint256",
          "name": "_tokenId",
          "type": "uint256"
        },
        {
          "internalType": "contract ERC1155",
          "name": "_nft",
          "type": "address"
        },
        {
          "internalType": "uint256",
          "name": "_amount",
          "type": "uint256"
        }
      ],
      "name": "PurchaseItem",
      "outputs": [],
      "stateMutability": "payable",
      "type": "function"
    },
    {
      "inputs": [],
      "name": "itemCount",
      "outputs": [
        {
          "internalType": "uint256",
          "name": "",
          "type": "uint256"
        }
      ],
      "stateMutability": "view",
      "type": "function"
    },
    {
      "inputs": [
        {
          "internalType": "uint256",
          "name": "",
          "type": "uint256"
        }
      ],
      "name": "items",
      "outputs": [
        {
          "internalType": "uint256",
          "name": "owners",
          "type": "uint256"
        },
        {
          "internalType": "uint256",
          "name": "price",
          "type": "uint256"
        },
        {
          "internalType": "contract ERC1155",
          "name": "nft",
          "type": "address"
        }
      ],
      "stateMutability": "view",
      "type": "function"
    },
    {
      "inputs": [
        {
          "internalType": "uint256",
          "name": "_price",
          "type": "uint256"
        },
        {
          "internalType": "contract ERC1155",
          "name": "_nft",
          "type": "address"
        }
      ],
      "name": "makeItem",
      "outputs": [],
      "stateMutability": "nonpayable",
      "type": "function"
    },
    {
      "inputs": [
        {
          "internalType": "address",
          "name": "",
          "type": "address"
        },
        {
          "internalType": "address",
          "name": "",
          "type": "address"
        },
        {
          "internalType": "uint256[]",
          "name": "",
          "type": "uint256[]"
        },
        {
          "internalType": "uint256[]",
          "name": "",
          "type": "uint256[]"
        },
        {
          "internalType": "bytes",
          "name": "",
          "type": "bytes"
        }
      ],
      "name": "onERC1155BatchReceived",
      "outputs": [
        {
          "internalType": "bytes4",
          "name": "",
          "type": "bytes4"
        }
      ],
      "stateMutability": "nonpayable",
      "type": "function"
    },
    {
      "inputs": [
        {
          "internalType": "address",
          "name": "",
          "type": "address"
        },
        {
          "internalType": "address",
          "name": "",
          "type": "address"
        },
        {
          "internalType": "uint256",
          "name": "",
          "type": "uint256"
        },
        {
          "internalType": "uint256",
          "name": "",
          "type": "uint256"
        },
        {
          "internalType": "bytes",
          "name": "",
          "type": "bytes"
        }
      ],
      "name": "onERC1155Received",
      "outputs": [
        {
          "internalType": "bytes4",
          "name": "",
          "type": "bytes4"
        }
      ],
      "stateMutability": "nonpayable",
      "type": "function"
    },
    {
      "inputs": [],
      "name": "owner",
      "outputs": [
        {
          "internalType": "address payable",
          "name": "",
          "type": "address"
        }
      ],
      "stateMutability": "view",
      "type": "function"
    },
    {
      "inputs": [
        {
          "internalType": "bytes4",
          "name": "interfaceId",
          "type": "bytes4"
        }
      ],
      "name": "supportsInterface",
      "outputs": [
        {
          "internalType": "bool",
          "name": "",
          "type": "bool"
        }
      ],
      "stateMutability": "view",
      "type": "function"
    },
    {
      "inputs": [
        {
          "internalType": "uint256",
          "name": "_tokenId",
          "type": "uint256"
        },
        {
          "internalType": "uint256",
          "name": "_owner",
          "type": "uint256"
        }
      ],
      "name": "viewOwnerslist",
      "outputs": [
        {
          "components": [
            {
              "internalType": "address",
              "name": "holder",
              "type": "address"
            },
            {
              "internalType": "uint256",
              "name": "amountHold",
              "type": "uint256"
            }
          ],
          "internalType": "struct AwesomeGameMarket.Ownership",
          "name": "",
          "type": "tuple"
        }
      ],
      "stateMutability": "view",
      "type": "function"
    }
  ],
  "bytecode": "0x608060405234801561001057600080fd5b50600160008190555033600160006101000a81548173ffffffffffffffffffffffffffffffffffffffff021916908373ffffffffffffffffffffffffffffffffffffffff160217905550611513806100696000396000f3fe6080604052600436106100865760003560e01c8063bc197c8111610059578063bc197c811461015b578063bfb231d214610198578063f23a6e61146101d7578063fca6288314610214578063ff5aedcc1461023d57610086565b806301ffc9a71461008b578063260c08bd146100c85780636bfb0d01146101055780638da5cb5b14610130575b600080fd5b34801561009757600080fd5b506100b260048036038101906100ad91906109d6565b610259565b6040516100bf9190610a1e565b60405180910390f35b3480156100d457600080fd5b506100ef60048036038101906100ea9190610a6f565b6102d3565b6040516100fc9190610b2e565b60405180910390f35b34801561011157600080fd5b5061011a610372565b6040516101279190610b58565b60405180910390f35b34801561013c57600080fd5b50610145610378565b6040516101529190610b94565b60405180910390f35b34801561016757600080fd5b50610182600480360381019061017d9190610de9565b61039e565b60405161018f9190610ec7565b60405180910390f35b3480156101a457600080fd5b506101bf60048036038101906101ba9190610ee2565b6103b3565b6040516101ce93929190610f6e565b60405180910390f35b3480156101e357600080fd5b506101fe60048036038101906101f99190610fa5565b6103fd565b60405161020b9190610ec7565b60405180910390f35b34801561022057600080fd5b5061023b6004803603810190610236919061107a565b610412565b005b610257600480360381019061025291906110ba565b610650565b005b60007f4e2312e0000000000000000000000000000000000000000000000000000000007bffffffffffffffffffffffffffffffffffffffffffffffffffffffff1916827bffffffffffffffffffffffffffffffffffffffffffffffffffffffff191614806102cc57506102cb82610877565b5b9050919050565b6102db61093a565b6003600084815260200190815260200160002060008381526020019081526020016000206040518060400160405290816000820160009054906101000a900473ffffffffffffffffffffffffffffffffffffffff1673ffffffffffffffffffffffffffffffffffffffff1673ffffffffffffffffffffffffffffffffffffffff168152602001600182015481525050905092915050565b60025481565b600160009054906101000a900473ffffffffffffffffffffffffffffffffffffffff1681565b600063bc197c8160e01b905095945050505050565b60046020528060005260406000206000915090508060000154908060010154908060020160009054906101000a900473ffffffffffffffffffffffffffffffffffffffff16905083565b600063f23a6e6160e01b905095945050505050565b600160009054906101000a900473ffffffffffffffffffffffffffffffffffffffff1673ffffffffffffffffffffffffffffffffffffffff163373ffffffffffffffffffffffffffffffffffffffff16146104a2576040517f08c379a00000000000000000000000000000000000000000000000000000000081526004016104999061116a565b60405180910390fd5b6040518060600160405280600081526020018381526020018273ffffffffffffffffffffffffffffffffffffffff16815250600460006002548152602001908152602001600020600082015181600001556020820151816001015560408201518160020160006101000a81548173ffffffffffffffffffffffffffffffffffffffff021916908373ffffffffffffffffffffffffffffffffffffffff1602179055509050508073ffffffffffffffffffffffffffffffffffffffff1663f242432a33306002548573ffffffffffffffffffffffffffffffffffffffff1662fdd58e336002546040518363ffffffff1660e01b81526004016105a4929190611199565b602060405180830381865afa1580156105c1573d6000803e3d6000fd5b505050506040513d601f19601f820116820180604052508101906105e591906111d7565b6040518563ffffffff1660e01b81526004016106049493929190611261565b600060405180830381600087803b15801561061e57600080fd5b505af1158015610632573d6000803e3d6000fd5b50505050600260008154610645906112e8565b919050819055505050565b6106586108e1565b600060046000858152602001908152602001600020905081816001015461067f9190611330565b34146106c0576040517f08c379a00000000000000000000000000000000000000000000000000000000081526004016106b7906113be565b60405180910390fd5b600160009054906101000a900473ffffffffffffffffffffffffffffffffffffffff1673ffffffffffffffffffffffffffffffffffffffff166108fc83836001015461070c9190611330565b9081150290604051600060405180830381858888f19350505050158015610737573d6000803e3d6000fd5b508273ffffffffffffffffffffffffffffffffffffffff1663f242432a30338760016040518563ffffffff1660e01b81526004016107789493929190611419565b600060405180830381600087803b15801561079257600080fd5b505af11580156107a6573d6000803e3d6000fd5b5050505080600001600081546107bb906112e8565b9190508190555060405180604001604052803373ffffffffffffffffffffffffffffffffffffffff168152602001838152506003600086815260200190815260200160002060008360000154815260200190815260200160002060008201518160000160006101000a81548173ffffffffffffffffffffffffffffffffffffffff021916908373ffffffffffffffffffffffffffffffffffffffff1602179055506020820151816001015590505050610872610930565b505050565b60007f01ffc9a7000000000000000000000000000000000000000000000000000000007bffffffffffffffffffffffffffffffffffffffffffffffffffffffff1916827bffffffffffffffffffffffffffffffffffffffffffffffffffffffff1916149050919050565b600260005403610926576040517f08c379a000000000000000000000000000000000000000000000000000000000815260040161091d906114bd565b60405180910390fd5b6002600081905550565b6001600081905550565b6040518060400160405280600073ffffffffffffffffffffffffffffffffffffffff168152602001600081525090565b6000604051905090565b600080fd5b600080fd5b60007fffffffff0000000000000000000000000000000000000000000000000000000082169050919050565b6109b38161097e565b81146109be57600080fd5b50565b6000813590506109d0816109aa565b92915050565b6000602082840312156109ec576109eb610974565b5b60006109fa848285016109c1565b91505092915050565b60008115159050919050565b610a1881610a03565b82525050565b6000602082019050610a336000830184610a0f565b92915050565b6000819050919050565b610a4c81610a39565b8114610a5757600080fd5b50565b600081359050610a6981610a43565b92915050565b60008060408385031215610a8657610a85610974565b5b6000610a9485828601610a5a565b9250506020610aa585828601610a5a565b9150509250929050565b600073ffffffffffffffffffffffffffffffffffffffff82169050919050565b6000610ada82610aaf565b9050919050565b610aea81610acf565b82525050565b610af981610a39565b82525050565b604082016000820151610b156000850182610ae1565b506020820151610b286020850182610af0565b50505050565b6000604082019050610b436000830184610aff565b92915050565b610b5281610a39565b82525050565b6000602082019050610b6d6000830184610b49565b92915050565b6000610b7e82610aaf565b9050919050565b610b8e81610b73565b82525050565b6000602082019050610ba96000830184610b85565b92915050565b610bb881610acf565b8114610bc357600080fd5b50565b600081359050610bd581610baf565b92915050565b600080fd5b6000601f19601f8301169050919050565b7f4e487b7100000000000000000000000000000000000000000000000000000000600052604160045260246000fd5b610c2982610be0565b810181811067ffffffffffffffff82111715610c4857610c47610bf1565b5b80604052505050565b6000610c5b61096a565b9050610c678282610c20565b919050565b600067ffffffffffffffff821115610c8757610c86610bf1565b5b602082029050602081019050919050565b600080fd5b6000610cb0610cab84610c6c565b610c51565b90508083825260208201905060208402830185811115610cd357610cd2610c98565b5b835b81811015610cfc5780610ce88882610a5a565b845260208401935050602081019050610cd5565b5050509392505050565b600082601f830112610d1b57610d1a610bdb565b5b8135610d2b848260208601610c9d565b91505092915050565b600080fd5b600067ffffffffffffffff821115610d5457610d53610bf1565b5b610d5d82610be0565b9050602081019050919050565b82818337600083830152505050565b6000610d8c610d8784610d39565b610c51565b905082815260208101848484011115610da857610da7610d34565b5b610db3848285610d6a565b509392505050565b600082601f830112610dd057610dcf610bdb565b5b8135610de0848260208601610d79565b91505092915050565b600080600080600060a08688031215610e0557610e04610974565b5b6000610e1388828901610bc6565b9550506020610e2488828901610bc6565b945050604086013567ffffffffffffffff811115610e4557610e44610979565b5b610e5188828901610d06565b935050606086013567ffffffffffffffff811115610e7257610e71610979565b5b610e7e88828901610d06565b925050608086013567ffffffffffffffff811115610e9f57610e9e610979565b5b610eab88828901610dbb565b9150509295509295909350565b610ec18161097e565b82525050565b6000602082019050610edc6000830184610eb8565b92915050565b600060208284031215610ef857610ef7610974565b5b6000610f0684828501610a5a565b91505092915050565b6000819050919050565b6000610f34610f2f610f2a84610aaf565b610f0f565b610aaf565b9050919050565b6000610f4682610f19565b9050919050565b6000610f5882610f3b565b9050919050565b610f6881610f4d565b82525050565b6000606082019050610f836000830186610b49565b610f906020830185610b49565b610f9d6040830184610f5f565b949350505050565b600080600080600060a08688031215610fc157610fc0610974565b5b6000610fcf88828901610bc6565b9550506020610fe088828901610bc6565b9450506040610ff188828901610a5a565b935050606061100288828901610a5a565b925050608086013567ffffffffffffffff81111561102357611022610979565b5b61102f88828901610dbb565b9150509295509295909350565b600061104782610acf565b9050919050565b6110578161103c565b811461106257600080fd5b50565b6000813590506110748161104e565b92915050565b6000806040838503121561109157611090610974565b5b600061109f85828601610a5a565b92505060206110b085828601611065565b9150509250929050565b6000806000606084860312156110d3576110d2610974565b5b60006110e186828701610a5a565b93505060206110f286828701611065565b925050604061110386828701610a5a565b9150509250925092565b600082825260208201905092915050565b7f6f6e6c79206f776e65722063616e2063616c6c00000000000000000000000000600082015250565b600061115460138361110d565b915061115f8261111e565b602082019050919050565b6000602082019050818103600083015261118381611147565b9050919050565b61119381610acf565b82525050565b60006040820190506111ae600083018561118a565b6111bb6020830184610b49565b9392505050565b6000815190506111d181610a43565b92915050565b6000602082840312156111ed576111ec610974565b5b60006111fb848285016111c2565b91505092915050565b600082825260208201905092915050565b7f3078000000000000000000000000000000000000000000000000000000000000600082015250565b600061124b600283611204565b915061125682611215565b602082019050919050565b600060a082019050611276600083018761118a565b611283602083018661118a565b6112906040830185610b49565b61129d6060830184610b49565b81810360808301526112ae8161123e565b905095945050505050565b7f4e487b7100000000000000000000000000000000000000000000000000000000600052601160045260246000fd5b60006112f382610a39565b91507fffffffffffffffffffffffffffffffffffffffffffffffffffffffffffffffff8203611325576113246112b9565b5b600182019050919050565b600061133b82610a39565b915061134683610a39565b925082820261135481610a39565b9150828204841483151761136b5761136a6112b9565b5b5092915050565b7f696e73756666696369656e7420616d6f756e7400000000000000000000000000600082015250565b60006113a860138361110d565b91506113b382611372565b602082019050919050565b600060208201905081810360008301526113d78161139b565b9050919050565b6000819050919050565b60006114036113fe6113f9846113de565b610f0f565b610a39565b9050919050565b611413816113e8565b82525050565b600060a08201905061142e600083018761118a565b61143b602083018661118a565b6114486040830185610b49565b611455606083018461140a565b81810360808301526114668161123e565b905095945050505050565b7f5265656e7472616e637947756172643a207265656e7472616e742063616c6c00600082015250565b60006114a7601f8361110d565b91506114b282611471565b602082019050919050565b600060208201905081810360008301526114d68161149a565b905091905056fea264697066735822122011bc80729b63b699677527516f69a0cfafe682290276307f3635b248bc4a8bff64736f6c63430008110033",
  "linkReferences": {},
  "deployedLinkReferences": {}
}