{
  "_format": "hh-sol-artifact-1",
  "contractName": "AwesomeGameMarket",
  "sourceName": "contracts/AwesomeGameMarket.sol",
  "abi": [
    {
      "inputs": [],
      "stateMutability": "nonpayable",
      "type": "constructor"
    },
    {
      "inputs": [
        {
          "internalType": "uint256",
          "name": "_tokenId",
          "type": "uint256"
        },
        {
          "internalType": "contract ERC1155",
          "name": "_nft",
          "type": "address"
        }
      ],
      "name": "PurchaseItem",
      "outputs": [],
      "stateMutability": "payable",
      "type": "function"
    },
    {
      "inputs": [],
      "name": "itemCount",
      "outputs": [
        {
          "internalType": "uint256",
          "name": "",
          "type": "uint256"
        }
      ],
      "stateMutability": "view",
      "type": "function"
    },
    {
      "inputs": [
        {
          "internalType": "uint256",
          "name": "",
          "type": "uint256"
        }
      ],
      "name": "items",
      "outputs": [
        {
          "internalType": "uint256",
          "name": "owners",
          "type": "uint256"
        },
        {
          "internalType": "uint256",
          "name": "price",
          "type": "uint256"
        },
        {
          "internalType": "contract ERC1155",
          "name": "nft",
          "type": "address"
        },
        {
          "internalType": "string",
          "name": "uri",
          "type": "string"
        }
      ],
      "stateMutability": "view",
      "type": "function"
    },
    {
      "inputs": [
        {
          "internalType": "string",
          "name": "_uri",
          "type": "string"
        },
        {
          "internalType": "uint256",
          "name": "_price",
          "type": "uint256"
        },
        {
          "internalType": "contract ERC1155",
          "name": "_nft",
          "type": "address"
        }
      ],
      "name": "makeItem",
      "outputs": [],
      "stateMutability": "nonpayable",
      "type": "function"
    },
    {
      "inputs": [
        {
          "internalType": "address",
          "name": "",
          "type": "address"
        },
        {
          "internalType": "address",
          "name": "",
          "type": "address"
        },
        {
          "internalType": "uint256[]",
          "name": "",
          "type": "uint256[]"
        },
        {
          "internalType": "uint256[]",
          "name": "",
          "type": "uint256[]"
        },
        {
          "internalType": "bytes",
          "name": "",
          "type": "bytes"
        }
      ],
      "name": "onERC1155BatchReceived",
      "outputs": [
        {
          "internalType": "bytes4",
          "name": "",
          "type": "bytes4"
        }
      ],
      "stateMutability": "nonpayable",
      "type": "function"
    },
    {
      "inputs": [
        {
          "internalType": "address",
          "name": "",
          "type": "address"
        },
        {
          "internalType": "address",
          "name": "",
          "type": "address"
        },
        {
          "internalType": "uint256",
          "name": "",
          "type": "uint256"
        },
        {
          "internalType": "uint256",
          "name": "",
          "type": "uint256"
        },
        {
          "internalType": "bytes",
          "name": "",
          "type": "bytes"
        }
      ],
      "name": "onERC1155Received",
      "outputs": [
        {
          "internalType": "bytes4",
          "name": "",
          "type": "bytes4"
        }
      ],
      "stateMutability": "nonpayable",
      "type": "function"
    },
    {
      "inputs": [],
      "name": "owner",
      "outputs": [
        {
          "internalType": "address payable",
          "name": "",
          "type": "address"
        }
      ],
      "stateMutability": "view",
      "type": "function"
    },
    {
      "inputs": [
        {
          "internalType": "uint256",
          "name": "",
          "type": "uint256"
        }
      ],
      "name": "ownerCount",
      "outputs": [
        {
          "internalType": "uint256",
          "name": "",
          "type": "uint256"
        }
      ],
      "stateMutability": "view",
      "type": "function"
    },
    {
      "inputs": [
        {
          "internalType": "bytes4",
          "name": "interfaceId",
          "type": "bytes4"
        }
      ],
      "name": "supportsInterface",
      "outputs": [
        {
          "internalType": "bool",
          "name": "",
          "type": "bool"
        }
      ],
      "stateMutability": "view",
      "type": "function"
    }
  ],
  "bytecode": "0x608060405234801561001057600080fd5b50600160008190555033600160006101000a81548173ffffffffffffffffffffffffffffffffffffffff021916908373ffffffffffffffffffffffffffffffffffffffff1602179055506117aa806100696000396000f3fe6080604052600436106100865760003560e01c806389708f421161005957806389708f42146101385780638da5cb5b14610175578063bc197c81146101a0578063bfb231d2146101dd578063f23a6e611461021d57610086565b806301ffc9a71461008b5780634961eaa8146100c857806351136bf0146100e45780636bfb0d011461010d575b600080fd5b34801561009757600080fd5b506100b260048036038101906100ad91906108e1565b61025a565b6040516100bf9190610929565b60405180910390f35b6100e260048036038101906100dd91906109ea565b6102d4565b005b3480156100f057600080fd5b5061010b60048036038101906101069190610b70565b61043f565b005b34801561011957600080fd5b5061012261066c565b60405161012f9190610bee565b60405180910390f35b34801561014457600080fd5b5061015f600480360381019061015a9190610c09565b610672565b60405161016c9190610bee565b60405180910390f35b34801561018157600080fd5b5061018a61068a565b6040516101979190610c57565b60405180910390f35b3480156101ac57600080fd5b506101c760048036038101906101c29190610e07565b6106b0565b6040516101d49190610ee5565b60405180910390f35b3480156101e957600080fd5b5061020460048036038101906101ff9190610c09565b6106c5565b6040516102149493929190610fde565b60405180910390f35b34801561022957600080fd5b50610244600480360381019061023f919061102a565b61079d565b6040516102519190610ee5565b60405180910390f35b60007f4e2312e0000000000000000000000000000000000000000000000000000000007bffffffffffffffffffffffffffffffffffffffffffffffffffffffff1916827bffffffffffffffffffffffffffffffffffffffffffffffffffffffff191614806102cd57506102cc826107b2565b5b9050919050565b6102dc61081c565b600060046000848152602001908152602001600020905080600101543414610339576040517f08c379a00000000000000000000000000000000000000000000000000000000081526004016103309061110d565b60405180910390fd5b600160009054906101000a900473ffffffffffffffffffffffffffffffffffffffff1673ffffffffffffffffffffffffffffffffffffffff166108fc82600101549081150290604051600060405180830381858888f193505050501580156103a5573d6000803e3d6000fd5b508173ffffffffffffffffffffffffffffffffffffffff1663f242432a30338660016040518563ffffffff1660e01b81526004016103e694939291906111d4565b600060405180830381600087803b15801561040057600080fd5b505af1158015610414573d6000803e3d6000fd5b5050505080600001600081548092919061042d9061125b565b91905055505061043b61086b565b5050565b600160009054906101000a900473ffffffffffffffffffffffffffffffffffffffff1673ffffffffffffffffffffffffffffffffffffffff163373ffffffffffffffffffffffffffffffffffffffff16146104cf576040517f08c379a00000000000000000000000000000000000000000000000000000000081526004016104c6906112ef565b60405180910390fd5b60056002541115610515576040517f08c379a000000000000000000000000000000000000000000000000000000000815260040161050c90611381565b60405180910390fd5b8073ffffffffffffffffffffffffffffffffffffffff1663f242432a3330600254670de0b6b3a76400006040518563ffffffff1660e01b815260040161055e94939291906113dc565b600060405180830381600087803b15801561057857600080fd5b505af115801561058c573d6000803e3d6000fd5b505050506040518060800160405280600181526020018381526020018273ffffffffffffffffffffffffffffffffffffffff16815260200184815250600460006002548152602001908152602001600020600082015181600001556020820151816001015560408201518160020160006101000a81548173ffffffffffffffffffffffffffffffffffffffff021916908373ffffffffffffffffffffffffffffffffffffffff160217905550606082015181600301908161064d9190611636565b509050506002600081546106609061125b565b91905081905550505050565b60025481565b60036020528060005260406000206000915090505481565b600160009054906101000a900473ffffffffffffffffffffffffffffffffffffffff1681565b600063bc197c8160e01b905095945050505050565b60046020528060005260406000206000915090508060000154908060010154908060020160009054906101000a900473ffffffffffffffffffffffffffffffffffffffff169080600301805461071a90611463565b80601f016020809104026020016040519081016040528092919081815260200182805461074690611463565b80156107935780601f1061076857610100808354040283529160200191610793565b820191906000526020600020905b81548152906001019060200180831161077657829003601f168201915b5050505050905084565b600063f23a6e6160e01b905095945050505050565b60007f01ffc9a7000000000000000000000000000000000000000000000000000000007bffffffffffffffffffffffffffffffffffffffffffffffffffffffff1916827bffffffffffffffffffffffffffffffffffffffffffffffffffffffff1916149050919050565b600260005403610861576040517f08c379a000000000000000000000000000000000000000000000000000000000815260040161085890611754565b60405180910390fd5b6002600081905550565b6001600081905550565b6000604051905090565b600080fd5b600080fd5b60007fffffffff0000000000000000000000000000000000000000000000000000000082169050919050565b6108be81610889565b81146108c957600080fd5b50565b6000813590506108db816108b5565b92915050565b6000602082840312156108f7576108f661087f565b5b6000610905848285016108cc565b91505092915050565b60008115159050919050565b6109238161090e565b82525050565b600060208201905061093e600083018461091a565b92915050565b6000819050919050565b61095781610944565b811461096257600080fd5b50565b6000813590506109748161094e565b92915050565b600073ffffffffffffffffffffffffffffffffffffffff82169050919050565b60006109a58261097a565b9050919050565b60006109b78261099a565b9050919050565b6109c7816109ac565b81146109d257600080fd5b50565b6000813590506109e4816109be565b92915050565b60008060408385031215610a0157610a0061087f565b5b6000610a0f85828601610965565b9250506020610a20858286016109d5565b9150509250929050565b600080fd5b600080fd5b6000601f19601f8301169050919050565b7f4e487b7100000000000000000000000000000000000000000000000000000000600052604160045260246000fd5b610a7d82610a34565b810181811067ffffffffffffffff82111715610a9c57610a9b610a45565b5b80604052505050565b6000610aaf610875565b9050610abb8282610a74565b919050565b600067ffffffffffffffff821115610adb57610ada610a45565b5b610ae482610a34565b9050602081019050919050565b82818337600083830152505050565b6000610b13610b0e84610ac0565b610aa5565b905082815260208101848484011115610b2f57610b2e610a2f565b5b610b3a848285610af1565b509392505050565b600082601f830112610b5757610b56610a2a565b5b8135610b67848260208601610b00565b91505092915050565b600080600060608486031215610b8957610b8861087f565b5b600084013567ffffffffffffffff811115610ba757610ba6610884565b5b610bb386828701610b42565b9350506020610bc486828701610965565b9250506040610bd5868287016109d5565b9150509250925092565b610be881610944565b82525050565b6000602082019050610c036000830184610bdf565b92915050565b600060208284031215610c1f57610c1e61087f565b5b6000610c2d84828501610965565b91505092915050565b6000610c418261097a565b9050919050565b610c5181610c36565b82525050565b6000602082019050610c6c6000830184610c48565b92915050565b610c7b8161099a565b8114610c8657600080fd5b50565b600081359050610c9881610c72565b92915050565b600067ffffffffffffffff821115610cb957610cb8610a45565b5b602082029050602081019050919050565b600080fd5b6000610ce2610cdd84610c9e565b610aa5565b90508083825260208201905060208402830185811115610d0557610d04610cca565b5b835b81811015610d2e5780610d1a8882610965565b845260208401935050602081019050610d07565b5050509392505050565b600082601f830112610d4d57610d4c610a2a565b5b8135610d5d848260208601610ccf565b91505092915050565b600067ffffffffffffffff821115610d8157610d80610a45565b5b610d8a82610a34565b9050602081019050919050565b6000610daa610da584610d66565b610aa5565b905082815260208101848484011115610dc657610dc5610a2f565b5b610dd1848285610af1565b509392505050565b600082601f830112610dee57610ded610a2a565b5b8135610dfe848260208601610d97565b91505092915050565b600080600080600060a08688031215610e2357610e2261087f565b5b6000610e3188828901610c89565b9550506020610e4288828901610c89565b945050604086013567ffffffffffffffff811115610e6357610e62610884565b5b610e6f88828901610d38565b935050606086013567ffffffffffffffff811115610e9057610e8f610884565b5b610e9c88828901610d38565b925050608086013567ffffffffffffffff811115610ebd57610ebc610884565b5b610ec988828901610dd9565b9150509295509295909350565b610edf81610889565b82525050565b6000602082019050610efa6000830184610ed6565b92915050565b6000819050919050565b6000610f25610f20610f1b8461097a565b610f00565b61097a565b9050919050565b6000610f3782610f0a565b9050919050565b6000610f4982610f2c565b9050919050565b610f5981610f3e565b82525050565b600081519050919050565b600082825260208201905092915050565b60005b83811015610f99578082015181840152602081019050610f7e565b60008484015250505050565b6000610fb082610f5f565b610fba8185610f6a565b9350610fca818560208601610f7b565b610fd381610a34565b840191505092915050565b6000608082019050610ff36000830187610bdf565b6110006020830186610bdf565b61100d6040830185610f50565b818103606083015261101f8184610fa5565b905095945050505050565b600080600080600060a086880312156110465761104561087f565b5b600061105488828901610c89565b955050602061106588828901610c89565b945050604061107688828901610965565b935050606061108788828901610965565b925050608086013567ffffffffffffffff8111156110a8576110a7610884565b5b6110b488828901610dd9565b9150509295509295909350565b7f696e73756666696369656e7420616d6f756e7400000000000000000000000000600082015250565b60006110f7601383610f6a565b9150611102826110c1565b602082019050919050565b60006020820190508181036000830152611126816110ea565b9050919050565b6111368161099a565b82525050565b6000819050919050565b600061116161115c6111578461113c565b610f00565b610944565b9050919050565b61117181611146565b82525050565b600082825260208201905092915050565b7f3078000000000000000000000000000000000000000000000000000000000000600082015250565b60006111be600283611177565b91506111c982611188565b602082019050919050565b600060a0820190506111e9600083018761112d565b6111f6602083018661112d565b6112036040830185610bdf565b6112106060830184611168565b8181036080830152611221816111b1565b905095945050505050565b7f4e487b7100000000000000000000000000000000000000000000000000000000600052601160045260246000fd5b600061126682610944565b91507fffffffffffffffffffffffffffffffffffffffffffffffffffffffffffffffff82036112985761129761122c565b5b600182019050919050565b7f6f6e6c79206f776e65722063616e2063616c6c00000000000000000000000000600082015250565b60006112d9601383610f6a565b91506112e4826112a3565b602082019050919050565b60006020820190508181036000830152611308816112cc565b9050919050565b7f43616e206f6e6c79206d616b65206c696d6974656420616d6f756e74206f662060008201527f746f6b656e000000000000000000000000000000000000000000000000000000602082015250565b600061136b602583610f6a565b91506113768261130f565b604082019050919050565b6000602082019050818103600083015261139a8161135e565b9050919050565b6000819050919050565b60006113c66113c16113bc846113a1565b610f00565b610944565b9050919050565b6113d6816113ab565b82525050565b600060a0820190506113f1600083018761112d565b6113fe602083018661112d565b61140b6040830185610bdf565b61141860608301846113cd565b8181036080830152611429816111b1565b905095945050505050565b7f4e487b7100000000000000000000000000000000000000000000000000000000600052602260045260246000fd5b6000600282049050600182168061147b57607f821691505b60208210810361148e5761148d611434565b5b50919050565b60008190508160005260206000209050919050565b60006020601f8301049050919050565b600082821b905092915050565b6000600883026114f67fffffffffffffffffffffffffffffffffffffffffffffffffffffffffffffffff826114b9565b61150086836114b9565b95508019841693508086168417925050509392505050565b600061153361152e61152984610944565b610f00565b610944565b9050919050565b6000819050919050565b61154d83611518565b6115616115598261153a565b8484546114c6565b825550505050565b600090565b611576611569565b611581818484611544565b505050565b5b818110156115a55761159a60008261156e565b600181019050611587565b5050565b601f8211156115ea576115bb81611494565b6115c4846114a9565b810160208510156115d3578190505b6115e76115df856114a9565b830182611586565b50505b505050565b600082821c905092915050565b600061160d600019846008026115ef565b1980831691505092915050565b600061162683836115fc565b9150826002028217905092915050565b61163f82610f5f565b67ffffffffffffffff81111561165857611657610a45565b5b6116628254611463565b61166d8282856115a9565b600060209050601f8311600181146116a0576000841561168e578287015190505b611698858261161a565b865550611700565b601f1984166116ae86611494565b60005b828110156116d6578489015182556001820191506020850194506020810190506116b1565b868310156116f357848901516116ef601f8916826115fc565b8355505b6001600288020188555050505b505050505050565b7f5265656e7472616e637947756172643a207265656e7472616e742063616c6c00600082015250565b600061173e601f83610f6a565b915061174982611708565b602082019050919050565b6000602082019050818103600083015261176d81611731565b905091905056fea264697066735822122034d335ef11008a129873c994d9d79c93dc26887fc5787ed27b0466dfbee3fef864736f6c63430008110033",
  "linkReferences": {},
  "deployedLinkReferences": {}
}