{
  "_format": "hh-sol-artifact-1",
  "contractName": "EtherTransfer",
  "sourceName": "contracts/EtherTransfer.sol",
  "abi": [
    {
      "inputs": [],
      "name": "getNumber",
      "outputs": [
        {
          "internalType": "uint256",
          "name": "",
          "type": "uint256"
        }
      ],
      "stateMutability": "view",
      "type": "function"
    },
    {
      "inputs": [
        {
          "internalType": "address",
          "name": "_to",
          "type": "address"
        }
      ],
      "name": "sendEth",
      "outputs": [],
      "stateMutability": "payable",
      "type": "function"
    },
    {
      "inputs": [
        {
          "internalType": "uint256",
          "name": "_number",
          "type": "uint256"
        }
      ],
      "name": "setNumber",
      "outputs": [],
      "stateMutability": "nonpayable",
      "type": "function"
    }
  ],
  "bytecode": "0x608060405234801561001057600080fd5b50610259806100206000396000f3fe6080604052600436106100345760003560e01c80633fb5c1cb1461003957806376a54c6014610062578063f2c9ecd81461007e575b600080fd5b34801561004557600080fd5b50610060600480360381019061005b9190610141565b6100a9565b005b61007c600480360381019061007791906101cc565b6100b3565b005b34801561008a57600080fd5b506100936100fd565b6040516100a09190610208565b60405180910390f35b8060008190555050565b8073ffffffffffffffffffffffffffffffffffffffff166108fc349081150290604051600060405180830381858888f193505050501580156100f9573d6000803e3d6000fd5b5050565b60008054905090565b600080fd5b6000819050919050565b61011e8161010b565b811461012957600080fd5b50565b60008135905061013b81610115565b92915050565b60006020828403121561015757610156610106565b5b60006101658482850161012c565b91505092915050565b600073ffffffffffffffffffffffffffffffffffffffff82169050919050565b60006101998261016e565b9050919050565b6101a98161018e565b81146101b457600080fd5b50565b6000813590506101c6816101a0565b92915050565b6000602082840312156101e2576101e1610106565b5b60006101f0848285016101b7565b91505092915050565b6102028161010b565b82525050565b600060208201905061021d60008301846101f9565b9291505056fea264697066735822122011632f94288f09a937082ae948bbae77861b812caa87bed02afebd84fad76b2364736f6c63430008110033",
  "linkReferences": {},
  "deployedLinkReferences": {}
}