{
  "_format": "hh-sol-artifact-1",
  "contractName": "AwesomeGame",
  "sourceName": "contracts/AwesomeGame.sol",
  "abi": [
    {
      "inputs": [],
      "stateMutability": "nonpayable",
      "type": "constructor"
    },
    {
      "anonymous": false,
      "inputs": [
        {
          "indexed": true,
          "internalType": "address",
          "name": "account",
          "type": "address"
        },
        {
          "indexed": true,
          "internalType": "address",
          "name": "operator",
          "type": "address"
        },
        {
          "indexed": false,
          "internalType": "bool",
          "name": "approved",
          "type": "bool"
        }
      ],
      "name": "ApprovalForAll",
      "type": "event"
    },
    {
      "anonymous": false,
      "inputs": [
        {
          "indexed": true,
          "internalType": "address",
          "name": "operator",
          "type": "address"
        },
        {
          "indexed": true,
          "internalType": "address",
          "name": "from",
          "type": "address"
        },
        {
          "indexed": true,
          "internalType": "address",
          "name": "to",
          "type": "address"
        },
        {
          "indexed": false,
          "internalType": "uint256[]",
          "name": "ids",
          "type": "uint256[]"
        },
        {
          "indexed": false,
          "internalType": "uint256[]",
          "name": "values",
          "type": "uint256[]"
        }
      ],
      "name": "TransferBatch",
      "type": "event"
    },
    {
      "anonymous": false,
      "inputs": [
        {
          "indexed": true,
          "internalType": "address",
          "name": "operator",
          "type": "address"
        },
        {
          "indexed": true,
          "internalType": "address",
          "name": "from",
          "type": "address"
        },
        {
          "indexed": true,
          "internalType": "address",
          "name": "to",
          "type": "address"
        },
        {
          "indexed": false,
          "internalType": "uint256",
          "name": "id",
          "type": "uint256"
        },
        {
          "indexed": false,
          "internalType": "uint256",
          "name": "value",
          "type": "uint256"
        }
      ],
      "name": "TransferSingle",
      "type": "event"
    },
    {
      "anonymous": false,
      "inputs": [
        {
          "indexed": false,
          "internalType": "string",
          "name": "value",
          "type": "string"
        },
        {
          "indexed": true,
          "internalType": "uint256",
          "name": "id",
          "type": "uint256"
        }
      ],
      "name": "URI",
      "type": "event"
    },
    {
      "inputs": [],
      "name": "CROWN",
      "outputs": [
        {
          "internalType": "uint256",
          "name": "",
          "type": "uint256"
        }
      ],
      "stateMutability": "view",
      "type": "function"
    },
    {
      "inputs": [],
      "name": "GOLD",
      "outputs": [
        {
          "internalType": "uint256",
          "name": "",
          "type": "uint256"
        }
      ],
      "stateMutability": "view",
      "type": "function"
    },
    {
      "inputs": [],
      "name": "SHIELD",
      "outputs": [
        {
          "internalType": "uint256",
          "name": "",
          "type": "uint256"
        }
      ],
      "stateMutability": "view",
      "type": "function"
    },
    {
      "inputs": [],
      "name": "SILVER",
      "outputs": [
        {
          "internalType": "uint256",
          "name": "",
          "type": "uint256"
        }
      ],
      "stateMutability": "view",
      "type": "function"
    },
    {
      "inputs": [],
      "name": "SWORD",
      "outputs": [
        {
          "internalType": "uint256",
          "name": "",
          "type": "uint256"
        }
      ],
      "stateMutability": "view",
      "type": "function"
    },
    {
      "inputs": [
        {
          "internalType": "uint256",
          "name": "tokenId",
          "type": "uint256"
        },
        {
          "internalType": "string",
          "name": "tokenURI",
          "type": "string"
        }
      ],
      "name": "_setTokenUri",
      "outputs": [],
      "stateMutability": "nonpayable",
      "type": "function"
    },
    {
      "inputs": [
        {
          "internalType": "address",
          "name": "account",
          "type": "address"
        },
        {
          "internalType": "uint256",
          "name": "id",
          "type": "uint256"
        }
      ],
      "name": "balanceOf",
      "outputs": [
        {
          "internalType": "uint256",
          "name": "",
          "type": "uint256"
        }
      ],
      "stateMutability": "view",
      "type": "function"
    },
    {
      "inputs": [
        {
          "internalType": "address[]",
          "name": "accounts",
          "type": "address[]"
        },
        {
          "internalType": "uint256[]",
          "name": "ids",
          "type": "uint256[]"
        }
      ],
      "name": "balanceOfBatch",
      "outputs": [
        {
          "internalType": "uint256[]",
          "name": "",
          "type": "uint256[]"
        }
      ],
      "stateMutability": "view",
      "type": "function"
    },
    {
      "inputs": [
        {
          "internalType": "address",
          "name": "account",
          "type": "address"
        },
        {
          "internalType": "address",
          "name": "operator",
          "type": "address"
        }
      ],
      "name": "isApprovedForAll",
      "outputs": [
        {
          "internalType": "bool",
          "name": "",
          "type": "bool"
        }
      ],
      "stateMutability": "view",
      "type": "function"
    },
    {
      "inputs": [
        {
          "internalType": "address",
          "name": "from",
          "type": "address"
        },
        {
          "internalType": "address",
          "name": "to",
          "type": "address"
        },
        {
          "internalType": "uint256[]",
          "name": "ids",
          "type": "uint256[]"
        },
        {
          "internalType": "uint256[]",
          "name": "amounts",
          "type": "uint256[]"
        },
        {
          "internalType": "bytes",
          "name": "data",
          "type": "bytes"
        }
      ],
      "name": "safeBatchTransferFrom",
      "outputs": [],
      "stateMutability": "nonpayable",
      "type": "function"
    },
    {
      "inputs": [
        {
          "internalType": "address",
          "name": "from",
          "type": "address"
        },
        {
          "internalType": "address",
          "name": "to",
          "type": "address"
        },
        {
          "internalType": "uint256",
          "name": "id",
          "type": "uint256"
        },
        {
          "internalType": "uint256",
          "name": "amount",
          "type": "uint256"
        },
        {
          "internalType": "bytes",
          "name": "data",
          "type": "bytes"
        }
      ],
      "name": "safeTransferFrom",
      "outputs": [],
      "stateMutability": "nonpayable",
      "type": "function"
    },
    {
      "inputs": [
        {
          "internalType": "address",
          "name": "operator",
          "type": "address"
        },
        {
          "internalType": "bool",
          "name": "approved",
          "type": "bool"
        }
      ],
      "name": "setApprovalForAll",
      "outputs": [],
      "stateMutability": "nonpayable",
      "type": "function"
    },
    {
      "inputs": [
        {
          "internalType": "bytes4",
          "name": "interfaceId",
          "type": "bytes4"
        }
      ],
      "name": "supportsInterface",
      "outputs": [
        {
          "internalType": "bool",
          "name": "",
          "type": "bool"
        }
      ],
      "stateMutability": "view",
      "type": "function"
    },
    {
      "inputs": [],
      "name": "tokenCount",
      "outputs": [
        {
          "internalType": "uint256",
          "name": "",
          "type": "uint256"
        }
      ],
      "stateMutability": "view",
      "type": "function"
    },
    {
      "inputs": [
        {
          "internalType": "uint256",
          "name": "tokenId",
          "type": "uint256"
        }
      ],
      "name": "uri",
      "outputs": [
        {
          "internalType": "string",
          "name": "",
          "type": "string"
        }
      ],
      "stateMutability": "view",
      "type": "function"
    }
  ],
  "bytecode": "0x60806040523480156200001157600080fd5b5060405180606001604052806028815260200162003a71602891396200003d816200015660201b60201c565b5033600560006101000a81548173ffffffffffffffffffffffffffffffffffffffff021916908373ffffffffffffffffffffffffffffffffffffffff160217905550620000ab336000670de0b6b3a7640000604051806020016040528060008152506200016b60201b60201c565b620000d7336001670de0b6b3a7640000604051806020016040528060008152506200016b60201b60201c565b620000fd3360026103e8604051806020016040528060008152506200016b60201b60201c565b620001233360036103e8604051806020016040528060008152506200016b60201b60201c565b620001483360046001604051806020016040528060008152506200016b60201b60201c565b600560048190555062000f61565b806002908162000167919062000881565b5050565b600073ffffffffffffffffffffffffffffffffffffffff168473ffffffffffffffffffffffffffffffffffffffff1603620001dd576040517f08c379a0000000000000000000000000000000000000000000000000000000008152600401620001d490620009ef565b60405180910390fd5b6000620001ef6200035260201b60201c565b9050600062000204856200035a60201b60201c565b9050600062000219856200035a60201b60201c565b90506200023283600089858589620003db60201b60201c565b8460008088815260200190815260200160002060008973ffffffffffffffffffffffffffffffffffffffff1673ffffffffffffffffffffffffffffffffffffffff168152602001908152602001600020600082825462000293919062000a40565b925050819055508673ffffffffffffffffffffffffffffffffffffffff16600073ffffffffffffffffffffffffffffffffffffffff168473ffffffffffffffffffffffffffffffffffffffff167fc3d58168c5ae7397731d063d5bbf3d657854427343f4c083240f7aacaa2d0f6289896040516200031392919062000a8c565b60405180910390a46200033283600089858589620003e360201b60201c565b6200034983600089898989620003eb60201b60201c565b50505050505050565b600033905090565b60606000600167ffffffffffffffff8111156200037c576200037b62000612565b5b604051908082528060200260200182016040528015620003ab5781602001602082028036833780820191505090505b5090508281600081518110620003c657620003c562000ab9565b5b60200260200101818152505080915050919050565b505050505050565b505050505050565b620004178473ffffffffffffffffffffffffffffffffffffffff16620005e460201b620009351760201c565b15620005dc578373ffffffffffffffffffffffffffffffffffffffff1663f23a6e6187878686866040518663ffffffff1660e01b81526004016200046095949392919062000bc7565b6020604051808303816000875af19250505080156200049f57506040513d601f19601f820116820180604052508101906200049c919062000c97565b60015b6200055057620004ae62000cd6565b806308c379a003620005115750620004c562000d31565b80620004d2575062000513565b806040517f08c379a000000000000000000000000000000000000000000000000000000000815260040162000508919062000e0d565b60405180910390fd5b505b6040517f08c379a0000000000000000000000000000000000000000000000000000000008152600401620005479062000ea7565b60405180910390fd5b63f23a6e6160e01b7bffffffffffffffffffffffffffffffffffffffffffffffffffffffff1916817bffffffffffffffffffffffffffffffffffffffffffffffffffffffff191614620005da576040517f08c379a0000000000000000000000000000000000000000000000000000000008152600401620005d19062000f3f565b60405180910390fd5b505b505050505050565b6000808273ffffffffffffffffffffffffffffffffffffffff163b119050919050565b600081519050919050565b7f4e487b7100000000000000000000000000000000000000000000000000000000600052604160045260246000fd5b7f4e487b7100000000000000000000000000000000000000000000000000000000600052602260045260246000fd5b600060028204905060018216806200068957607f821691505b6020821081036200069f576200069e62000641565b5b50919050565b60008190508160005260206000209050919050565b60006020601f8301049050919050565b600082821b905092915050565b600060088302620007097fffffffffffffffffffffffffffffffffffffffffffffffffffffffffffffffff82620006ca565b620007158683620006ca565b95508019841693508086168417925050509392505050565b6000819050919050565b6000819050919050565b6000620007626200075c62000756846200072d565b62000737565b6200072d565b9050919050565b6000819050919050565b6200077e8362000741565b620007966200078d8262000769565b848454620006d7565b825550505050565b600090565b620007ad6200079e565b620007ba81848462000773565b505050565b5b81811015620007e257620007d6600082620007a3565b600181019050620007c0565b5050565b601f8211156200083157620007fb81620006a5565b6200080684620006ba565b8101602085101562000816578190505b6200082e6200082585620006ba565b830182620007bf565b50505b505050565b600082821c905092915050565b6000620008566000198460080262000836565b1980831691505092915050565b600062000871838362000843565b9150826002028217905092915050565b6200088c8262000607565b67ffffffffffffffff811115620008a857620008a762000612565b5b620008b4825462000670565b620008c1828285620007e6565b600060209050601f831160018114620008f95760008415620008e4578287015190505b620008f0858262000863565b86555062000960565b601f1984166200090986620006a5565b60005b8281101562000933578489015182556001820191506020850194506020810190506200090c565b868310156200095357848901516200094f601f89168262000843565b8355505b6001600288020188555050505b505050505050565b600082825260208201905092915050565b7f455243313135353a206d696e7420746f20746865207a65726f2061646472657360008201527f7300000000000000000000000000000000000000000000000000000000000000602082015250565b6000620009d760218362000968565b9150620009e48262000979565b604082019050919050565b6000602082019050818103600083015262000a0a81620009c8565b9050919050565b7f4e487b7100000000000000000000000000000000000000000000000000000000600052601160045260246000fd5b600062000a4d826200072d565b915062000a5a836200072d565b925082820190508082111562000a755762000a7462000a11565b5b92915050565b62000a86816200072d565b82525050565b600060408201905062000aa3600083018562000a7b565b62000ab2602083018462000a7b565b9392505050565b7f4e487b7100000000000000000000000000000000000000000000000000000000600052603260045260246000fd5b600073ffffffffffffffffffffffffffffffffffffffff82169050919050565b600062000b158262000ae8565b9050919050565b62000b278162000b08565b82525050565b600081519050919050565b600082825260208201905092915050565b60005b8381101562000b6957808201518184015260208101905062000b4c565b60008484015250505050565b6000601f19601f8301169050919050565b600062000b938262000b2d565b62000b9f818562000b38565b935062000bb181856020860162000b49565b62000bbc8162000b75565b840191505092915050565b600060a08201905062000bde600083018862000b1c565b62000bed602083018762000b1c565b62000bfc604083018662000a7b565b62000c0b606083018562000a7b565b818103608083015262000c1f818462000b86565b90509695505050505050565b6000604051905090565b600080fd5b60007fffffffff0000000000000000000000000000000000000000000000000000000082169050919050565b62000c718162000c3a565b811462000c7d57600080fd5b50565b60008151905062000c918162000c66565b92915050565b60006020828403121562000cb05762000caf62000c35565b5b600062000cc08482850162000c80565b91505092915050565b60008160e01c9050919050565b600060033d111562000cf85760046000803e62000cf560005162000cc9565b90505b90565b62000d068262000b75565b810181811067ffffffffffffffff8211171562000d285762000d2762000612565b5b80604052505050565b600060443d1062000dc95762000d4662000c2b565b60043d036004823e80513d602482011167ffffffffffffffff8211171562000d7057505062000dc9565b808201805167ffffffffffffffff81111562000d90575050505062000dc9565b80602083010160043d03850181111562000daf57505050505062000dc9565b62000dc08260200185018662000cfb565b82955050505050505b90565b600062000dd98262000607565b62000de5818562000968565b935062000df781856020860162000b49565b62000e028162000b75565b840191505092915050565b6000602082019050818103600083015262000e29818462000dcc565b905092915050565b7f455243313135353a207472616e7366657220746f206e6f6e2d4552433131353560008201527f526563656976657220696d706c656d656e746572000000000000000000000000602082015250565b600062000e8f60348362000968565b915062000e9c8262000e31565b604082019050919050565b6000602082019050818103600083015262000ec28162000e80565b9050919050565b7f455243313135353a204552433131353552656365697665722072656a6563746560008201527f6420746f6b656e73000000000000000000000000000000000000000000000000602082015250565b600062000f2760288362000968565b915062000f348262000ec9565b604082019050919050565b6000602082019050818103600083015262000f5a8162000f18565b9050919050565b612b008062000f716000396000f3fe608060405234801561001057600080fd5b50600436106100f45760003560e01c80633e4bee3811610097578063a22cb46511610066578063a22cb46514610287578063e3e55f08146102a3578063e985e9c5146102c1578063f242432a146102f1576100f4565b80633e4bee38146101fd5780634e1273f41461021b5780635b2725ed1461024b5780639f181b5e14610269576100f4565b806313dc989f116100d357806313dc989f1461018957806318455da1146101a75780632eb2c2d6146101c55780633086719a146101e1576100f4565b8062fdd58e146100f957806301ffc9a7146101295780630e89341c14610159575b600080fd5b610113600480360381019061010e91906115d2565b61030d565b6040516101209190611621565b60405180910390f35b610143600480360381019061013e9190611694565b6103d5565b60405161015091906116dc565b60405180910390f35b610173600480360381019061016e91906116f7565b6104b7565b60405161018091906117b4565b60405180910390f35b61019161055c565b60405161019e9190611621565b60405180910390f35b6101af610561565b6040516101bc9190611621565b60405180910390f35b6101df60048036038101906101da91906119d3565b610566565b005b6101fb60048036038101906101f69190611b43565b610607565b005b6102056106bc565b6040516102129190611621565b60405180910390f35b61023560048036038101906102309190611c62565b6106c1565b6040516102429190611d98565b60405180910390f35b6102536107da565b6040516102609190611621565b60405180910390f35b6102716107df565b60405161027e9190611621565b60405180910390f35b6102a1600480360381019061029c9190611de6565b6107e5565b005b6102ab6107fb565b6040516102b89190611621565b60405180910390f35b6102db60048036038101906102d69190611e26565b610800565b6040516102e891906116dc565b60405180910390f35b61030b60048036038101906103069190611e66565b610894565b005b60008073ffffffffffffffffffffffffffffffffffffffff168373ffffffffffffffffffffffffffffffffffffffff160361037d576040517f08c379a000000000000000000000000000000000000000000000000000000000815260040161037490611f6f565b60405180910390fd5b60008083815260200190815260200160002060008473ffffffffffffffffffffffffffffffffffffffff1673ffffffffffffffffffffffffffffffffffffffff16815260200190815260200160002054905092915050565b60007fd9b67a26000000000000000000000000000000000000000000000000000000007bffffffffffffffffffffffffffffffffffffffffffffffffffffffff1916827bffffffffffffffffffffffffffffffffffffffffffffffffffffffff191614806104a057507f0e89341c000000000000000000000000000000000000000000000000000000007bffffffffffffffffffffffffffffffffffffffffffffffffffffffff1916827bffffffffffffffffffffffffffffffffffffffffffffffffffffffff1916145b806104b057506104af82610958565b5b9050919050565b60606003600083815260200190815260200160002080546104d790611fbe565b80601f016020809104026020016040519081016040528092919081815260200182805461050390611fbe565b80156105505780601f1061052557610100808354040283529160200191610550565b820191906000526020600020905b81548152906001019060200180831161053357829003601f168201915b50505050509050919050565b600281565b600481565b61056e6109c2565b73ffffffffffffffffffffffffffffffffffffffff168573ffffffffffffffffffffffffffffffffffffffff1614806105b457506105b3856105ae6109c2565b610800565b5b6105f3576040517f08c379a00000000000000000000000000000000000000000000000000000000081526004016105ea90612061565b60405180910390fd5b61060085858585856109ca565b5050505050565b600560009054906101000a900473ffffffffffffffffffffffffffffffffffffffff1673ffffffffffffffffffffffffffffffffffffffff163373ffffffffffffffffffffffffffffffffffffffff1614610697576040517f08c379a000000000000000000000000000000000000000000000000000000000815260040161068e906120cd565b60405180910390fd5b806003600084815260200190815260200160002090816106b79190612299565b505050565b600081565b60608151835114610707576040517f08c379a00000000000000000000000000000000000000000000000000000000081526004016106fe906123dd565b60405180910390fd5b6000835167ffffffffffffffff811115610724576107236117db565b5b6040519080825280602002602001820160405280156107525781602001602082028036833780820191505090505b50905060005b84518110156107cf5761079f858281518110610777576107766123fd565b5b6020026020010151858381518110610792576107916123fd565b5b602002602001015161030d565b8282815181106107b2576107b16123fd565b5b602002602001018181525050806107c89061245b565b9050610758565b508091505092915050565b600381565b60045481565b6107f76107f06109c2565b8383610ceb565b5050565b600181565b6000600160008473ffffffffffffffffffffffffffffffffffffffff1673ffffffffffffffffffffffffffffffffffffffff16815260200190815260200160002060008373ffffffffffffffffffffffffffffffffffffffff1673ffffffffffffffffffffffffffffffffffffffff16815260200190815260200160002060009054906101000a900460ff16905092915050565b61089c6109c2565b73ffffffffffffffffffffffffffffffffffffffff168573ffffffffffffffffffffffffffffffffffffffff1614806108e257506108e1856108dc6109c2565b610800565b5b610921576040517f08c379a000000000000000000000000000000000000000000000000000000000815260040161091890612061565b60405180910390fd5b61092e8585858585610e57565b5050505050565b6000808273ffffffffffffffffffffffffffffffffffffffff163b119050919050565b60007f01ffc9a7000000000000000000000000000000000000000000000000000000007bffffffffffffffffffffffffffffffffffffffffffffffffffffffff1916827bffffffffffffffffffffffffffffffffffffffffffffffffffffffff1916149050919050565b600033905090565b8151835114610a0e576040517f08c379a0000000000000000000000000000000000000000000000000000000008152600401610a0590612515565b60405180910390fd5b600073ffffffffffffffffffffffffffffffffffffffff168473ffffffffffffffffffffffffffffffffffffffff1603610a7d576040517f08c379a0000000000000000000000000000000000000000000000000000000008152600401610a74906125a7565b60405180910390fd5b6000610a876109c2565b9050610a978187878787876110f2565b60005b8451811015610c48576000858281518110610ab857610ab76123fd565b5b602002602001015190506000858381518110610ad757610ad66123fd565b5b60200260200101519050600080600084815260200190815260200160002060008b73ffffffffffffffffffffffffffffffffffffffff1673ffffffffffffffffffffffffffffffffffffffff16815260200190815260200160002054905081811015610b78576040517f08c379a0000000000000000000000000000000000000000000000000000000008152600401610b6f90612639565b60405180910390fd5b81810360008085815260200190815260200160002060008c73ffffffffffffffffffffffffffffffffffffffff1673ffffffffffffffffffffffffffffffffffffffff168152602001908152602001600020819055508160008085815260200190815260200160002060008b73ffffffffffffffffffffffffffffffffffffffff1673ffffffffffffffffffffffffffffffffffffffff1681526020019081526020016000206000828254610c2d9190612659565b9250508190555050505080610c419061245b565b9050610a9a565b508473ffffffffffffffffffffffffffffffffffffffff168673ffffffffffffffffffffffffffffffffffffffff168273ffffffffffffffffffffffffffffffffffffffff167f4a39dc06d4c0dbc64b70af90fd698a233a518aa5d07e595d983b8c0526c8f7fb8787604051610cbf92919061268d565b60405180910390a4610cd58187878787876110fa565b610ce3818787878787611102565b505050505050565b8173ffffffffffffffffffffffffffffffffffffffff168373ffffffffffffffffffffffffffffffffffffffff1603610d59576040517f08c379a0000000000000000000000000000000000000000000000000000000008152600401610d5090612736565b60405180910390fd5b80600160008573ffffffffffffffffffffffffffffffffffffffff1673ffffffffffffffffffffffffffffffffffffffff16815260200190815260200160002060008473ffffffffffffffffffffffffffffffffffffffff1673ffffffffffffffffffffffffffffffffffffffff16815260200190815260200160002060006101000a81548160ff0219169083151502179055508173ffffffffffffffffffffffffffffffffffffffff168373ffffffffffffffffffffffffffffffffffffffff167f17307eab39ab6107e8899845ad3d59bd9653f200f220920489ca2b5937696c3183604051610e4a91906116dc565b60405180910390a3505050565b600073ffffffffffffffffffffffffffffffffffffffff168473ffffffffffffffffffffffffffffffffffffffff1603610ec6576040517f08c379a0000000000000000000000000000000000000000000000000000000008152600401610ebd906125a7565b60405180910390fd5b6000610ed06109c2565b90506000610edd856112d9565b90506000610eea856112d9565b9050610efa8389898585896110f2565b600080600088815260200190815260200160002060008a73ffffffffffffffffffffffffffffffffffffffff1673ffffffffffffffffffffffffffffffffffffffff16815260200190815260200160002054905085811015610f91576040517f08c379a0000000000000000000000000000000000000000000000000000000008152600401610f8890612639565b60405180910390fd5b85810360008089815260200190815260200160002060008b73ffffffffffffffffffffffffffffffffffffffff1673ffffffffffffffffffffffffffffffffffffffff168152602001908152602001600020819055508560008089815260200190815260200160002060008a73ffffffffffffffffffffffffffffffffffffffff1673ffffffffffffffffffffffffffffffffffffffff16815260200190815260200160002060008282546110469190612659565b925050819055508773ffffffffffffffffffffffffffffffffffffffff168973ffffffffffffffffffffffffffffffffffffffff168573ffffffffffffffffffffffffffffffffffffffff167fc3d58168c5ae7397731d063d5bbf3d657854427343f4c083240f7aacaa2d0f628a8a6040516110c3929190612756565b60405180910390a46110d9848a8a86868a6110fa565b6110e7848a8a8a8a8a611353565b505050505050505050565b505050505050565b505050505050565b6111218473ffffffffffffffffffffffffffffffffffffffff16610935565b156112d1578373ffffffffffffffffffffffffffffffffffffffff1663bc197c8187878686866040518663ffffffff1660e01b81526004016111679594939291906127e3565b6020604051808303816000875af19250505080156111a357506040513d601f19601f820116820180604052508101906111a09190612860565b60015b611248576111af61289a565b806308c379a00361120b57506111c36128bc565b806111ce575061120d565b806040517f08c379a000000000000000000000000000000000000000000000000000000000815260040161120291906117b4565b60405180910390fd5b505b6040517f08c379a000000000000000000000000000000000000000000000000000000000815260040161123f906129be565b60405180910390fd5b63bc197c8160e01b7bffffffffffffffffffffffffffffffffffffffffffffffffffffffff1916817bffffffffffffffffffffffffffffffffffffffffffffffffffffffff1916146112cf576040517f08c379a00000000000000000000000000000000000000000000000000000000081526004016112c690612a50565b60405180910390fd5b505b505050505050565b60606000600167ffffffffffffffff8111156112f8576112f76117db565b5b6040519080825280602002602001820160405280156113265781602001602082028036833780820191505090505b509050828160008151811061133e5761133d6123fd565b5b60200260200101818152505080915050919050565b6113728473ffffffffffffffffffffffffffffffffffffffff16610935565b15611522578373ffffffffffffffffffffffffffffffffffffffff1663f23a6e6187878686866040518663ffffffff1660e01b81526004016113b8959493929190612a70565b6020604051808303816000875af19250505080156113f457506040513d601f19601f820116820180604052508101906113f19190612860565b60015b6114995761140061289a565b806308c379a00361145c57506114146128bc565b8061141f575061145e565b806040517f08c379a000000000000000000000000000000000000000000000000000000000815260040161145391906117b4565b60405180910390fd5b505b6040517f08c379a0000000000000000000000000000000000000000000000000000000008152600401611490906129be565b60405180910390fd5b63f23a6e6160e01b7bffffffffffffffffffffffffffffffffffffffffffffffffffffffff1916817bffffffffffffffffffffffffffffffffffffffffffffffffffffffff191614611520576040517f08c379a000000000000000000000000000000000000000000000000000000000815260040161151790612a50565b60405180910390fd5b505b505050505050565b6000604051905090565b600080fd5b600080fd5b600073ffffffffffffffffffffffffffffffffffffffff82169050919050565b60006115698261153e565b9050919050565b6115798161155e565b811461158457600080fd5b50565b60008135905061159681611570565b92915050565b6000819050919050565b6115af8161159c565b81146115ba57600080fd5b50565b6000813590506115cc816115a6565b92915050565b600080604083850312156115e9576115e8611534565b5b60006115f785828601611587565b9250506020611608858286016115bd565b9150509250929050565b61161b8161159c565b82525050565b60006020820190506116366000830184611612565b92915050565b60007fffffffff0000000000000000000000000000000000000000000000000000000082169050919050565b6116718161163c565b811461167c57600080fd5b50565b60008135905061168e81611668565b92915050565b6000602082840312156116aa576116a9611534565b5b60006116b88482850161167f565b91505092915050565b60008115159050919050565b6116d6816116c1565b82525050565b60006020820190506116f160008301846116cd565b92915050565b60006020828403121561170d5761170c611534565b5b600061171b848285016115bd565b91505092915050565b600081519050919050565b600082825260208201905092915050565b60005b8381101561175e578082015181840152602081019050611743565b60008484015250505050565b6000601f19601f8301169050919050565b600061178682611724565b611790818561172f565b93506117a0818560208601611740565b6117a98161176a565b840191505092915050565b600060208201905081810360008301526117ce818461177b565b905092915050565b600080fd5b7f4e487b7100000000000000000000000000000000000000000000000000000000600052604160045260246000fd5b6118138261176a565b810181811067ffffffffffffffff82111715611832576118316117db565b5b80604052505050565b600061184561152a565b9050611851828261180a565b919050565b600067ffffffffffffffff821115611871576118706117db565b5b602082029050602081019050919050565b600080fd5b600061189a61189584611856565b61183b565b905080838252602082019050602084028301858111156118bd576118bc611882565b5b835b818110156118e657806118d288826115bd565b8452602084019350506020810190506118bf565b5050509392505050565b600082601f830112611905576119046117d6565b5b8135611915848260208601611887565b91505092915050565b600080fd5b600067ffffffffffffffff82111561193e5761193d6117db565b5b6119478261176a565b9050602081019050919050565b82818337600083830152505050565b600061197661197184611923565b61183b565b9050828152602081018484840111156119925761199161191e565b5b61199d848285611954565b509392505050565b600082601f8301126119ba576119b96117d6565b5b81356119ca848260208601611963565b91505092915050565b600080600080600060a086880312156119ef576119ee611534565b5b60006119fd88828901611587565b9550506020611a0e88828901611587565b945050604086013567ffffffffffffffff811115611a2f57611a2e611539565b5b611a3b888289016118f0565b935050606086013567ffffffffffffffff811115611a5c57611a5b611539565b5b611a68888289016118f0565b925050608086013567ffffffffffffffff811115611a8957611a88611539565b5b611a95888289016119a5565b9150509295509295909350565b600067ffffffffffffffff821115611abd57611abc6117db565b5b611ac68261176a565b9050602081019050919050565b6000611ae6611ae184611aa2565b61183b565b905082815260208101848484011115611b0257611b0161191e565b5b611b0d848285611954565b509392505050565b600082601f830112611b2a57611b296117d6565b5b8135611b3a848260208601611ad3565b91505092915050565b60008060408385031215611b5a57611b59611534565b5b6000611b68858286016115bd565b925050602083013567ffffffffffffffff811115611b8957611b88611539565b5b611b9585828601611b15565b9150509250929050565b600067ffffffffffffffff821115611bba57611bb96117db565b5b602082029050602081019050919050565b6000611bde611bd984611b9f565b61183b565b90508083825260208201905060208402830185811115611c0157611c00611882565b5b835b81811015611c2a5780611c168882611587565b845260208401935050602081019050611c03565b5050509392505050565b600082601f830112611c4957611c486117d6565b5b8135611c59848260208601611bcb565b91505092915050565b60008060408385031215611c7957611c78611534565b5b600083013567ffffffffffffffff811115611c9757611c96611539565b5b611ca385828601611c34565b925050602083013567ffffffffffffffff811115611cc457611cc3611539565b5b611cd0858286016118f0565b9150509250929050565b600081519050919050565b600082825260208201905092915050565b6000819050602082019050919050565b611d0f8161159c565b82525050565b6000611d218383611d06565b60208301905092915050565b6000602082019050919050565b6000611d4582611cda565b611d4f8185611ce5565b9350611d5a83611cf6565b8060005b83811015611d8b578151611d728882611d15565b9750611d7d83611d2d565b925050600181019050611d5e565b5085935050505092915050565b60006020820190508181036000830152611db28184611d3a565b905092915050565b611dc3816116c1565b8114611dce57600080fd5b50565b600081359050611de081611dba565b92915050565b60008060408385031215611dfd57611dfc611534565b5b6000611e0b85828601611587565b9250506020611e1c85828601611dd1565b9150509250929050565b60008060408385031215611e3d57611e3c611534565b5b6000611e4b85828601611587565b9250506020611e5c85828601611587565b9150509250929050565b600080600080600060a08688031215611e8257611e81611534565b5b6000611e9088828901611587565b9550506020611ea188828901611587565b9450506040611eb2888289016115bd565b9350506060611ec3888289016115bd565b925050608086013567ffffffffffffffff811115611ee457611ee3611539565b5b611ef0888289016119a5565b9150509295509295909350565b7f455243313135353a2061646472657373207a65726f206973206e6f742061207660008201527f616c6964206f776e657200000000000000000000000000000000000000000000602082015250565b6000611f59602a8361172f565b9150611f6482611efd565b604082019050919050565b60006020820190508181036000830152611f8881611f4c565b9050919050565b7f4e487b7100000000000000000000000000000000000000000000000000000000600052602260045260246000fd5b60006002820490506001821680611fd657607f821691505b602082108103611fe957611fe8611f8f565b5b50919050565b7f455243313135353a2063616c6c6572206973206e6f7420746f6b656e206f776e60008201527f6572206f7220617070726f766564000000000000000000000000000000000000602082015250565b600061204b602e8361172f565b915061205682611fef565b604082019050919050565b6000602082019050818103600083015261207a8161203e565b9050919050565b7f6f6e6c79206f776e65722063616e2063616c6c00000000000000000000000000600082015250565b60006120b760138361172f565b91506120c282612081565b602082019050919050565b600060208201905081810360008301526120e6816120aa565b9050919050565b60008190508160005260206000209050919050565b60006020601f8301049050919050565b600082821b905092915050565b60006008830261214f7fffffffffffffffffffffffffffffffffffffffffffffffffffffffffffffffff82612112565b6121598683612112565b95508019841693508086168417925050509392505050565b6000819050919050565b600061219661219161218c8461159c565b612171565b61159c565b9050919050565b6000819050919050565b6121b08361217b565b6121c46121bc8261219d565b84845461211f565b825550505050565b600090565b6121d96121cc565b6121e48184846121a7565b505050565b5b81811015612208576121fd6000826121d1565b6001810190506121ea565b5050565b601f82111561224d5761221e816120ed565b61222784612102565b81016020851015612236578190505b61224a61224285612102565b8301826121e9565b50505b505050565b600082821c905092915050565b600061227060001984600802612252565b1980831691505092915050565b6000612289838361225f565b9150826002028217905092915050565b6122a282611724565b67ffffffffffffffff8111156122bb576122ba6117db565b5b6122c58254611fbe565b6122d082828561220c565b600060209050601f83116001811461230357600084156122f1578287015190505b6122fb858261227d565b865550612363565b601f198416612311866120ed565b60005b8281101561233957848901518255600182019150602085019450602081019050612314565b868310156123565784890151612352601f89168261225f565b8355505b6001600288020188555050505b505050505050565b7f455243313135353a206163636f756e747320616e6420696473206c656e67746860008201527f206d69736d617463680000000000000000000000000000000000000000000000602082015250565b60006123c760298361172f565b91506123d28261236b565b604082019050919050565b600060208201905081810360008301526123f6816123ba565b9050919050565b7f4e487b7100000000000000000000000000000000000000000000000000000000600052603260045260246000fd5b7f4e487b7100000000000000000000000000000000000000000000000000000000600052601160045260246000fd5b60006124668261159c565b91507fffffffffffffffffffffffffffffffffffffffffffffffffffffffffffffffff82036124985761249761242c565b5b600182019050919050565b7f455243313135353a2069647320616e6420616d6f756e7473206c656e6774682060008201527f6d69736d61746368000000000000000000000000000000000000000000000000602082015250565b60006124ff60288361172f565b915061250a826124a3565b604082019050919050565b6000602082019050818103600083015261252e816124f2565b9050919050565b7f455243313135353a207472616e7366657220746f20746865207a65726f20616460008201527f6472657373000000000000000000000000000000000000000000000000000000602082015250565b600061259160258361172f565b915061259c82612535565b604082019050919050565b600060208201905081810360008301526125c081612584565b9050919050565b7f455243313135353a20696e73756666696369656e742062616c616e636520666f60008201527f72207472616e7366657200000000000000000000000000000000000000000000602082015250565b6000612623602a8361172f565b915061262e826125c7565b604082019050919050565b6000602082019050818103600083015261265281612616565b9050919050565b60006126648261159c565b915061266f8361159c565b92508282019050808211156126875761268661242c565b5b92915050565b600060408201905081810360008301526126a78185611d3a565b905081810360208301526126bb8184611d3a565b90509392505050565b7f455243313135353a2073657474696e6720617070726f76616c2073746174757360008201527f20666f722073656c660000000000000000000000000000000000000000000000602082015250565b600061272060298361172f565b915061272b826126c4565b604082019050919050565b6000602082019050818103600083015261274f81612713565b9050919050565b600060408201905061276b6000830185611612565b6127786020830184611612565b9392505050565b6127888161155e565b82525050565b600081519050919050565b600082825260208201905092915050565b60006127b58261278e565b6127bf8185612799565b93506127cf818560208601611740565b6127d88161176a565b840191505092915050565b600060a0820190506127f8600083018861277f565b612805602083018761277f565b81810360408301526128178186611d3a565b9050818103606083015261282b8185611d3a565b9050818103608083015261283f81846127aa565b90509695505050505050565b60008151905061285a81611668565b92915050565b60006020828403121561287657612875611534565b5b60006128848482850161284b565b91505092915050565b60008160e01c9050919050565b600060033d11156128b95760046000803e6128b660005161288d565b90505b90565b600060443d10612949576128ce61152a565b60043d036004823e80513d602482011167ffffffffffffffff821117156128f6575050612949565b808201805167ffffffffffffffff8111156129145750505050612949565b80602083010160043d038501811115612931575050505050612949565b6129408260200185018661180a565b82955050505050505b90565b7f455243313135353a207472616e7366657220746f206e6f6e2d4552433131353560008201527f526563656976657220696d706c656d656e746572000000000000000000000000602082015250565b60006129a860348361172f565b91506129b38261294c565b604082019050919050565b600060208201905081810360008301526129d78161299b565b9050919050565b7f455243313135353a204552433131353552656365697665722072656a6563746560008201527f6420746f6b656e73000000000000000000000000000000000000000000000000602082015250565b6000612a3a60288361172f565b9150612a45826129de565b604082019050919050565b60006020820190508181036000830152612a6981612a2d565b9050919050565b600060a082019050612a85600083018861277f565b612a92602083018761277f565b612a9f6040830186611612565b612aac6060830185611612565b8181036080830152612abe81846127aa565b9050969550505050505056fea2646970667358221220ee387bd65c91f3201d71c71bd315948620e8d03497ed4d9c6eaf2c7687f44a6664736f6c6343000811003368747470733a2f2f617765736f6d6567616d652e636f6d2f6173736574732f7b69647d2e6a736f6e",
  "linkReferences": {},
  "deployedLinkReferences": {}
}