{
  "_format": "hh-sol-artifact-1",
  "contractName": "AwesomeGame",
  "sourceName": "contracts/AwesomeGame.sol",
  "abi": [
    {
      "inputs": [],
      "stateMutability": "nonpayable",
      "type": "constructor"
    },
    {
      "anonymous": false,
      "inputs": [
        {
          "indexed": true,
          "internalType": "address",
          "name": "account",
          "type": "address"
        },
        {
          "indexed": true,
          "internalType": "address",
          "name": "operator",
          "type": "address"
        },
        {
          "indexed": false,
          "internalType": "bool",
          "name": "approved",
          "type": "bool"
        }
      ],
      "name": "ApprovalForAll",
      "type": "event"
    },
    {
      "anonymous": false,
      "inputs": [
        {
          "indexed": true,
          "internalType": "address",
          "name": "previousOwner",
          "type": "address"
        },
        {
          "indexed": true,
          "internalType": "address",
          "name": "newOwner",
          "type": "address"
        }
      ],
      "name": "OwnershipTransferred",
      "type": "event"
    },
    {
      "anonymous": false,
      "inputs": [
        {
          "indexed": true,
          "internalType": "address",
          "name": "operator",
          "type": "address"
        },
        {
          "indexed": true,
          "internalType": "address",
          "name": "from",
          "type": "address"
        },
        {
          "indexed": true,
          "internalType": "address",
          "name": "to",
          "type": "address"
        },
        {
          "indexed": false,
          "internalType": "uint256[]",
          "name": "ids",
          "type": "uint256[]"
        },
        {
          "indexed": false,
          "internalType": "uint256[]",
          "name": "values",
          "type": "uint256[]"
        }
      ],
      "name": "TransferBatch",
      "type": "event"
    },
    {
      "anonymous": false,
      "inputs": [
        {
          "indexed": true,
          "internalType": "address",
          "name": "operator",
          "type": "address"
        },
        {
          "indexed": true,
          "internalType": "address",
          "name": "from",
          "type": "address"
        },
        {
          "indexed": true,
          "internalType": "address",
          "name": "to",
          "type": "address"
        },
        {
          "indexed": false,
          "internalType": "uint256",
          "name": "id",
          "type": "uint256"
        },
        {
          "indexed": false,
          "internalType": "uint256",
          "name": "value",
          "type": "uint256"
        }
      ],
      "name": "TransferSingle",
      "type": "event"
    },
    {
      "anonymous": false,
      "inputs": [
        {
          "indexed": false,
          "internalType": "string",
          "name": "value",
          "type": "string"
        },
        {
          "indexed": true,
          "internalType": "uint256",
          "name": "id",
          "type": "uint256"
        }
      ],
      "name": "URI",
      "type": "event"
    },
    {
      "inputs": [
        {
          "internalType": "address",
          "name": "account",
          "type": "address"
        },
        {
          "internalType": "uint256",
          "name": "id",
          "type": "uint256"
        }
      ],
      "name": "balanceOf",
      "outputs": [
        {
          "internalType": "uint256",
          "name": "",
          "type": "uint256"
        }
      ],
      "stateMutability": "view",
      "type": "function"
    },
    {
      "inputs": [
        {
          "internalType": "address[]",
          "name": "accounts",
          "type": "address[]"
        },
        {
          "internalType": "uint256[]",
          "name": "ids",
          "type": "uint256[]"
        }
      ],
      "name": "balanceOfBatch",
      "outputs": [
        {
          "internalType": "uint256[]",
          "name": "",
          "type": "uint256[]"
        }
      ],
      "stateMutability": "view",
      "type": "function"
    },
    {
      "inputs": [
        {
          "internalType": "address",
          "name": "account",
          "type": "address"
        },
        {
          "internalType": "uint256",
          "name": "id",
          "type": "uint256"
        },
        {
          "internalType": "uint256",
          "name": "value",
          "type": "uint256"
        }
      ],
      "name": "burn",
      "outputs": [],
      "stateMutability": "nonpayable",
      "type": "function"
    },
    {
      "inputs": [
        {
          "internalType": "address",
          "name": "account",
          "type": "address"
        },
        {
          "internalType": "uint256[]",
          "name": "ids",
          "type": "uint256[]"
        },
        {
          "internalType": "uint256[]",
          "name": "values",
          "type": "uint256[]"
        }
      ],
      "name": "burnBatch",
      "outputs": [],
      "stateMutability": "nonpayable",
      "type": "function"
    },
    {
      "inputs": [
        {
          "internalType": "address",
          "name": "account",
          "type": "address"
        },
        {
          "internalType": "address",
          "name": "operator",
          "type": "address"
        }
      ],
      "name": "isApprovedForAll",
      "outputs": [
        {
          "internalType": "bool",
          "name": "",
          "type": "bool"
        }
      ],
      "stateMutability": "view",
      "type": "function"
    },
    {
      "inputs": [
        {
          "internalType": "uint256",
          "name": "_amount",
          "type": "uint256"
        }
      ],
      "name": "mint",
      "outputs": [],
      "stateMutability": "nonpayable",
      "type": "function"
    },
    {
      "inputs": [],
      "name": "owner",
      "outputs": [
        {
          "internalType": "address",
          "name": "",
          "type": "address"
        }
      ],
      "stateMutability": "view",
      "type": "function"
    },
    {
      "inputs": [],
      "name": "renounceOwnership",
      "outputs": [],
      "stateMutability": "nonpayable",
      "type": "function"
    },
    {
      "inputs": [
        {
          "internalType": "address",
          "name": "from",
          "type": "address"
        },
        {
          "internalType": "address",
          "name": "to",
          "type": "address"
        },
        {
          "internalType": "uint256[]",
          "name": "ids",
          "type": "uint256[]"
        },
        {
          "internalType": "uint256[]",
          "name": "amounts",
          "type": "uint256[]"
        },
        {
          "internalType": "bytes",
          "name": "data",
          "type": "bytes"
        }
      ],
      "name": "safeBatchTransferFrom",
      "outputs": [],
      "stateMutability": "nonpayable",
      "type": "function"
    },
    {
      "inputs": [
        {
          "internalType": "address",
          "name": "from",
          "type": "address"
        },
        {
          "internalType": "address",
          "name": "to",
          "type": "address"
        },
        {
          "internalType": "uint256",
          "name": "id",
          "type": "uint256"
        },
        {
          "internalType": "uint256",
          "name": "amount",
          "type": "uint256"
        },
        {
          "internalType": "bytes",
          "name": "data",
          "type": "bytes"
        }
      ],
      "name": "safeTransferFrom",
      "outputs": [],
      "stateMutability": "nonpayable",
      "type": "function"
    },
    {
      "inputs": [
        {
          "internalType": "address",
          "name": "operator",
          "type": "address"
        },
        {
          "internalType": "bool",
          "name": "approved",
          "type": "bool"
        }
      ],
      "name": "setApprovalForAll",
      "outputs": [],
      "stateMutability": "nonpayable",
      "type": "function"
    },
    {
      "inputs": [
        {
          "internalType": "uint256",
          "name": "tokenId",
          "type": "uint256"
        },
        {
          "internalType": "string",
          "name": "_uri",
          "type": "string"
        }
      ],
      "name": "setTokenUri",
      "outputs": [],
      "stateMutability": "nonpayable",
      "type": "function"
    },
    {
      "inputs": [
        {
          "internalType": "bytes4",
          "name": "interfaceId",
          "type": "bytes4"
        }
      ],
      "name": "supportsInterface",
      "outputs": [
        {
          "internalType": "bool",
          "name": "",
          "type": "bool"
        }
      ],
      "stateMutability": "view",
      "type": "function"
    },
    {
      "inputs": [],
      "name": "tokenCount",
      "outputs": [
        {
          "internalType": "uint256",
          "name": "",
          "type": "uint256"
        }
      ],
      "stateMutability": "view",
      "type": "function"
    },
    {
      "inputs": [
        {
          "internalType": "address",
          "name": "newOwner",
          "type": "address"
        }
      ],
      "name": "transferOwnership",
      "outputs": [],
      "stateMutability": "nonpayable",
      "type": "function"
    },
    {
      "inputs": [
        {
          "internalType": "uint256",
          "name": "tokenId",
          "type": "uint256"
        }
      ],
      "name": "uri",
      "outputs": [
        {
          "internalType": "string",
          "name": "",
          "type": "string"
        }
      ],
      "stateMutability": "view",
      "type": "function"
    }
  ],
  "bytecode": "0x60806040523480156200001157600080fd5b506040518060800160405280605a815260200162003cd3605a91396200003d816200006460201b60201c565b506200005e620000526200007960201b60201c565b6200008160201b60201c565b620004a8565b8060029081620000759190620003c1565b5050565b600033905090565b6000600360009054906101000a900473ffffffffffffffffffffffffffffffffffffffff16905081600360006101000a81548173ffffffffffffffffffffffffffffffffffffffff021916908373ffffffffffffffffffffffffffffffffffffffff1602179055508173ffffffffffffffffffffffffffffffffffffffff168173ffffffffffffffffffffffffffffffffffffffff167f8be0079c531659141344cd1fd0a4f28419497f9722a3daafe3b4186f6b6457e060405160405180910390a35050565b600081519050919050565b7f4e487b7100000000000000000000000000000000000000000000000000000000600052604160045260246000fd5b7f4e487b7100000000000000000000000000000000000000000000000000000000600052602260045260246000fd5b60006002820490506001821680620001c957607f821691505b602082108103620001df57620001de62000181565b5b50919050565b60008190508160005260206000209050919050565b60006020601f8301049050919050565b600082821b905092915050565b600060088302620002497fffffffffffffffffffffffffffffffffffffffffffffffffffffffffffffffff826200020a565b6200025586836200020a565b95508019841693508086168417925050509392505050565b6000819050919050565b6000819050919050565b6000620002a26200029c62000296846200026d565b62000277565b6200026d565b9050919050565b6000819050919050565b620002be8362000281565b620002d6620002cd82620002a9565b84845462000217565b825550505050565b600090565b620002ed620002de565b620002fa818484620002b3565b505050565b5b81811015620003225762000316600082620002e3565b60018101905062000300565b5050565b601f82111562000371576200033b81620001e5565b6200034684620001fa565b8101602085101562000356578190505b6200036e6200036585620001fa565b830182620002ff565b50505b505050565b600082821c905092915050565b6000620003966000198460080262000376565b1980831691505092915050565b6000620003b1838362000383565b9150826002028217905092915050565b620003cc8262000147565b67ffffffffffffffff811115620003e857620003e762000152565b5b620003f48254620001b0565b6200040182828562000326565b600060209050601f83116001811462000439576000841562000424578287015190505b620004308582620003a3565b865550620004a0565b601f1984166200044986620001e5565b60005b8281101562000473578489015182556001820191506020850194506020810190506200044c565b868310156200049357848901516200048f601f89168262000383565b8355505b6001600288020188555050505b505050505050565b61381b80620004b86000396000f3fe608060405234801561001057600080fd5b50600436106100ff5760003560e01c80638da5cb5b11610097578063e985e9c511610066578063e985e9c514610296578063f242432a146102c6578063f2fde38b146102e2578063f5298aca146102fe576100ff565b80638da5cb5b146102225780639f181b5e14610240578063a0712d681461025e578063a22cb4651461027a576100ff565b80634e1273f4116100d35780634e1273f4146101b057806357f7789e146101e05780636b20c454146101fc578063715018a614610218576100ff565b8062fdd58e1461010457806301ffc9a7146101345780630e89341c146101645780632eb2c2d614610194575b600080fd5b61011e60048036038101906101199190611f7f565b61031a565b60405161012b9190611fce565b60405180910390f35b61014e60048036038101906101499190612041565b6103e2565b60405161015b9190612089565b60405180910390f35b61017e600480360381019061017991906120a4565b6104c4565b60405161018b9190612161565b60405180910390f35b6101ae60048036038101906101a99190612380565b610569565b005b6101ca60048036038101906101c59190612512565b61060a565b6040516101d79190612648565b60405180910390f35b6101fa60048036038101906101f5919061270b565b610723565b005b61021660048036038101906102119190612767565b610750565b005b6102206107ed565b005b61022a610801565b6040516102379190612801565b60405180910390f35b61024861082b565b6040516102559190611fce565b60405180910390f35b610278600480360381019061027391906120a4565b610831565b005b610294600480360381019061028f9190612848565b61086f565b005b6102b060048036038101906102ab9190612888565b610885565b6040516102bd9190612089565b60405180910390f35b6102e060048036038101906102db91906128c8565b610919565b005b6102fc60048036038101906102f7919061295f565b6109ba565b005b6103186004803603810190610313919061298c565b610a3d565b005b60008073ffffffffffffffffffffffffffffffffffffffff168373ffffffffffffffffffffffffffffffffffffffff160361038a576040517f08c379a000000000000000000000000000000000000000000000000000000000815260040161038190612a51565b60405180910390fd5b60008083815260200190815260200160002060008473ffffffffffffffffffffffffffffffffffffffff1673ffffffffffffffffffffffffffffffffffffffff16815260200190815260200160002054905092915050565b60007fd9b67a26000000000000000000000000000000000000000000000000000000007bffffffffffffffffffffffffffffffffffffffffffffffffffffffff1916827bffffffffffffffffffffffffffffffffffffffffffffffffffffffff191614806104ad57507f0e89341c000000000000000000000000000000000000000000000000000000007bffffffffffffffffffffffffffffffffffffffffffffffffffffffff1916827bffffffffffffffffffffffffffffffffffffffffffffffffffffffff1916145b806104bd57506104bc82610ada565b5b9050919050565b60606004600083815260200190815260200160002080546104e490612aa0565b80601f016020809104026020016040519081016040528092919081815260200182805461051090612aa0565b801561055d5780601f106105325761010080835404028352916020019161055d565b820191906000526020600020905b81548152906001019060200180831161054057829003601f168201915b50505050509050919050565b610571610b44565b73ffffffffffffffffffffffffffffffffffffffff168573ffffffffffffffffffffffffffffffffffffffff1614806105b757506105b6856105b1610b44565b610885565b5b6105f6576040517f08c379a00000000000000000000000000000000000000000000000000000000081526004016105ed90612b43565b60405180910390fd5b6106038585858585610b4c565b5050505050565b60608151835114610650576040517f08c379a000000000000000000000000000000000000000000000000000000000815260040161064790612bd5565b60405180910390fd5b6000835167ffffffffffffffff81111561066d5761066c612188565b5b60405190808252806020026020018201604052801561069b5781602001602082028036833780820191505090505b50905060005b8451811015610718576106e88582815181106106c0576106bf612bf5565b5b60200260200101518583815181106106db576106da612bf5565b5b602002602001015161031a565b8282815181106106fb576106fa612bf5565b5b6020026020010181815250508061071190612c53565b90506106a1565b508091505092915050565b61072b610e6d565b8060046000848152602001908152602001600020908161074b9190612e47565b505050565b610758610b44565b73ffffffffffffffffffffffffffffffffffffffff168373ffffffffffffffffffffffffffffffffffffffff16148061079e575061079d83610798610b44565b610885565b5b6107dd576040517f08c379a00000000000000000000000000000000000000000000000000000000081526004016107d490612b43565b60405180910390fd5b6107e8838383610eeb565b505050565b6107f5610e6d565b6107ff60006111b9565b565b6000600360009054906101000a900473ffffffffffffffffffffffffffffffffffffffff16905090565b60055481565b610839610e6d565b61085633600554836040518060200160405280600081525061127f565b60056000815461086590612c53565b9190508190555050565b61088161087a610b44565b838361142f565b5050565b6000600160008473ffffffffffffffffffffffffffffffffffffffff1673ffffffffffffffffffffffffffffffffffffffff16815260200190815260200160002060008373ffffffffffffffffffffffffffffffffffffffff1673ffffffffffffffffffffffffffffffffffffffff16815260200190815260200160002060009054906101000a900460ff16905092915050565b610921610b44565b73ffffffffffffffffffffffffffffffffffffffff168573ffffffffffffffffffffffffffffffffffffffff161480610967575061096685610961610b44565b610885565b5b6109a6576040517f08c379a000000000000000000000000000000000000000000000000000000000815260040161099d90612b43565b60405180910390fd5b6109b3858585858561159b565b5050505050565b6109c2610e6d565b600073ffffffffffffffffffffffffffffffffffffffff168173ffffffffffffffffffffffffffffffffffffffff1603610a31576040517f08c379a0000000000000000000000000000000000000000000000000000000008152600401610a2890612f8b565b60405180910390fd5b610a3a816111b9565b50565b610a45610b44565b73ffffffffffffffffffffffffffffffffffffffff168373ffffffffffffffffffffffffffffffffffffffff161480610a8b5750610a8a83610a85610b44565b610885565b5b610aca576040517f08c379a0000000000000000000000000000000000000000000000000000000008152600401610ac190612b43565b60405180910390fd5b610ad5838383611836565b505050565b60007f01ffc9a7000000000000000000000000000000000000000000000000000000007bffffffffffffffffffffffffffffffffffffffffffffffffffffffff1916827bffffffffffffffffffffffffffffffffffffffffffffffffffffffff1916149050919050565b600033905090565b8151835114610b90576040517f08c379a0000000000000000000000000000000000000000000000000000000008152600401610b879061301d565b60405180910390fd5b600073ffffffffffffffffffffffffffffffffffffffff168473ffffffffffffffffffffffffffffffffffffffff1603610bff576040517f08c379a0000000000000000000000000000000000000000000000000000000008152600401610bf6906130af565b60405180910390fd5b6000610c09610b44565b9050610c19818787878787611a7c565b60005b8451811015610dca576000858281518110610c3a57610c39612bf5565b5b602002602001015190506000858381518110610c5957610c58612bf5565b5b60200260200101519050600080600084815260200190815260200160002060008b73ffffffffffffffffffffffffffffffffffffffff1673ffffffffffffffffffffffffffffffffffffffff16815260200190815260200160002054905081811015610cfa576040517f08c379a0000000000000000000000000000000000000000000000000000000008152600401610cf190613141565b60405180910390fd5b81810360008085815260200190815260200160002060008c73ffffffffffffffffffffffffffffffffffffffff1673ffffffffffffffffffffffffffffffffffffffff168152602001908152602001600020819055508160008085815260200190815260200160002060008b73ffffffffffffffffffffffffffffffffffffffff1673ffffffffffffffffffffffffffffffffffffffff1681526020019081526020016000206000828254610daf9190613161565b9250508190555050505080610dc390612c53565b9050610c1c565b508473ffffffffffffffffffffffffffffffffffffffff168673ffffffffffffffffffffffffffffffffffffffff168273ffffffffffffffffffffffffffffffffffffffff167f4a39dc06d4c0dbc64b70af90fd698a233a518aa5d07e595d983b8c0526c8f7fb8787604051610e41929190613195565b60405180910390a4610e57818787878787611a84565b610e65818787878787611a8c565b505050505050565b610e75610b44565b73ffffffffffffffffffffffffffffffffffffffff16610e93610801565b73ffffffffffffffffffffffffffffffffffffffff1614610ee9576040517f08c379a0000000000000000000000000000000000000000000000000000000008152600401610ee090613218565b60405180910390fd5b565b600073ffffffffffffffffffffffffffffffffffffffff168373ffffffffffffffffffffffffffffffffffffffff1603610f5a576040517f08c379a0000000000000000000000000000000000000000000000000000000008152600401610f51906132aa565b60405180910390fd5b8051825114610f9e576040517f08c379a0000000000000000000000000000000000000000000000000000000008152600401610f959061301d565b60405180910390fd5b6000610fa8610b44565b9050610fc881856000868660405180602001604052806000815250611a7c565b60005b8351811015611115576000848281518110610fe957610fe8612bf5565b5b60200260200101519050600084838151811061100857611007612bf5565b5b60200260200101519050600080600084815260200190815260200160002060008973ffffffffffffffffffffffffffffffffffffffff1673ffffffffffffffffffffffffffffffffffffffff168152602001908152602001600020549050818110156110a9576040517f08c379a00000000000000000000000000000000000000000000000000000000081526004016110a09061333c565b60405180910390fd5b81810360008085815260200190815260200160002060008a73ffffffffffffffffffffffffffffffffffffffff1673ffffffffffffffffffffffffffffffffffffffff16815260200190815260200160002081905550505050808061110d90612c53565b915050610fcb565b50600073ffffffffffffffffffffffffffffffffffffffff168473ffffffffffffffffffffffffffffffffffffffff168273ffffffffffffffffffffffffffffffffffffffff167f4a39dc06d4c0dbc64b70af90fd698a233a518aa5d07e595d983b8c0526c8f7fb868660405161118d929190613195565b60405180910390a46111b381856000868660405180602001604052806000815250611a84565b50505050565b6000600360009054906101000a900473ffffffffffffffffffffffffffffffffffffffff16905081600360006101000a81548173ffffffffffffffffffffffffffffffffffffffff021916908373ffffffffffffffffffffffffffffffffffffffff1602179055508173ffffffffffffffffffffffffffffffffffffffff168173ffffffffffffffffffffffffffffffffffffffff167f8be0079c531659141344cd1fd0a4f28419497f9722a3daafe3b4186f6b6457e060405160405180910390a35050565b600073ffffffffffffffffffffffffffffffffffffffff168473ffffffffffffffffffffffffffffffffffffffff16036112ee576040517f08c379a00000000000000000000000000000000000000000000000000000000081526004016112e5906133ce565b60405180910390fd5b60006112f8610b44565b9050600061130585611c63565b9050600061131285611c63565b905061132383600089858589611a7c565b8460008088815260200190815260200160002060008973ffffffffffffffffffffffffffffffffffffffff1673ffffffffffffffffffffffffffffffffffffffff16815260200190815260200160002060008282546113829190613161565b925050819055508673ffffffffffffffffffffffffffffffffffffffff16600073ffffffffffffffffffffffffffffffffffffffff168473ffffffffffffffffffffffffffffffffffffffff167fc3d58168c5ae7397731d063d5bbf3d657854427343f4c083240f7aacaa2d0f6289896040516114009291906133ee565b60405180910390a461141783600089858589611a84565b61142683600089898989611cdd565b50505050505050565b8173ffffffffffffffffffffffffffffffffffffffff168373ffffffffffffffffffffffffffffffffffffffff160361149d576040517f08c379a000000000000000000000000000000000000000000000000000000000815260040161149490613489565b60405180910390fd5b80600160008573ffffffffffffffffffffffffffffffffffffffff1673ffffffffffffffffffffffffffffffffffffffff16815260200190815260200160002060008473ffffffffffffffffffffffffffffffffffffffff1673ffffffffffffffffffffffffffffffffffffffff16815260200190815260200160002060006101000a81548160ff0219169083151502179055508173ffffffffffffffffffffffffffffffffffffffff168373ffffffffffffffffffffffffffffffffffffffff167f17307eab39ab6107e8899845ad3d59bd9653f200f220920489ca2b5937696c318360405161158e9190612089565b60405180910390a3505050565b600073ffffffffffffffffffffffffffffffffffffffff168473ffffffffffffffffffffffffffffffffffffffff160361160a576040517f08c379a0000000000000000000000000000000000000000000000000000000008152600401611601906130af565b60405180910390fd5b6000611614610b44565b9050600061162185611c63565b9050600061162e85611c63565b905061163e838989858589611a7c565b600080600088815260200190815260200160002060008a73ffffffffffffffffffffffffffffffffffffffff1673ffffffffffffffffffffffffffffffffffffffff168152602001908152602001600020549050858110156116d5576040517f08c379a00000000000000000000000000000000000000000000000000000000081526004016116cc90613141565b60405180910390fd5b85810360008089815260200190815260200160002060008b73ffffffffffffffffffffffffffffffffffffffff1673ffffffffffffffffffffffffffffffffffffffff168152602001908152602001600020819055508560008089815260200190815260200160002060008a73ffffffffffffffffffffffffffffffffffffffff1673ffffffffffffffffffffffffffffffffffffffff168152602001908152602001600020600082825461178a9190613161565b925050819055508773ffffffffffffffffffffffffffffffffffffffff168973ffffffffffffffffffffffffffffffffffffffff168573ffffffffffffffffffffffffffffffffffffffff167fc3d58168c5ae7397731d063d5bbf3d657854427343f4c083240f7aacaa2d0f628a8a6040516118079291906133ee565b60405180910390a461181d848a8a86868a611a84565b61182b848a8a8a8a8a611cdd565b505050505050505050565b600073ffffffffffffffffffffffffffffffffffffffff168373ffffffffffffffffffffffffffffffffffffffff16036118a5576040517f08c379a000000000000000000000000000000000000000000000000000000000815260040161189c906132aa565b60405180910390fd5b60006118af610b44565b905060006118bc84611c63565b905060006118c984611c63565b90506118e983876000858560405180602001604052806000815250611a7c565b600080600087815260200190815260200160002060008873ffffffffffffffffffffffffffffffffffffffff1673ffffffffffffffffffffffffffffffffffffffff16815260200190815260200160002054905084811015611980576040517f08c379a00000000000000000000000000000000000000000000000000000000081526004016119779061333c565b60405180910390fd5b84810360008088815260200190815260200160002060008973ffffffffffffffffffffffffffffffffffffffff1673ffffffffffffffffffffffffffffffffffffffff16815260200190815260200160002081905550600073ffffffffffffffffffffffffffffffffffffffff168773ffffffffffffffffffffffffffffffffffffffff168573ffffffffffffffffffffffffffffffffffffffff167fc3d58168c5ae7397731d063d5bbf3d657854427343f4c083240f7aacaa2d0f628989604051611a4d9291906133ee565b60405180910390a4611a7384886000868660405180602001604052806000815250611a84565b50505050505050565b505050505050565b505050505050565b611aab8473ffffffffffffffffffffffffffffffffffffffff16611eb4565b15611c5b578373ffffffffffffffffffffffffffffffffffffffff1663bc197c8187878686866040518663ffffffff1660e01b8152600401611af19594939291906134fe565b6020604051808303816000875af1925050508015611b2d57506040513d601f19601f82011682018060405250810190611b2a919061357b565b60015b611bd257611b396135b5565b806308c379a003611b955750611b4d6135d7565b80611b585750611b97565b806040517f08c379a0000000000000000000000000000000000000000000000000000000008152600401611b8c9190612161565b60405180910390fd5b505b6040517f08c379a0000000000000000000000000000000000000000000000000000000008152600401611bc9906136d9565b60405180910390fd5b63bc197c8160e01b7bffffffffffffffffffffffffffffffffffffffffffffffffffffffff1916817bffffffffffffffffffffffffffffffffffffffffffffffffffffffff191614611c59576040517f08c379a0000000000000000000000000000000000000000000000000000000008152600401611c509061376b565b60405180910390fd5b505b505050505050565b60606000600167ffffffffffffffff811115611c8257611c81612188565b5b604051908082528060200260200182016040528015611cb05781602001602082028036833780820191505090505b5090508281600081518110611cc857611cc7612bf5565b5b60200260200101818152505080915050919050565b611cfc8473ffffffffffffffffffffffffffffffffffffffff16611eb4565b15611eac578373ffffffffffffffffffffffffffffffffffffffff1663f23a6e6187878686866040518663ffffffff1660e01b8152600401611d4295949392919061378b565b6020604051808303816000875af1925050508015611d7e57506040513d601f19601f82011682018060405250810190611d7b919061357b565b60015b611e2357611d8a6135b5565b806308c379a003611de65750611d9e6135d7565b80611da95750611de8565b806040517f08c379a0000000000000000000000000000000000000000000000000000000008152600401611ddd9190612161565b60405180910390fd5b505b6040517f08c379a0000000000000000000000000000000000000000000000000000000008152600401611e1a906136d9565b60405180910390fd5b63f23a6e6160e01b7bffffffffffffffffffffffffffffffffffffffffffffffffffffffff1916817bffffffffffffffffffffffffffffffffffffffffffffffffffffffff191614611eaa576040517f08c379a0000000000000000000000000000000000000000000000000000000008152600401611ea19061376b565b60405180910390fd5b505b505050505050565b6000808273ffffffffffffffffffffffffffffffffffffffff163b119050919050565b6000604051905090565b600080fd5b600080fd5b600073ffffffffffffffffffffffffffffffffffffffff82169050919050565b6000611f1682611eeb565b9050919050565b611f2681611f0b565b8114611f3157600080fd5b50565b600081359050611f4381611f1d565b92915050565b6000819050919050565b611f5c81611f49565b8114611f6757600080fd5b50565b600081359050611f7981611f53565b92915050565b60008060408385031215611f9657611f95611ee1565b5b6000611fa485828601611f34565b9250506020611fb585828601611f6a565b9150509250929050565b611fc881611f49565b82525050565b6000602082019050611fe36000830184611fbf565b92915050565b60007fffffffff0000000000000000000000000000000000000000000000000000000082169050919050565b61201e81611fe9565b811461202957600080fd5b50565b60008135905061203b81612015565b92915050565b60006020828403121561205757612056611ee1565b5b60006120658482850161202c565b91505092915050565b60008115159050919050565b6120838161206e565b82525050565b600060208201905061209e600083018461207a565b92915050565b6000602082840312156120ba576120b9611ee1565b5b60006120c884828501611f6a565b91505092915050565b600081519050919050565b600082825260208201905092915050565b60005b8381101561210b5780820151818401526020810190506120f0565b60008484015250505050565b6000601f19601f8301169050919050565b6000612133826120d1565b61213d81856120dc565b935061214d8185602086016120ed565b61215681612117565b840191505092915050565b6000602082019050818103600083015261217b8184612128565b905092915050565b600080fd5b7f4e487b7100000000000000000000000000000000000000000000000000000000600052604160045260246000fd5b6121c082612117565b810181811067ffffffffffffffff821117156121df576121de612188565b5b80604052505050565b60006121f2611ed7565b90506121fe82826121b7565b919050565b600067ffffffffffffffff82111561221e5761221d612188565b5b602082029050602081019050919050565b600080fd5b600061224761224284612203565b6121e8565b9050808382526020820190506020840283018581111561226a5761226961222f565b5b835b81811015612293578061227f8882611f6a565b84526020840193505060208101905061226c565b5050509392505050565b600082601f8301126122b2576122b1612183565b5b81356122c2848260208601612234565b91505092915050565b600080fd5b600067ffffffffffffffff8211156122eb576122ea612188565b5b6122f482612117565b9050602081019050919050565b82818337600083830152505050565b600061232361231e846122d0565b6121e8565b90508281526020810184848401111561233f5761233e6122cb565b5b61234a848285612301565b509392505050565b600082601f83011261236757612366612183565b5b8135612377848260208601612310565b91505092915050565b600080600080600060a0868803121561239c5761239b611ee1565b5b60006123aa88828901611f34565b95505060206123bb88828901611f34565b945050604086013567ffffffffffffffff8111156123dc576123db611ee6565b5b6123e88882890161229d565b935050606086013567ffffffffffffffff81111561240957612408611ee6565b5b6124158882890161229d565b925050608086013567ffffffffffffffff81111561243657612435611ee6565b5b61244288828901612352565b9150509295509295909350565b600067ffffffffffffffff82111561246a57612469612188565b5b602082029050602081019050919050565b600061248e6124898461244f565b6121e8565b905080838252602082019050602084028301858111156124b1576124b061222f565b5b835b818110156124da57806124c68882611f34565b8452602084019350506020810190506124b3565b5050509392505050565b600082601f8301126124f9576124f8612183565b5b813561250984826020860161247b565b91505092915050565b6000806040838503121561252957612528611ee1565b5b600083013567ffffffffffffffff81111561254757612546611ee6565b5b612553858286016124e4565b925050602083013567ffffffffffffffff81111561257457612573611ee6565b5b6125808582860161229d565b9150509250929050565b600081519050919050565b600082825260208201905092915050565b6000819050602082019050919050565b6125bf81611f49565b82525050565b60006125d183836125b6565b60208301905092915050565b6000602082019050919050565b60006125f58261258a565b6125ff8185612595565b935061260a836125a6565b8060005b8381101561263b57815161262288826125c5565b975061262d836125dd565b92505060018101905061260e565b5085935050505092915050565b6000602082019050818103600083015261266281846125ea565b905092915050565b600067ffffffffffffffff82111561268557612684612188565b5b61268e82612117565b9050602081019050919050565b60006126ae6126a98461266a565b6121e8565b9050828152602081018484840111156126ca576126c96122cb565b5b6126d5848285612301565b509392505050565b600082601f8301126126f2576126f1612183565b5b813561270284826020860161269b565b91505092915050565b6000806040838503121561272257612721611ee1565b5b600061273085828601611f6a565b925050602083013567ffffffffffffffff81111561275157612750611ee6565b5b61275d858286016126dd565b9150509250929050565b6000806000606084860312156127805761277f611ee1565b5b600061278e86828701611f34565b935050602084013567ffffffffffffffff8111156127af576127ae611ee6565b5b6127bb8682870161229d565b925050604084013567ffffffffffffffff8111156127dc576127db611ee6565b5b6127e88682870161229d565b9150509250925092565b6127fb81611f0b565b82525050565b600060208201905061281660008301846127f2565b92915050565b6128258161206e565b811461283057600080fd5b50565b6000813590506128428161281c565b92915050565b6000806040838503121561285f5761285e611ee1565b5b600061286d85828601611f34565b925050602061287e85828601612833565b9150509250929050565b6000806040838503121561289f5761289e611ee1565b5b60006128ad85828601611f34565b92505060206128be85828601611f34565b9150509250929050565b600080600080600060a086880312156128e4576128e3611ee1565b5b60006128f288828901611f34565b955050602061290388828901611f34565b945050604061291488828901611f6a565b935050606061292588828901611f6a565b925050608086013567ffffffffffffffff81111561294657612945611ee6565b5b61295288828901612352565b9150509295509295909350565b60006020828403121561297557612974611ee1565b5b600061298384828501611f34565b91505092915050565b6000806000606084860312156129a5576129a4611ee1565b5b60006129b386828701611f34565b93505060206129c486828701611f6a565b92505060406129d586828701611f6a565b9150509250925092565b7f455243313135353a2061646472657373207a65726f206973206e6f742061207660008201527f616c6964206f776e657200000000000000000000000000000000000000000000602082015250565b6000612a3b602a836120dc565b9150612a46826129df565b604082019050919050565b60006020820190508181036000830152612a6a81612a2e565b9050919050565b7f4e487b7100000000000000000000000000000000000000000000000000000000600052602260045260246000fd5b60006002820490506001821680612ab857607f821691505b602082108103612acb57612aca612a71565b5b50919050565b7f455243313135353a2063616c6c6572206973206e6f7420746f6b656e206f776e60008201527f6572206f7220617070726f766564000000000000000000000000000000000000602082015250565b6000612b2d602e836120dc565b9150612b3882612ad1565b604082019050919050565b60006020820190508181036000830152612b5c81612b20565b9050919050565b7f455243313135353a206163636f756e747320616e6420696473206c656e67746860008201527f206d69736d617463680000000000000000000000000000000000000000000000602082015250565b6000612bbf6029836120dc565b9150612bca82612b63565b604082019050919050565b60006020820190508181036000830152612bee81612bb2565b9050919050565b7f4e487b7100000000000000000000000000000000000000000000000000000000600052603260045260246000fd5b7f4e487b7100000000000000000000000000000000000000000000000000000000600052601160045260246000fd5b6000612c5e82611f49565b91507fffffffffffffffffffffffffffffffffffffffffffffffffffffffffffffffff8203612c9057612c8f612c24565b5b600182019050919050565b60008190508160005260206000209050919050565b60006020601f8301049050919050565b600082821b905092915050565b600060088302612cfd7fffffffffffffffffffffffffffffffffffffffffffffffffffffffffffffffff82612cc0565b612d078683612cc0565b95508019841693508086168417925050509392505050565b6000819050919050565b6000612d44612d3f612d3a84611f49565b612d1f565b611f49565b9050919050565b6000819050919050565b612d5e83612d29565b612d72612d6a82612d4b565b848454612ccd565b825550505050565b600090565b612d87612d7a565b612d92818484612d55565b505050565b5b81811015612db657612dab600082612d7f565b600181019050612d98565b5050565b601f821115612dfb57612dcc81612c9b565b612dd584612cb0565b81016020851015612de4578190505b612df8612df085612cb0565b830182612d97565b50505b505050565b600082821c905092915050565b6000612e1e60001984600802612e00565b1980831691505092915050565b6000612e378383612e0d565b9150826002028217905092915050565b612e50826120d1565b67ffffffffffffffff811115612e6957612e68612188565b5b612e738254612aa0565b612e7e828285612dba565b600060209050601f831160018114612eb15760008415612e9f578287015190505b612ea98582612e2b565b865550612f11565b601f198416612ebf86612c9b565b60005b82811015612ee757848901518255600182019150602085019450602081019050612ec2565b86831015612f045784890151612f00601f891682612e0d565b8355505b6001600288020188555050505b505050505050565b7f4f776e61626c653a206e6577206f776e657220697320746865207a65726f206160008201527f6464726573730000000000000000000000000000000000000000000000000000602082015250565b6000612f756026836120dc565b9150612f8082612f19565b604082019050919050565b60006020820190508181036000830152612fa481612f68565b9050919050565b7f455243313135353a2069647320616e6420616d6f756e7473206c656e6774682060008201527f6d69736d61746368000000000000000000000000000000000000000000000000602082015250565b60006130076028836120dc565b915061301282612fab565b604082019050919050565b6000602082019050818103600083015261303681612ffa565b9050919050565b7f455243313135353a207472616e7366657220746f20746865207a65726f20616460008201527f6472657373000000000000000000000000000000000000000000000000000000602082015250565b60006130996025836120dc565b91506130a48261303d565b604082019050919050565b600060208201905081810360008301526130c88161308c565b9050919050565b7f455243313135353a20696e73756666696369656e742062616c616e636520666f60008201527f72207472616e7366657200000000000000000000000000000000000000000000602082015250565b600061312b602a836120dc565b9150613136826130cf565b604082019050919050565b6000602082019050818103600083015261315a8161311e565b9050919050565b600061316c82611f49565b915061317783611f49565b925082820190508082111561318f5761318e612c24565b5b92915050565b600060408201905081810360008301526131af81856125ea565b905081810360208301526131c381846125ea565b90509392505050565b7f4f776e61626c653a2063616c6c6572206973206e6f7420746865206f776e6572600082015250565b60006132026020836120dc565b915061320d826131cc565b602082019050919050565b60006020820190508181036000830152613231816131f5565b9050919050565b7f455243313135353a206275726e2066726f6d20746865207a65726f206164647260008201527f6573730000000000000000000000000000000000000000000000000000000000602082015250565b60006132946023836120dc565b915061329f82613238565b604082019050919050565b600060208201905081810360008301526132c381613287565b9050919050565b7f455243313135353a206275726e20616d6f756e7420657863656564732062616c60008201527f616e636500000000000000000000000000000000000000000000000000000000602082015250565b60006133266024836120dc565b9150613331826132ca565b604082019050919050565b6000602082019050818103600083015261335581613319565b9050919050565b7f455243313135353a206d696e7420746f20746865207a65726f2061646472657360008201527f7300000000000000000000000000000000000000000000000000000000000000602082015250565b60006133b86021836120dc565b91506133c38261335c565b604082019050919050565b600060208201905081810360008301526133e7816133ab565b9050919050565b60006040820190506134036000830185611fbf565b6134106020830184611fbf565b9392505050565b7f455243313135353a2073657474696e6720617070726f76616c2073746174757360008201527f20666f722073656c660000000000000000000000000000000000000000000000602082015250565b60006134736029836120dc565b915061347e82613417565b604082019050919050565b600060208201905081810360008301526134a281613466565b9050919050565b600081519050919050565b600082825260208201905092915050565b60006134d0826134a9565b6134da81856134b4565b93506134ea8185602086016120ed565b6134f381612117565b840191505092915050565b600060a08201905061351360008301886127f2565b61352060208301876127f2565b818103604083015261353281866125ea565b9050818103606083015261354681856125ea565b9050818103608083015261355a81846134c5565b90509695505050505050565b60008151905061357581612015565b92915050565b60006020828403121561359157613590611ee1565b5b600061359f84828501613566565b91505092915050565b60008160e01c9050919050565b600060033d11156135d45760046000803e6135d16000516135a8565b90505b90565b600060443d10613664576135e9611ed7565b60043d036004823e80513d602482011167ffffffffffffffff82111715613611575050613664565b808201805167ffffffffffffffff81111561362f5750505050613664565b80602083010160043d03850181111561364c575050505050613664565b61365b826020018501866121b7565b82955050505050505b90565b7f455243313135353a207472616e7366657220746f206e6f6e2d4552433131353560008201527f526563656976657220696d706c656d656e746572000000000000000000000000602082015250565b60006136c36034836120dc565b91506136ce82613667565b604082019050919050565b600060208201905081810360008301526136f2816136b6565b9050919050565b7f455243313135353a204552433131353552656365697665722072656a6563746560008201527f6420746f6b656e73000000000000000000000000000000000000000000000000602082015250565b60006137556028836120dc565b9150613760826136f9565b604082019050919050565b6000602082019050818103600083015261378481613748565b9050919050565b600060a0820190506137a060008301886127f2565b6137ad60208301876127f2565b6137ba6040830186611fbf565b6137c76060830185611fbf565b81810360808301526137d981846134c5565b9050969550505050505056fea264697066735822122061d7ea1a3bb11cdef89f33be6f4a9c61d10d34bd06afcd8b9647180ca3cadd3b64736f6c6343000811003368747470733a2f2f697066732e696f2f697066732f6261667962656961666c6c6678766973633377723262663764646661336b3433797468776c75626f78756670356873696b363270793363707a67342f7b69647d2e6a736f6e",
  "linkReferences": {},
  "deployedLinkReferences": {}
}