{
  "_format": "hh-sol-artifact-1",
  "contractName": "Pass",
  "sourceName": "contracts/Pass.sol",
  "abi": [
    {
      "inputs": [],
      "stateMutability": "nonpayable",
      "type": "constructor"
    },
    {
      "anonymous": false,
      "inputs": [
        {
          "indexed": true,
          "internalType": "address",
          "name": "account",
          "type": "address"
        },
        {
          "indexed": true,
          "internalType": "address",
          "name": "operator",
          "type": "address"
        },
        {
          "indexed": false,
          "internalType": "bool",
          "name": "approved",
          "type": "bool"
        }
      ],
      "name": "ApprovalForAll",
      "type": "event"
    },
    {
      "anonymous": false,
      "inputs": [
        {
          "indexed": true,
          "internalType": "address",
          "name": "previousOwner",
          "type": "address"
        },
        {
          "indexed": true,
          "internalType": "address",
          "name": "newOwner",
          "type": "address"
        }
      ],
      "name": "OwnershipTransferred",
      "type": "event"
    },
    {
      "anonymous": false,
      "inputs": [
        {
          "indexed": true,
          "internalType": "address",
          "name": "operator",
          "type": "address"
        },
        {
          "indexed": true,
          "internalType": "address",
          "name": "from",
          "type": "address"
        },
        {
          "indexed": true,
          "internalType": "address",
          "name": "to",
          "type": "address"
        },
        {
          "indexed": false,
          "internalType": "uint256[]",
          "name": "ids",
          "type": "uint256[]"
        },
        {
          "indexed": false,
          "internalType": "uint256[]",
          "name": "values",
          "type": "uint256[]"
        }
      ],
      "name": "TransferBatch",
      "type": "event"
    },
    {
      "anonymous": false,
      "inputs": [
        {
          "indexed": true,
          "internalType": "address",
          "name": "operator",
          "type": "address"
        },
        {
          "indexed": true,
          "internalType": "address",
          "name": "from",
          "type": "address"
        },
        {
          "indexed": true,
          "internalType": "address",
          "name": "to",
          "type": "address"
        },
        {
          "indexed": false,
          "internalType": "uint256",
          "name": "id",
          "type": "uint256"
        },
        {
          "indexed": false,
          "internalType": "uint256",
          "name": "value",
          "type": "uint256"
        }
      ],
      "name": "TransferSingle",
      "type": "event"
    },
    {
      "anonymous": false,
      "inputs": [
        {
          "indexed": false,
          "internalType": "string",
          "name": "value",
          "type": "string"
        },
        {
          "indexed": true,
          "internalType": "uint256",
          "name": "id",
          "type": "uint256"
        }
      ],
      "name": "URI",
      "type": "event"
    },
    {
      "inputs": [
        {
          "internalType": "address",
          "name": "account",
          "type": "address"
        },
        {
          "internalType": "uint256",
          "name": "id",
          "type": "uint256"
        }
      ],
      "name": "balanceOf",
      "outputs": [
        {
          "internalType": "uint256",
          "name": "",
          "type": "uint256"
        }
      ],
      "stateMutability": "view",
      "type": "function"
    },
    {
      "inputs": [
        {
          "internalType": "address[]",
          "name": "accounts",
          "type": "address[]"
        },
        {
          "internalType": "uint256[]",
          "name": "ids",
          "type": "uint256[]"
        }
      ],
      "name": "balanceOfBatch",
      "outputs": [
        {
          "internalType": "uint256[]",
          "name": "",
          "type": "uint256[]"
        }
      ],
      "stateMutability": "view",
      "type": "function"
    },
    {
      "inputs": [
        {
          "internalType": "address",
          "name": "account",
          "type": "address"
        },
        {
          "internalType": "uint256",
          "name": "id",
          "type": "uint256"
        },
        {
          "internalType": "uint256",
          "name": "value",
          "type": "uint256"
        }
      ],
      "name": "burn",
      "outputs": [],
      "stateMutability": "nonpayable",
      "type": "function"
    },
    {
      "inputs": [
        {
          "internalType": "address",
          "name": "account",
          "type": "address"
        },
        {
          "internalType": "uint256[]",
          "name": "ids",
          "type": "uint256[]"
        },
        {
          "internalType": "uint256[]",
          "name": "values",
          "type": "uint256[]"
        }
      ],
      "name": "burnBatch",
      "outputs": [],
      "stateMutability": "nonpayable",
      "type": "function"
    },
    {
      "inputs": [
        {
          "internalType": "address",
          "name": "account",
          "type": "address"
        },
        {
          "internalType": "address",
          "name": "operator",
          "type": "address"
        }
      ],
      "name": "isApprovedForAll",
      "outputs": [
        {
          "internalType": "bool",
          "name": "",
          "type": "bool"
        }
      ],
      "stateMutability": "view",
      "type": "function"
    },
    {
      "inputs": [
        {
          "internalType": "uint256",
          "name": "_amount",
          "type": "uint256"
        }
      ],
      "name": "mint",
      "outputs": [],
      "stateMutability": "nonpayable",
      "type": "function"
    },
    {
      "inputs": [],
      "name": "owner",
      "outputs": [
        {
          "internalType": "address",
          "name": "",
          "type": "address"
        }
      ],
      "stateMutability": "view",
      "type": "function"
    },
    {
      "inputs": [],
      "name": "renounceOwnership",
      "outputs": [],
      "stateMutability": "nonpayable",
      "type": "function"
    },
    {
      "inputs": [
        {
          "internalType": "address",
          "name": "from",
          "type": "address"
        },
        {
          "internalType": "address",
          "name": "to",
          "type": "address"
        },
        {
          "internalType": "uint256[]",
          "name": "ids",
          "type": "uint256[]"
        },
        {
          "internalType": "uint256[]",
          "name": "amounts",
          "type": "uint256[]"
        },
        {
          "internalType": "bytes",
          "name": "data",
          "type": "bytes"
        }
      ],
      "name": "safeBatchTransferFrom",
      "outputs": [],
      "stateMutability": "nonpayable",
      "type": "function"
    },
    {
      "inputs": [
        {
          "internalType": "address",
          "name": "from",
          "type": "address"
        },
        {
          "internalType": "address",
          "name": "to",
          "type": "address"
        },
        {
          "internalType": "uint256",
          "name": "id",
          "type": "uint256"
        },
        {
          "internalType": "uint256",
          "name": "amount",
          "type": "uint256"
        },
        {
          "internalType": "bytes",
          "name": "data",
          "type": "bytes"
        }
      ],
      "name": "safeTransferFrom",
      "outputs": [],
      "stateMutability": "nonpayable",
      "type": "function"
    },
    {
      "inputs": [
        {
          "internalType": "address",
          "name": "operator",
          "type": "address"
        },
        {
          "internalType": "bool",
          "name": "approved",
          "type": "bool"
        }
      ],
      "name": "setApprovalForAll",
      "outputs": [],
      "stateMutability": "nonpayable",
      "type": "function"
    },
    {
      "inputs": [
        {
          "internalType": "uint256",
          "name": "tokenId",
          "type": "uint256"
        },
        {
          "internalType": "string",
          "name": "_uri",
          "type": "string"
        }
      ],
      "name": "setTokenUri",
      "outputs": [],
      "stateMutability": "nonpayable",
      "type": "function"
    },
    {
      "inputs": [
        {
          "internalType": "bytes4",
          "name": "interfaceId",
          "type": "bytes4"
        }
      ],
      "name": "supportsInterface",
      "outputs": [
        {
          "internalType": "bool",
          "name": "",
          "type": "bool"
        }
      ],
      "stateMutability": "view",
      "type": "function"
    },
    {
      "inputs": [],
      "name": "tokenCount",
      "outputs": [
        {
          "internalType": "uint256",
          "name": "",
          "type": "uint256"
        }
      ],
      "stateMutability": "view",
      "type": "function"
    },
    {
      "inputs": [
        {
          "internalType": "address",
          "name": "newOwner",
          "type": "address"
        }
      ],
      "name": "transferOwnership",
      "outputs": [],
      "stateMutability": "nonpayable",
      "type": "function"
    },
    {
      "inputs": [
        {
          "internalType": "uint256",
          "name": "tokenId",
          "type": "uint256"
        }
      ],
      "name": "uri",
      "outputs": [
        {
          "internalType": "string",
          "name": "",
          "type": "string"
        }
      ],
      "stateMutability": "view",
      "type": "function"
    }
  ],
  "bytecode": "0x60806040523480156200001157600080fd5b506040518060800160405280605a815260200162003915605a91396200003d816200006460201b60201c565b506200005e620000526200008060201b60201c565b6200008860201b60201c565b62000263565b80600290805190602001906200007c9291906200014e565b5050565b600033905090565b6000600360009054906101000a900473ffffffffffffffffffffffffffffffffffffffff16905081600360006101000a81548173ffffffffffffffffffffffffffffffffffffffff021916908373ffffffffffffffffffffffffffffffffffffffff1602179055508173ffffffffffffffffffffffffffffffffffffffff168173ffffffffffffffffffffffffffffffffffffffff167f8be0079c531659141344cd1fd0a4f28419497f9722a3daafe3b4186f6b6457e060405160405180910390a35050565b8280546200015c906200022d565b90600052602060002090601f016020900481019282620001805760008555620001cc565b82601f106200019b57805160ff1916838001178555620001cc565b82800160010185558215620001cc579182015b82811115620001cb578251825591602001919060010190620001ae565b5b509050620001db9190620001df565b5090565b5b80821115620001fa576000816000905550600101620001e0565b5090565b7f4e487b7100000000000000000000000000000000000000000000000000000000600052602260045260246000fd5b600060028204905060018216806200024657607f821691505b602082108114156200025d576200025c620001fe565b5b50919050565b6136a280620002736000396000f3fe608060405234801561001057600080fd5b50600436106100ff5760003560e01c80638da5cb5b11610097578063e985e9c511610066578063e985e9c514610296578063f242432a146102c6578063f2fde38b146102e2578063f5298aca146102fe576100ff565b80638da5cb5b146102225780639f181b5e14610240578063a0712d681461025e578063a22cb4651461027a576100ff565b80634e1273f4116100d35780634e1273f4146101b057806357f7789e146101e05780636b20c454146101fc578063715018a614610218576100ff565b8062fdd58e1461010457806301ffc9a7146101345780630e89341c146101645780632eb2c2d614610194575b600080fd5b61011e60048036038101906101199190612051565b61031a565b60405161012b91906120a0565b60405180910390f35b61014e60048036038101906101499190612113565b6103e3565b60405161015b919061215b565b60405180910390f35b61017e60048036038101906101799190612176565b6104c5565b60405161018b919061223c565b60405180910390f35b6101ae60048036038101906101a9919061245b565b61056a565b005b6101ca60048036038101906101c591906125ed565b61060b565b6040516101d79190612723565b60405180910390f35b6101fa60048036038101906101f591906127e6565b610724565b005b61021660048036038101906102119190612842565b610758565b005b6102206107f5565b005b61022a610809565b60405161023791906128dc565b60405180910390f35b610248610833565b60405161025591906120a0565b60405180910390f35b61027860048036038101906102739190612176565b610839565b005b610294600480360381019061028f9190612923565b610877565b005b6102b060048036038101906102ab9190612963565b61088d565b6040516102bd919061215b565b60405180910390f35b6102e060048036038101906102db91906129a3565b610921565b005b6102fc60048036038101906102f79190612a3a565b6109c2565b005b61031860048036038101906103139190612a67565b610a46565b005b60008073ffffffffffffffffffffffffffffffffffffffff168373ffffffffffffffffffffffffffffffffffffffff16141561038b576040517f08c379a000000000000000000000000000000000000000000000000000000000815260040161038290612b2c565b60405180910390fd5b60008083815260200190815260200160002060008473ffffffffffffffffffffffffffffffffffffffff1673ffffffffffffffffffffffffffffffffffffffff16815260200190815260200160002054905092915050565b60007fd9b67a26000000000000000000000000000000000000000000000000000000007bffffffffffffffffffffffffffffffffffffffffffffffffffffffff1916827bffffffffffffffffffffffffffffffffffffffffffffffffffffffff191614806104ae57507f0e89341c000000000000000000000000000000000000000000000000000000007bffffffffffffffffffffffffffffffffffffffffffffffffffffffff1916827bffffffffffffffffffffffffffffffffffffffffffffffffffffffff1916145b806104be57506104bd82610ae3565b5b9050919050565b60606004600083815260200190815260200160002080546104e590612b7b565b80601f016020809104026020016040519081016040528092919081815260200182805461051190612b7b565b801561055e5780601f106105335761010080835404028352916020019161055e565b820191906000526020600020905b81548152906001019060200180831161054157829003601f168201915b50505050509050919050565b610572610b4d565b73ffffffffffffffffffffffffffffffffffffffff168573ffffffffffffffffffffffffffffffffffffffff1614806105b857506105b7856105b2610b4d565b61088d565b5b6105f7576040517f08c379a00000000000000000000000000000000000000000000000000000000081526004016105ee90612c1f565b60405180910390fd5b6106048585858585610b55565b5050505050565b60608151835114610651576040517f08c379a000000000000000000000000000000000000000000000000000000000815260040161064890612cb1565b60405180910390fd5b6000835167ffffffffffffffff81111561066e5761066d612263565b5b60405190808252806020026020018201604052801561069c5781602001602082028036833780820191505090505b50905060005b8451811015610719576106e98582815181106106c1576106c0612cd1565b5b60200260200101518583815181106106dc576106db612cd1565b5b602002602001015161031a565b8282815181106106fc576106fb612cd1565b5b6020026020010181815250508061071290612d2f565b90506106a2565b508091505092915050565b61072c610e77565b80600460008481526020019081526020016000209080519060200190610753929190611f06565b505050565b610760610b4d565b73ffffffffffffffffffffffffffffffffffffffff168373ffffffffffffffffffffffffffffffffffffffff1614806107a657506107a5836107a0610b4d565b61088d565b5b6107e5576040517f08c379a00000000000000000000000000000000000000000000000000000000081526004016107dc90612c1f565b60405180910390fd5b6107f0838383610ef5565b505050565b6107fd610e77565b61080760006111c4565b565b6000600360009054906101000a900473ffffffffffffffffffffffffffffffffffffffff16905090565b60055481565b610841610e77565b61085e33600554836040518060200160405280600081525061128a565b60056000815461086d90612d2f565b9190508190555050565b610889610882610b4d565b838361143b565b5050565b6000600160008473ffffffffffffffffffffffffffffffffffffffff1673ffffffffffffffffffffffffffffffffffffffff16815260200190815260200160002060008373ffffffffffffffffffffffffffffffffffffffff1673ffffffffffffffffffffffffffffffffffffffff16815260200190815260200160002060009054906101000a900460ff16905092915050565b610929610b4d565b73ffffffffffffffffffffffffffffffffffffffff168573ffffffffffffffffffffffffffffffffffffffff16148061096f575061096e85610969610b4d565b61088d565b5b6109ae576040517f08c379a00000000000000000000000000000000000000000000000000000000081526004016109a590612c1f565b60405180910390fd5b6109bb85858585856115a8565b5050505050565b6109ca610e77565b600073ffffffffffffffffffffffffffffffffffffffff168173ffffffffffffffffffffffffffffffffffffffff161415610a3a576040517f08c379a0000000000000000000000000000000000000000000000000000000008152600401610a3190612dea565b60405180910390fd5b610a43816111c4565b50565b610a4e610b4d565b73ffffffffffffffffffffffffffffffffffffffff168373ffffffffffffffffffffffffffffffffffffffff161480610a945750610a9383610a8e610b4d565b61088d565b5b610ad3576040517f08c379a0000000000000000000000000000000000000000000000000000000008152600401610aca90612c1f565b60405180910390fd5b610ade838383611844565b505050565b60007f01ffc9a7000000000000000000000000000000000000000000000000000000007bffffffffffffffffffffffffffffffffffffffffffffffffffffffff1916827bffffffffffffffffffffffffffffffffffffffffffffffffffffffff1916149050919050565b600033905090565b8151835114610b99576040517f08c379a0000000000000000000000000000000000000000000000000000000008152600401610b9090612e7c565b60405180910390fd5b600073ffffffffffffffffffffffffffffffffffffffff168473ffffffffffffffffffffffffffffffffffffffff161415610c09576040517f08c379a0000000000000000000000000000000000000000000000000000000008152600401610c0090612f0e565b60405180910390fd5b6000610c13610b4d565b9050610c23818787878787611a8b565b60005b8451811015610dd4576000858281518110610c4457610c43612cd1565b5b602002602001015190506000858381518110610c6357610c62612cd1565b5b60200260200101519050600080600084815260200190815260200160002060008b73ffffffffffffffffffffffffffffffffffffffff1673ffffffffffffffffffffffffffffffffffffffff16815260200190815260200160002054905081811015610d04576040517f08c379a0000000000000000000000000000000000000000000000000000000008152600401610cfb90612fa0565b60405180910390fd5b81810360008085815260200190815260200160002060008c73ffffffffffffffffffffffffffffffffffffffff1673ffffffffffffffffffffffffffffffffffffffff168152602001908152602001600020819055508160008085815260200190815260200160002060008b73ffffffffffffffffffffffffffffffffffffffff1673ffffffffffffffffffffffffffffffffffffffff1681526020019081526020016000206000828254610db99190612fc0565b9250508190555050505080610dcd90612d2f565b9050610c26565b508473ffffffffffffffffffffffffffffffffffffffff168673ffffffffffffffffffffffffffffffffffffffff168273ffffffffffffffffffffffffffffffffffffffff167f4a39dc06d4c0dbc64b70af90fd698a233a518aa5d07e595d983b8c0526c8f7fb8787604051610e4b929190613016565b60405180910390a4610e61818787878787611a93565b610e6f818787878787611a9b565b505050505050565b610e7f610b4d565b73ffffffffffffffffffffffffffffffffffffffff16610e9d610809565b73ffffffffffffffffffffffffffffffffffffffff1614610ef3576040517f08c379a0000000000000000000000000000000000000000000000000000000008152600401610eea90613099565b60405180910390fd5b565b600073ffffffffffffffffffffffffffffffffffffffff168373ffffffffffffffffffffffffffffffffffffffff161415610f65576040517f08c379a0000000000000000000000000000000000000000000000000000000008152600401610f5c9061312b565b60405180910390fd5b8051825114610fa9576040517f08c379a0000000000000000000000000000000000000000000000000000000008152600401610fa090612e7c565b60405180910390fd5b6000610fb3610b4d565b9050610fd381856000868660405180602001604052806000815250611a8b565b60005b8351811015611120576000848281518110610ff457610ff3612cd1565b5b60200260200101519050600084838151811061101357611012612cd1565b5b60200260200101519050600080600084815260200190815260200160002060008973ffffffffffffffffffffffffffffffffffffffff1673ffffffffffffffffffffffffffffffffffffffff168152602001908152602001600020549050818110156110b4576040517f08c379a00000000000000000000000000000000000000000000000000000000081526004016110ab906131bd565b60405180910390fd5b81810360008085815260200190815260200160002060008a73ffffffffffffffffffffffffffffffffffffffff1673ffffffffffffffffffffffffffffffffffffffff16815260200190815260200160002081905550505050808061111890612d2f565b915050610fd6565b50600073ffffffffffffffffffffffffffffffffffffffff168473ffffffffffffffffffffffffffffffffffffffff168273ffffffffffffffffffffffffffffffffffffffff167f4a39dc06d4c0dbc64b70af90fd698a233a518aa5d07e595d983b8c0526c8f7fb8686604051611198929190613016565b60405180910390a46111be81856000868660405180602001604052806000815250611a93565b50505050565b6000600360009054906101000a900473ffffffffffffffffffffffffffffffffffffffff16905081600360006101000a81548173ffffffffffffffffffffffffffffffffffffffff021916908373ffffffffffffffffffffffffffffffffffffffff1602179055508173ffffffffffffffffffffffffffffffffffffffff168173ffffffffffffffffffffffffffffffffffffffff167f8be0079c531659141344cd1fd0a4f28419497f9722a3daafe3b4186f6b6457e060405160405180910390a35050565b600073ffffffffffffffffffffffffffffffffffffffff168473ffffffffffffffffffffffffffffffffffffffff1614156112fa576040517f08c379a00000000000000000000000000000000000000000000000000000000081526004016112f19061324f565b60405180910390fd5b6000611304610b4d565b9050600061131185611c82565b9050600061131e85611c82565b905061132f83600089858589611a8b565b8460008088815260200190815260200160002060008973ffffffffffffffffffffffffffffffffffffffff1673ffffffffffffffffffffffffffffffffffffffff168152602001908152602001600020600082825461138e9190612fc0565b925050819055508673ffffffffffffffffffffffffffffffffffffffff16600073ffffffffffffffffffffffffffffffffffffffff168473ffffffffffffffffffffffffffffffffffffffff167fc3d58168c5ae7397731d063d5bbf3d657854427343f4c083240f7aacaa2d0f62898960405161140c92919061326f565b60405180910390a461142383600089858589611a93565b61143283600089898989611cfc565b50505050505050565b8173ffffffffffffffffffffffffffffffffffffffff168373ffffffffffffffffffffffffffffffffffffffff1614156114aa576040517f08c379a00000000000000000000000000000000000000000000000000000000081526004016114a19061330a565b60405180910390fd5b80600160008573ffffffffffffffffffffffffffffffffffffffff1673ffffffffffffffffffffffffffffffffffffffff16815260200190815260200160002060008473ffffffffffffffffffffffffffffffffffffffff1673ffffffffffffffffffffffffffffffffffffffff16815260200190815260200160002060006101000a81548160ff0219169083151502179055508173ffffffffffffffffffffffffffffffffffffffff168373ffffffffffffffffffffffffffffffffffffffff167f17307eab39ab6107e8899845ad3d59bd9653f200f220920489ca2b5937696c318360405161159b919061215b565b60405180910390a3505050565b600073ffffffffffffffffffffffffffffffffffffffff168473ffffffffffffffffffffffffffffffffffffffff161415611618576040517f08c379a000000000000000000000000000000000000000000000000000000000815260040161160f90612f0e565b60405180910390fd5b6000611622610b4d565b9050600061162f85611c82565b9050600061163c85611c82565b905061164c838989858589611a8b565b600080600088815260200190815260200160002060008a73ffffffffffffffffffffffffffffffffffffffff1673ffffffffffffffffffffffffffffffffffffffff168152602001908152602001600020549050858110156116e3576040517f08c379a00000000000000000000000000000000000000000000000000000000081526004016116da90612fa0565b60405180910390fd5b85810360008089815260200190815260200160002060008b73ffffffffffffffffffffffffffffffffffffffff1673ffffffffffffffffffffffffffffffffffffffff168152602001908152602001600020819055508560008089815260200190815260200160002060008a73ffffffffffffffffffffffffffffffffffffffff1673ffffffffffffffffffffffffffffffffffffffff16815260200190815260200160002060008282546117989190612fc0565b925050819055508773ffffffffffffffffffffffffffffffffffffffff168973ffffffffffffffffffffffffffffffffffffffff168573ffffffffffffffffffffffffffffffffffffffff167fc3d58168c5ae7397731d063d5bbf3d657854427343f4c083240f7aacaa2d0f628a8a60405161181592919061326f565b60405180910390a461182b848a8a86868a611a93565b611839848a8a8a8a8a611cfc565b505050505050505050565b600073ffffffffffffffffffffffffffffffffffffffff168373ffffffffffffffffffffffffffffffffffffffff1614156118b4576040517f08c379a00000000000000000000000000000000000000000000000000000000081526004016118ab9061312b565b60405180910390fd5b60006118be610b4d565b905060006118cb84611c82565b905060006118d884611c82565b90506118f883876000858560405180602001604052806000815250611a8b565b600080600087815260200190815260200160002060008873ffffffffffffffffffffffffffffffffffffffff1673ffffffffffffffffffffffffffffffffffffffff1681526020019081526020016000205490508481101561198f576040517f08c379a0000000000000000000000000000000000000000000000000000000008152600401611986906131bd565b60405180910390fd5b84810360008088815260200190815260200160002060008973ffffffffffffffffffffffffffffffffffffffff1673ffffffffffffffffffffffffffffffffffffffff16815260200190815260200160002081905550600073ffffffffffffffffffffffffffffffffffffffff168773ffffffffffffffffffffffffffffffffffffffff168573ffffffffffffffffffffffffffffffffffffffff167fc3d58168c5ae7397731d063d5bbf3d657854427343f4c083240f7aacaa2d0f628989604051611a5c92919061326f565b60405180910390a4611a8284886000868660405180602001604052806000815250611a93565b50505050505050565b505050505050565b505050505050565b611aba8473ffffffffffffffffffffffffffffffffffffffff16611ee3565b15611c7a578373ffffffffffffffffffffffffffffffffffffffff1663bc197c8187878686866040518663ffffffff1660e01b8152600401611b0095949392919061337f565b602060405180830381600087803b158015611b1a57600080fd5b505af1925050508015611b4b57506040513d601f19601f82011682018060405250810190611b4891906133fc565b60015b611bf157611b57613436565b806308c379a01415611bb45750611b6c613458565b80611b775750611bb6565b806040517f08c379a0000000000000000000000000000000000000000000000000000000008152600401611bab919061223c565b60405180910390fd5b505b6040517f08c379a0000000000000000000000000000000000000000000000000000000008152600401611be890613560565b60405180910390fd5b63bc197c8160e01b7bffffffffffffffffffffffffffffffffffffffffffffffffffffffff1916817bffffffffffffffffffffffffffffffffffffffffffffffffffffffff191614611c78576040517f08c379a0000000000000000000000000000000000000000000000000000000008152600401611c6f906135f2565b60405180910390fd5b505b505050505050565b60606000600167ffffffffffffffff811115611ca157611ca0612263565b5b604051908082528060200260200182016040528015611ccf5781602001602082028036833780820191505090505b5090508281600081518110611ce757611ce6612cd1565b5b60200260200101818152505080915050919050565b611d1b8473ffffffffffffffffffffffffffffffffffffffff16611ee3565b15611edb578373ffffffffffffffffffffffffffffffffffffffff1663f23a6e6187878686866040518663ffffffff1660e01b8152600401611d61959493929190613612565b602060405180830381600087803b158015611d7b57600080fd5b505af1925050508015611dac57506040513d601f19601f82011682018060405250810190611da991906133fc565b60015b611e5257611db8613436565b806308c379a01415611e155750611dcd613458565b80611dd85750611e17565b806040517f08c379a0000000000000000000000000000000000000000000000000000000008152600401611e0c919061223c565b60405180910390fd5b505b6040517f08c379a0000000000000000000000000000000000000000000000000000000008152600401611e4990613560565b60405180910390fd5b63f23a6e6160e01b7bffffffffffffffffffffffffffffffffffffffffffffffffffffffff1916817bffffffffffffffffffffffffffffffffffffffffffffffffffffffff191614611ed9576040517f08c379a0000000000000000000000000000000000000000000000000000000008152600401611ed0906135f2565b60405180910390fd5b505b505050505050565b6000808273ffffffffffffffffffffffffffffffffffffffff163b119050919050565b828054611f1290612b7b565b90600052602060002090601f016020900481019282611f345760008555611f7b565b82601f10611f4d57805160ff1916838001178555611f7b565b82800160010185558215611f7b579182015b82811115611f7a578251825591602001919060010190611f5f565b5b509050611f889190611f8c565b5090565b5b80821115611fa5576000816000905550600101611f8d565b5090565b6000604051905090565b600080fd5b600080fd5b600073ffffffffffffffffffffffffffffffffffffffff82169050919050565b6000611fe882611fbd565b9050919050565b611ff881611fdd565b811461200357600080fd5b50565b60008135905061201581611fef565b92915050565b6000819050919050565b61202e8161201b565b811461203957600080fd5b50565b60008135905061204b81612025565b92915050565b6000806040838503121561206857612067611fb3565b5b600061207685828601612006565b92505060206120878582860161203c565b9150509250929050565b61209a8161201b565b82525050565b60006020820190506120b56000830184612091565b92915050565b60007fffffffff0000000000000000000000000000000000000000000000000000000082169050919050565b6120f0816120bb565b81146120fb57600080fd5b50565b60008135905061210d816120e7565b92915050565b60006020828403121561212957612128611fb3565b5b6000612137848285016120fe565b91505092915050565b60008115159050919050565b61215581612140565b82525050565b6000602082019050612170600083018461214c565b92915050565b60006020828403121561218c5761218b611fb3565b5b600061219a8482850161203c565b91505092915050565b600081519050919050565b600082825260208201905092915050565b60005b838110156121dd5780820151818401526020810190506121c2565b838111156121ec576000848401525b50505050565b6000601f19601f8301169050919050565b600061220e826121a3565b61221881856121ae565b93506122288185602086016121bf565b612231816121f2565b840191505092915050565b600060208201905081810360008301526122568184612203565b905092915050565b600080fd5b7f4e487b7100000000000000000000000000000000000000000000000000000000600052604160045260246000fd5b61229b826121f2565b810181811067ffffffffffffffff821117156122ba576122b9612263565b5b80604052505050565b60006122cd611fa9565b90506122d98282612292565b919050565b600067ffffffffffffffff8211156122f9576122f8612263565b5b602082029050602081019050919050565b600080fd5b600061232261231d846122de565b6122c3565b905080838252602082019050602084028301858111156123455761234461230a565b5b835b8181101561236e578061235a888261203c565b845260208401935050602081019050612347565b5050509392505050565b600082601f83011261238d5761238c61225e565b5b813561239d84826020860161230f565b91505092915050565b600080fd5b600067ffffffffffffffff8211156123c6576123c5612263565b5b6123cf826121f2565b9050602081019050919050565b82818337600083830152505050565b60006123fe6123f9846123ab565b6122c3565b90508281526020810184848401111561241a576124196123a6565b5b6124258482856123dc565b509392505050565b600082601f8301126124425761244161225e565b5b81356124528482602086016123eb565b91505092915050565b600080600080600060a0868803121561247757612476611fb3565b5b600061248588828901612006565b955050602061249688828901612006565b945050604086013567ffffffffffffffff8111156124b7576124b6611fb8565b5b6124c388828901612378565b935050606086013567ffffffffffffffff8111156124e4576124e3611fb8565b5b6124f088828901612378565b925050608086013567ffffffffffffffff81111561251157612510611fb8565b5b61251d8882890161242d565b9150509295509295909350565b600067ffffffffffffffff82111561254557612544612263565b5b602082029050602081019050919050565b60006125696125648461252a565b6122c3565b9050808382526020820190506020840283018581111561258c5761258b61230a565b5b835b818110156125b557806125a18882612006565b84526020840193505060208101905061258e565b5050509392505050565b600082601f8301126125d4576125d361225e565b5b81356125e4848260208601612556565b91505092915050565b6000806040838503121561260457612603611fb3565b5b600083013567ffffffffffffffff81111561262257612621611fb8565b5b61262e858286016125bf565b925050602083013567ffffffffffffffff81111561264f5761264e611fb8565b5b61265b85828601612378565b9150509250929050565b600081519050919050565b600082825260208201905092915050565b6000819050602082019050919050565b61269a8161201b565b82525050565b60006126ac8383612691565b60208301905092915050565b6000602082019050919050565b60006126d082612665565b6126da8185612670565b93506126e583612681565b8060005b838110156127165781516126fd88826126a0565b9750612708836126b8565b9250506001810190506126e9565b5085935050505092915050565b6000602082019050818103600083015261273d81846126c5565b905092915050565b600067ffffffffffffffff8211156127605761275f612263565b5b612769826121f2565b9050602081019050919050565b600061278961278484612745565b6122c3565b9050828152602081018484840111156127a5576127a46123a6565b5b6127b08482856123dc565b509392505050565b600082601f8301126127cd576127cc61225e565b5b81356127dd848260208601612776565b91505092915050565b600080604083850312156127fd576127fc611fb3565b5b600061280b8582860161203c565b925050602083013567ffffffffffffffff81111561282c5761282b611fb8565b5b612838858286016127b8565b9150509250929050565b60008060006060848603121561285b5761285a611fb3565b5b600061286986828701612006565b935050602084013567ffffffffffffffff81111561288a57612889611fb8565b5b61289686828701612378565b925050604084013567ffffffffffffffff8111156128b7576128b6611fb8565b5b6128c386828701612378565b9150509250925092565b6128d681611fdd565b82525050565b60006020820190506128f160008301846128cd565b92915050565b61290081612140565b811461290b57600080fd5b50565b60008135905061291d816128f7565b92915050565b6000806040838503121561293a57612939611fb3565b5b600061294885828601612006565b92505060206129598582860161290e565b9150509250929050565b6000806040838503121561297a57612979611fb3565b5b600061298885828601612006565b925050602061299985828601612006565b9150509250929050565b600080600080600060a086880312156129bf576129be611fb3565b5b60006129cd88828901612006565b95505060206129de88828901612006565b94505060406129ef8882890161203c565b9350506060612a008882890161203c565b925050608086013567ffffffffffffffff811115612a2157612a20611fb8565b5b612a2d8882890161242d565b9150509295509295909350565b600060208284031215612a5057612a4f611fb3565b5b6000612a5e84828501612006565b91505092915050565b600080600060608486031215612a8057612a7f611fb3565b5b6000612a8e86828701612006565b9350506020612a9f8682870161203c565b9250506040612ab08682870161203c565b9150509250925092565b7f455243313135353a2061646472657373207a65726f206973206e6f742061207660008201527f616c6964206f776e657200000000000000000000000000000000000000000000602082015250565b6000612b16602a836121ae565b9150612b2182612aba565b604082019050919050565b60006020820190508181036000830152612b4581612b09565b9050919050565b7f4e487b7100000000000000000000000000000000000000000000000000000000600052602260045260246000fd5b60006002820490506001821680612b9357607f821691505b60208210811415612ba757612ba6612b4c565b5b50919050565b7f455243313135353a2063616c6c6572206973206e6f7420746f6b656e206f776e60008201527f6572206f7220617070726f766564000000000000000000000000000000000000602082015250565b6000612c09602e836121ae565b9150612c1482612bad565b604082019050919050565b60006020820190508181036000830152612c3881612bfc565b9050919050565b7f455243313135353a206163636f756e747320616e6420696473206c656e67746860008201527f206d69736d617463680000000000000000000000000000000000000000000000602082015250565b6000612c9b6029836121ae565b9150612ca682612c3f565b604082019050919050565b60006020820190508181036000830152612cca81612c8e565b9050919050565b7f4e487b7100000000000000000000000000000000000000000000000000000000600052603260045260246000fd5b7f4e487b7100000000000000000000000000000000000000000000000000000000600052601160045260246000fd5b6000612d3a8261201b565b91507fffffffffffffffffffffffffffffffffffffffffffffffffffffffffffffffff821415612d6d57612d6c612d00565b5b600182019050919050565b7f4f776e61626c653a206e6577206f776e657220697320746865207a65726f206160008201527f6464726573730000000000000000000000000000000000000000000000000000602082015250565b6000612dd46026836121ae565b9150612ddf82612d78565b604082019050919050565b60006020820190508181036000830152612e0381612dc7565b9050919050565b7f455243313135353a2069647320616e6420616d6f756e7473206c656e6774682060008201527f6d69736d61746368000000000000000000000000000000000000000000000000602082015250565b6000612e666028836121ae565b9150612e7182612e0a565b604082019050919050565b60006020820190508181036000830152612e9581612e59565b9050919050565b7f455243313135353a207472616e7366657220746f20746865207a65726f20616460008201527f6472657373000000000000000000000000000000000000000000000000000000602082015250565b6000612ef86025836121ae565b9150612f0382612e9c565b604082019050919050565b60006020820190508181036000830152612f2781612eeb565b9050919050565b7f455243313135353a20696e73756666696369656e742062616c616e636520666f60008201527f72207472616e7366657200000000000000000000000000000000000000000000602082015250565b6000612f8a602a836121ae565b9150612f9582612f2e565b604082019050919050565b60006020820190508181036000830152612fb981612f7d565b9050919050565b6000612fcb8261201b565b9150612fd68361201b565b9250827fffffffffffffffffffffffffffffffffffffffffffffffffffffffffffffffff0382111561300b5761300a612d00565b5b828201905092915050565b6000604082019050818103600083015261303081856126c5565b9050818103602083015261304481846126c5565b90509392505050565b7f4f776e61626c653a2063616c6c6572206973206e6f7420746865206f776e6572600082015250565b60006130836020836121ae565b915061308e8261304d565b602082019050919050565b600060208201905081810360008301526130b281613076565b9050919050565b7f455243313135353a206275726e2066726f6d20746865207a65726f206164647260008201527f6573730000000000000000000000000000000000000000000000000000000000602082015250565b60006131156023836121ae565b9150613120826130b9565b604082019050919050565b6000602082019050818103600083015261314481613108565b9050919050565b7f455243313135353a206275726e20616d6f756e7420657863656564732062616c60008201527f616e636500000000000000000000000000000000000000000000000000000000602082015250565b60006131a76024836121ae565b91506131b28261314b565b604082019050919050565b600060208201905081810360008301526131d68161319a565b9050919050565b7f455243313135353a206d696e7420746f20746865207a65726f2061646472657360008201527f7300000000000000000000000000000000000000000000000000000000000000602082015250565b60006132396021836121ae565b9150613244826131dd565b604082019050919050565b600060208201905081810360008301526132688161322c565b9050919050565b60006040820190506132846000830185612091565b6132916020830184612091565b9392505050565b7f455243313135353a2073657474696e6720617070726f76616c2073746174757360008201527f20666f722073656c660000000000000000000000000000000000000000000000602082015250565b60006132f46029836121ae565b91506132ff82613298565b604082019050919050565b60006020820190508181036000830152613323816132e7565b9050919050565b600081519050919050565b600082825260208201905092915050565b60006133518261332a565b61335b8185613335565b935061336b8185602086016121bf565b613374816121f2565b840191505092915050565b600060a08201905061339460008301886128cd565b6133a160208301876128cd565b81810360408301526133b381866126c5565b905081810360608301526133c781856126c5565b905081810360808301526133db8184613346565b90509695505050505050565b6000815190506133f6816120e7565b92915050565b60006020828403121561341257613411611fb3565b5b6000613420848285016133e7565b91505092915050565b60008160e01c9050919050565b600060033d11156134555760046000803e613452600051613429565b90505b90565b600060443d1015613468576134eb565b613470611fa9565b60043d036004823e80513d602482011167ffffffffffffffff821117156134985750506134eb565b808201805167ffffffffffffffff8111156134b657505050506134eb565b80602083010160043d0385018111156134d35750505050506134eb565b6134e282602001850186612292565b82955050505050505b90565b7f455243313135353a207472616e7366657220746f206e6f6e2d4552433131353560008201527f526563656976657220696d706c656d656e746572000000000000000000000000602082015250565b600061354a6034836121ae565b9150613555826134ee565b604082019050919050565b600060208201905081810360008301526135798161353d565b9050919050565b7f455243313135353a204552433131353552656365697665722072656a6563746560008201527f6420746f6b656e73000000000000000000000000000000000000000000000000602082015250565b60006135dc6028836121ae565b91506135e782613580565b604082019050919050565b6000602082019050818103600083015261360b816135cf565b9050919050565b600060a08201905061362760008301886128cd565b61363460208301876128cd565b6136416040830186612091565b61364e6060830185612091565b81810360808301526136608184613346565b9050969550505050505056fea26469706673582212208a385dbe09ac8cb48c80a287ffdb48af80fecaee72a16f127e7988cd48a5e74164736f6c6343000809003368747470733a2f2f697066732e696f2f697066732f6261667962656961666c6c6678766973633377723262663764646661336b3433797468776c75626f78756670356873696b363270793363707a67342f7b69647d2e6a736f6e",
  "linkReferences": {},
  "deployedLinkReferences": {}
}